{"contracts/CompoundNFT.sol":{"CompoundNFT":{"abi":[{"inputs":[{"internalType":"address","name":"_daiTokenAddress","type":"address"},{"internalType":"address","name":"_cDaiTokenAddress","type":"address"}],"stateMutability":"nonpayable","type":"constructor"},{"anonymous":false,"inputs":[{"indexed":true,"internalType":"address","name":"owner","type":"address"},{"indexed":true,"internalType":"address","name":"approved","type":"address"},{"indexed":true,"internalType":"uint256","name":"tokenId","type":"uint256"}],"name":"Approval","type":"event"},{"anonymous":false,"inputs":[{"indexed":true,"internalType":"address","name":"owner","type":"address"},{"indexed":true,"internalType":"address","name":"operator","type":"address"},{"indexed":false,"internalType":"bool","name":"approved","type":"bool"}],"name":"ApprovalForAll","type":"event"},{"anonymous":false,"inputs":[{"indexed":false,"internalType":"uint256","name":"tokenId","type":"uint256"},{"indexed":false,"internalType":"address","name":"owner","type":"address"}],"name":"NFTBurned","type":"event"},{"anonymous":false,"inputs":[{"indexed":false,"internalType":"uint256","name":"tokenId","type":"uint256"},{"indexed":false,"internalType":"address","name":"owner","type":"address"}],"name":"NFTMinted","type":"event"},{"anonymous":false,"inputs":[{"indexed":true,"internalType":"address","name":"previousOwner","type":"address"},{"indexed":true,"internalType":"address","name":"newOwner","type":"address"}],"name":"OwnershipTransferred","type":"event"},{"anonymous":false,"inputs":[{"indexed":true,"internalType":"address","name":"from","type":"address"},{"indexed":true,"internalType":"address","name":"to","type":"address"},{"indexed":true,"internalType":"uint256","name":"tokenId","type":"uint256"}],"name":"Transfer","type":"event"},{"inputs":[],"name":"_tokenIdCounter","outputs":[{"internalType":"uint256","name":"_value","type":"uint256"}],"stateMutability":"view","type":"function"},{"inputs":[{"internalType":"address","name":"to","type":"address"},{"internalType":"uint256","name":"tokenId","type":"uint256"}],"name":"approve","outputs":[],"stateMutability":"nonpayable","type":"function"},{"inputs":[{"internalType":"address","name":"owner","type":"address"}],"name":"balanceOf","outputs":[{"internalType":"uint256","name":"","type":"uint256"}],"stateMutability":"view","type":"function"},{"inputs":[{"internalType":"uint256","name":"tokenId","type":"uint256"}],"name":"burnNFT","outputs":[],"stateMutability":"nonpayable","type":"function"},{"inputs":[],"name":"cDaiToken","outputs":[{"internalType":"contract CErc20Interface","name":"","type":"address"}],"stateMutability":"view","type":"function"},{"inputs":[],"name":"cDaiTokenAddress","outputs":[{"internalType":"address","name":"","type":"address"}],"stateMutability":"view","type":"function"},{"inputs":[],"name":"cT","outputs":[{"internalType":"contract CTokenInterface","name":"","type":"address"}],"stateMutability":"view","type":"function"},{"inputs":[],"name":"comptroller","outputs":[{"internalType":"contract ComptrollerInterface","name":"","type":"address"}],"stateMutability":"view","type":"function"},{"inputs":[],"name":"daiToken","outputs":[{"internalType":"contract IERC20","name":"","type":"address"}],"stateMutability":"view","type":"function"},{"inputs":[{"internalType":"uint256","name":"tokenId","type":"uint256"}],"name":"getApproved","outputs":[{"internalType":"address","name":"","type":"address"}],"stateMutability":"view","type":"function"},{"inputs":[],"name":"getCurrentTokenId","outputs":[{"internalType":"uint256","name":"","type":"uint256"}],"stateMutability":"view","type":"function"},{"inputs":[],"name":"interestAccrued","outputs":[{"internalType":"uint256","name":"","type":"uint256"}],"stateMutability":"view","type":"function"},{"inputs":[{"internalType":"address","name":"owner","type":"address"},{"internalType":"address","name":"operator","type":"address"}],"name":"isApprovedForAll","outputs":[{"internalType":"bool","name":"","type":"bool"}],"stateMutability":"view","type":"function"},{"inputs":[],"name":"mintNFT","outputs":[],"stateMutability":"nonpayable","type":"function"},{"inputs":[],"name":"mintingPrice","outputs":[{"internalType":"uint256","name":"","type":"uint256"}],"stateMutability":"view","type":"function"},{"inputs":[],"name":"name","outputs":[{"internalType":"string","name":"","type":"string"}],"stateMutability":"view","type":"function"},{"inputs":[],"name":"owner","outputs":[{"internalType":"address","name":"","type":"address"}],"stateMutability":"view","type":"function"},{"inputs":[{"internalType":"uint256","name":"tokenId","type":"uint256"}],"name":"ownerOf","outputs":[{"internalType":"address","name":"","type":"address"}],"stateMutability":"view","type":"function"},{"inputs":[],"name":"renounceOwnership","outputs":[],"stateMutability":"nonpayable","type":"function"},{"inputs":[{"internalType":"address","name":"from","type":"address"},{"internalType":"address","name":"to","type":"address"},{"internalType":"uint256","name":"tokenId","type":"uint256"}],"name":"safeTransferFrom","outputs":[],"stateMutability":"nonpayable","type":"function"},{"inputs":[{"internalType":"address","name":"from","type":"address"},{"internalType":"address","name":"to","type":"address"},{"internalType":"uint256","name":"tokenId","type":"uint256"},{"internalType":"bytes","name":"data","type":"bytes"}],"name":"safeTransferFrom","outputs":[],"stateMutability":"nonpayable","type":"function"},{"inputs":[{"internalType":"address","name":"operator","type":"address"},{"internalType":"bool","name":"approved","type":"bool"}],"name":"setApprovalForAll","outputs":[],"stateMutability":"nonpayable","type":"function"},{"inputs":[{"internalType":"bytes4","name":"interfaceId","type":"bytes4"}],"name":"supportsInterface","outputs":[{"internalType":"bool","name":"","type":"bool"}],"stateMutability":"view","type":"function"},{"inputs":[],"name":"symbol","outputs":[{"internalType":"string","name":"","type":"string"}],"stateMutability":"view","type":"function"},{"inputs":[{"internalType":"uint256","name":"tokenId","type":"uint256"}],"name":"tokenURI","outputs":[{"internalType":"string","name":"","type":"string"}],"stateMutability":"view","type":"function"},{"inputs":[{"internalType":"address","name":"from","type":"address"},{"internalType":"address","name":"to","type":"address"},{"internalType":"uint256","name":"tokenId","type":"uint256"}],"name":"transferFrom","outputs":[],"stateMutability":"nonpayable","type":"function"},{"inputs":[{"internalType":"address","name":"newOwner","type":"address"}],"name":"transferOwnership","outputs":[],"stateMutability":"nonpayable","type":"function"},{"inputs":[{"internalType":"uint256","name":"","type":"uint256"}],"name":"userDetails","outputs":[{"internalType":"uint256","name":"investmentTime","type":"uint256"},{"internalType":"uint256","name":"DepositDaiToken","type":"uint256"},{"internalType":"uint256","name":"recivedCToken","type":"uint256"},{"internalType":"address","name":"user","type":"address"}],"stateMutability":"view","type":"function"},{"inputs":[],"name":"withdrawInterestInDai","outputs":[],"stateMutability":"nonpayable","type":"function"},{"inputs":[],"name":"withdrawInterestIncTOKEN","outputs":[],"stateMutability":"nonpayable","type":"function"}],"evm":{"bytecode":{"linkReferences":{},"object":"6080604052670de0b6b3a7640000600d553480156200001d57600080fd5b506040516200465038038062004650833981810160405281019062000043919062000339565b6040518060400160405280600b81526020017f436f6d706f756e644e46540000000000000000000000000000000000000000008152506040518060400160405280600381526020017f4e465400000000000000000000000000000000000000000000000000000000008152508160009081620000c09190620005fa565b508060019081620000d29190620005fa565b505050620000f5620000e96200020160201b60201c565b6200020960201b60201c565b81600860006101000a81548173ffffffffffffffffffffffffffffffffffffffff021916908373ffffffffffffffffffffffffffffffffffffffff16021790555080600960006101000a81548173ffffffffffffffffffffffffffffffffffffffff021916908373ffffffffffffffffffffffffffffffffffffffff16021790555080600a60006101000a81548173ffffffffffffffffffffffffffffffffffffffff021916908373ffffffffffffffffffffffffffffffffffffffff16021790555080600b60006101000a81548173ffffffffffffffffffffffffffffffffffffffff021916908373ffffffffffffffffffffffffffffffffffffffff1602179055505050620006e1565b600033905090565b6000600660009054906101000a900473ffffffffffffffffffffffffffffffffffffffff16905081600660006101000a81548173ffffffffffffffffffffffffffffffffffffffff021916908373ffffffffffffffffffffffffffffffffffffffff1602179055508173ffffffffffffffffffffffffffffffffffffffff168173ffffffffffffffffffffffffffffffffffffffff167f8be0079c531659141344cd1fd0a4f28419497f9722a3daafe3b4186f6b6457e060405160405180910390a35050565b600080fd5b600073ffffffffffffffffffffffffffffffffffffffff82169050919050565b60006200030182620002d4565b9050919050565b6200031381620002f4565b81146200031f57600080fd5b50565b600081519050620003338162000308565b92915050565b60008060408385031215620003535762000352620002cf565b5b6000620003638582860162000322565b9250506020620003768582860162000322565b9150509250929050565b600081519050919050565b7f4e487b7100000000000000000000000000000000000000000000000000000000600052604160045260246000fd5b7f4e487b7100000000000000000000000000000000000000000000000000000000600052602260045260246000fd5b600060028204905060018216806200040257607f821691505b602082108103620004185762000417620003ba565b5b50919050565b60008190508160005260206000209050919050565b60006020601f8301049050919050565b600082821b905092915050565b600060088302620004827fffffffffffffffffffffffffffffffffffffffffffffffffffffffffffffffff8262000443565b6200048e868362000443565b95508019841693508086168417925050509392505050565b6000819050919050565b6000819050919050565b6000620004db620004d5620004cf84620004a6565b620004b0565b620004a6565b9050919050565b6000819050919050565b620004f783620004ba565b6200050f6200050682620004e2565b84845462000450565b825550505050565b600090565b6200052662000517565b62000533818484620004ec565b505050565b5b818110156200055b576200054f6000826200051c565b60018101905062000539565b5050565b601f821115620005aa5762000574816200041e565b6200057f8462000433565b810160208510156200058f578190505b620005a76200059e8562000433565b83018262000538565b50505b505050565b600082821c905092915050565b6000620005cf60001984600802620005af565b1980831691505092915050565b6000620005ea8383620005bc565b9150826002028217905092915050565b620006058262000380565b67ffffffffffffffff8111156200062157620006206200038b565b5b6200062d8254620003e9565b6200063a8282856200055f565b600060209050601f8311600181146200067257600084156200065d578287015190505b620006698582620005dc565b865550620006d9565b601f19841662000682866200041e565b60005b82811015620006ac5784890151825560018201915060208501945060208101905062000685565b86831015620006cc5784890151620006c8601f891682620005bc565b8355505b6001600288020188555050505b505050505050565b613f5f80620006f16000396000f3fe608060405234801561001057600080fd5b50600436106101da5760003560e01c80636352211e11610104578063a22cb465116100a2578063be22f54611610071578063be22f546146104ec578063c87b56dd1461050a578063e985e9c51461053a578063f2fde38b1461056a576101da565b8063a22cb46514610463578063a9cad37b1461047f578063b88d4fde146104b2578063ba266b13146104ce576101da565b806384c4bd4b116100de57806384c4bd4b146103eb5780638da5cb5b1461040957806395d89b4114610427578063a03a60f114610445576101da565b80636352211e1461038157806370a08231146103b1578063715018a6146103e1576101da565b806323b872dd1161017c57806343c7995d1161014b57806343c7995d1461031d578063561892361461033b5780635d1793ff146103595780635fe3b56714610363576101da565b806323b872dd146102ab5780632890e0d7146102c757806335db70b5146102e357806342842e0e14610301576101da565b8063095ea7b3116101b8578063095ea7b31461025d57806314f710fe146102795780631976959e1461028357806320dcc3421461028d576101da565b806301ffc9a7146101df57806306fdde031461020f578063081812fc1461022d575b600080fd5b6101f960048036038101906101f49190612c04565b610586565b6040516102069190612c4c565b60405180910390f35b610217610668565b6040516102249190612cf7565b60405180910390f35b61024760048036038101906102429190612d4f565b6106fa565b6040516102549190612dbd565b60405180910390f35b61027760048036038101906102729190612e04565b610740565b005b610281610857565b005b61028b610d0f565b005b610295611003565b6040516102a29190612e53565b60405180910390f35b6102c560048036038101906102c09190612e6e565b611009565b005b6102e160048036038101906102dc9190612d4f565b611069565b005b6102eb61150b565b6040516102f89190612e53565b60405180910390f35b61031b60048036038101906103169190612e6e565b611511565b005b610325611531565b6040516103329190612f20565b60405180910390f35b610343611557565b6040516103509190612e53565b60405180910390f35b610361611568565b005b61036b611669565b6040516103789190612f5c565b60405180910390f35b61039b60048036038101906103969190612d4f565b61168f565b6040516103a89190612dbd565b60405180910390f35b6103cb60048036038101906103c69190612f77565b611715565b6040516103d89190612e53565b60405180910390f35b6103e96117cc565b005b6103f36117e0565b6040516104009190612e53565b60405180910390f35b6104116117ec565b60405161041e9190612dbd565b60405180910390f35b61042f611816565b60405161043c9190612cf7565b60405180910390f35b61044d6118a8565b60405161045a9190612dbd565b60405180910390f35b61047d60048036038101906104789190612fd0565b6118ce565b005b61049960048036038101906104949190612d4f565b6118e4565b6040516104a99493929190613010565b60405180910390f35b6104cc60048036038101906104c7919061318a565b611934565b005b6104d6611996565b6040516104e3919061322e565b60405180910390f35b6104f46119bc565b604051610501919061326a565b60405180910390f35b610524600480360381019061051f9190612d4f565b6119e2565b6040516105319190612cf7565b60405180910390f35b610554600480360381019061054f9190613285565b611a4a565b6040516105619190612c4c565b60405180910390f35b610584600480360381019061057f9190612f77565b611ade565b005b60007f80ac58cd000000000000000000000000000000000000000000000000000000007bffffffffffffffffffffffffffffffffffffffffffffffffffffffff1916827bffffffffffffffffffffffffffffffffffffffffffffffffffffffff1916148061065157507f5b5e139f000000000000000000000000000000000000000000000000000000007bffffffffffffffffffffffffffffffffffffffffffffffffffffffff1916827bffffffffffffffffffffffffffffffffffffffffffffffffffffffff1916145b80610661575061066082611b61565b5b9050919050565b606060008054610677906132f4565b80601f01602080910402602001604051908101604052809291908181526020018280546106a3906132f4565b80156106f05780601f106106c5576101008083540402835291602001916106f0565b820191906000526020600020905b8154815290600101906020018083116106d357829003601f168201915b5050505050905090565b600061070582611bcb565b6004600083815260200190815260200160002060009054906101000a900473ffffffffffffffffffffffffffffffffffffffff169050919050565b600061074b8261168f565b90508073ffffffffffffffffffffffffffffffffffffffff168373ffffffffffffffffffffffffffffffffffffffff16036107bb576040517f08c379a00000000000000000000000000000000000000000000000000000000081526004016107b290613397565b60405180910390fd5b8073ffffffffffffffffffffffffffffffffffffffff166107da611c16565b73ffffffffffffffffffffffffffffffffffffffff161480610809575061080881610803611c16565b611a4a565b5b610848576040517f08c379a000000000000000000000000000000000000000000000000000000000815260040161083f90613429565b60405180910390fd5b6108528383611c1e565b505050565b600860009054906101000a900473ffffffffffffffffffffffffffffffffffffffff1673ffffffffffffffffffffffffffffffffffffffff166323b872dd3330600d546040518463ffffffff1660e01b81526004016108b893929190613449565b6020604051808303816000875af11580156108d7573d6000803e3d6000fd5b505050506040513d601f19601f820116820180604052508101906108fb9190613495565b5060006109086007611cd7565b90506109143382611ce5565b600860009054906101000a900473ffffffffffffffffffffffffffffffffffffffff1673ffffffffffffffffffffffffffffffffffffffff1663095ea7b3600b60009054906101000a900473ffffffffffffffffffffffffffffffffffffffff16600d546040518363ffffffff1660e01b81526004016109959291906134c2565b6020604051808303816000875af11580156109b4573d6000803e3d6000fd5b505050506040513d601f19601f820116820180604052508101906109d89190613495565b506000600a60009054906101000a900473ffffffffffffffffffffffffffffffffffffffff1673ffffffffffffffffffffffffffffffffffffffff166370a08231306040518263ffffffff1660e01b8152600401610a369190612dbd565b602060405180830381865afa158015610a53573d6000803e3d6000fd5b505050506040513d601f19601f82011682018060405250810190610a779190613500565b90506000600960009054906101000a900473ffffffffffffffffffffffffffffffffffffffff1673ffffffffffffffffffffffffffffffffffffffff1663a0712d68600d546040518263ffffffff1660e01b8152600401610ad89190612e53565b6020604051808303816000875af1158015610af7573d6000803e3d6000fd5b505050506040513d601f19601f82011682018060405250810190610b1b9190613500565b905060008114610b60576040517f08c379a0000000000000000000000000000000000000000000000000000000008152600401610b5790613579565b60405180910390fd5b6000600a60009054906101000a900473ffffffffffffffffffffffffffffffffffffffff1673ffffffffffffffffffffffffffffffffffffffff166370a08231306040518263ffffffff1660e01b8152600401610bbd9190612dbd565b602060405180830381865afa158015610bda573d6000803e3d6000fd5b505050506040513d601f19601f82011682018060405250810190610bfe9190613500565b90506040518060800160405280428152602001600d548152602001610c2c8584611f0290919063ffffffff16565b81526020013373ffffffffffffffffffffffffffffffffffffffff16815250600f600086815260200190815260200160002060008201518160000155602082015181600101556040820151816002015560608201518160030160006101000a81548173ffffffffffffffffffffffffffffffffffffffff021916908373ffffffffffffffffffffffffffffffffffffffff1602179055509050507f0176f203df400d7bd5f1b1c9ef36c16709bf3b5d9fd35f000a6bae32393f66c38433604051610cf7929190613599565b60405180910390a1610d096007611f18565b50505050565b610d17611f2e565b6000600e5411610d5c576040517f08c379a0000000000000000000000000000000000000000000000000000000008152600401610d5390613634565b60405180910390fd5b6000600860009054906101000a900473ffffffffffffffffffffffffffffffffffffffff1673ffffffffffffffffffffffffffffffffffffffff166370a08231306040518263ffffffff1660e01b8152600401610db99190612dbd565b602060405180830381865afa158015610dd6573d6000803e3d6000fd5b505050506040513d601f19601f82011682018060405250810190610dfa9190613500565b9050600960009054906101000a900473ffffffffffffffffffffffffffffffffffffffff1673ffffffffffffffffffffffffffffffffffffffff1663db006a75600e546040518263ffffffff1660e01b8152600401610e599190612e53565b6020604051808303816000875af1158015610e78573d6000803e3d6000fd5b505050506040513d601f19601f82011682018060405250810190610e9c9190613500565b506000600860009054906101000a900473ffffffffffffffffffffffffffffffffffffffff1673ffffffffffffffffffffffffffffffffffffffff166370a08231306040518263ffffffff1660e01b8152600401610efa9190612dbd565b602060405180830381865afa158015610f17573d6000803e3d6000fd5b505050506040513d601f19601f82011682018060405250810190610f3b9190613500565b9050600860009054906101000a900473ffffffffffffffffffffffffffffffffffffffff1673ffffffffffffffffffffffffffffffffffffffff1663a9059cbb610f836117ec565b610f968585611f0290919063ffffffff16565b6040518363ffffffff1660e01b8152600401610fb39291906134c2565b6020604051808303816000875af1158015610fd2573d6000803e3d6000fd5b505050506040513d601f19601f82011682018060405250810190610ff69190613495565b506000600e819055505050565b600e5481565b61101a611014611c16565b82611fac565b611059576040517f08c379a0000000000000000000000000000000000000000000000000000000008152600401611050906136c6565b60405180910390fd5b611064838383612041565b505050565b3373ffffffffffffffffffffffffffffffffffffffff166110898261168f565b73ffffffffffffffffffffffffffffffffffffffff16146110df576040517f08c379a00000000000000000000000000000000000000000000000000000000081526004016110d690613732565b60405180910390fd5b6110e93382611fac565b611128576040517f08c379a000000000000000000000000000000000000000000000000000000000815260040161111f9061379e565b60405180910390fd5b6000600a60009054906101000a900473ffffffffffffffffffffffffffffffffffffffff1673ffffffffffffffffffffffffffffffffffffffff166370a08231306040518263ffffffff1660e01b81526004016111859190612dbd565b602060405180830381865afa1580156111a2573d6000803e3d6000fd5b505050506040513d601f19601f820116820180604052508101906111c69190613500565b90506000600960009054906101000a900473ffffffffffffffffffffffffffffffffffffffff1673ffffffffffffffffffffffffffffffffffffffff1663852a12e3600d546040518263ffffffff1660e01b81526004016112279190612e53565b6020604051808303816000875af1158015611246573d6000803e3d6000fd5b505050506040513d601f19601f8201168201806040525081019061126a9190613500565b9050600081146112af576040517f08c379a00000000000000000000000000000000000000000000000000000000081526004016112a69061380a565b60405180910390fd5b6000600a60009054906101000a900473ffffffffffffffffffffffffffffffffffffffff1673ffffffffffffffffffffffffffffffffffffffff166370a08231306040518263ffffffff1660e01b815260040161130c9190612dbd565b602060405180830381865afa158015611329573d6000803e3d6000fd5b505050506040513d601f19601f8201168201806040525081019061134d9190613500565b905060006113648285611f0290919063ffffffff16565b9050611391600d54600f600088815260200190815260200160002060010154611f0290919063ffffffff16565b600f6000878152602001908152602001600020600101819055506113d481600f600088815260200190815260200160002060020154611f0290919063ffffffff16565b600f600087815260200190815260200160002060020181905550611419600f600087815260200190815260200160002060020154600e5461233a90919063ffffffff16565b600e81905550600860009054906101000a900473ffffffffffffffffffffffffffffffffffffffff1673ffffffffffffffffffffffffffffffffffffffff1663a9059cbb33600d546040518363ffffffff1660e01b815260040161147e9291906134c2565b6020604051808303816000875af115801561149d573d6000803e3d6000fd5b505050506040513d601f19601f820116820180604052508101906114c19190613495565b506114cb85612350565b7f8f0a80450bfbfadc6d05658c9dc494e43beb79be53b44adbb146c6d5040f877085336040516114fc929190613599565b60405180910390a15050505050565b600d5481565b61152c83838360405180602001604052806000815250611934565b505050565b600a60009054906101000a900473ffffffffffffffffffffffffffffffffffffffff1681565b60006115636007611cd7565b905090565b611570611f2e565b6000600e54116115b5576040517f08c379a00000000000000000000000000000000000000000000000000000000081526004016115ac90613634565b60405180910390fd5b600a60009054906101000a900473ffffffffffffffffffffffffffffffffffffffff1673ffffffffffffffffffffffffffffffffffffffff1663a9059cbb6115fb6117ec565b600e546040518363ffffffff1660e01b815260040161161b9291906134c2565b6020604051808303816000875af115801561163a573d6000803e3d6000fd5b505050506040513d601f19601f8201168201806040525081019061165e9190613495565b506000600e81905550565b600c60009054906101000a900473ffffffffffffffffffffffffffffffffffffffff1681565b60008061169b8361249e565b9050600073ffffffffffffffffffffffffffffffffffffffff168173ffffffffffffffffffffffffffffffffffffffff160361170c576040517f08c379a000000000000000000000000000000000000000000000000000000000815260040161170390613876565b60405180910390fd5b80915050919050565b60008073ffffffffffffffffffffffffffffffffffffffff168273ffffffffffffffffffffffffffffffffffffffff1603611785576040517f08c379a000000000000000000000000000000000000000000000000000000000815260040161177c90613908565b60405180910390fd5b600360008373ffffffffffffffffffffffffffffffffffffffff1673ffffffffffffffffffffffffffffffffffffffff168152602001908152602001600020549050919050565b6117d4611f2e565b6117de60006124db565b565b60078060000154905081565b6000600660009054906101000a900473ffffffffffffffffffffffffffffffffffffffff16905090565b606060018054611825906132f4565b80601f0160208091040260200160405190810160405280929190818152602001828054611851906132f4565b801561189e5780601f106118735761010080835404028352916020019161189e565b820191906000526020600020905b81548152906001019060200180831161188157829003601f168201915b5050505050905090565b600b60009054906101000a900473ffffffffffffffffffffffffffffffffffffffff1681565b6118e06118d9611c16565b83836125a1565b5050565b600f6020528060005260406000206000915090508060000154908060010154908060020154908060030160009054906101000a900473ffffffffffffffffffffffffffffffffffffffff16905084565b61194561193f611c16565b83611fac565b611984576040517f08c379a000000000000000000000000000000000000000000000000000000000815260040161197b906136c6565b60405180910390fd5b6119908484848461270d565b50505050565b600960009054906101000a900473ffffffffffffffffffffffffffffffffffffffff1681565b600860009054906101000a900473ffffffffffffffffffffffffffffffffffffffff1681565b60606119ed82611bcb565b60006119f7612769565b90506000815111611a175760405180602001604052806000815250611a42565b80611a2184612780565b604051602001611a32929190613964565b6040516020818303038152906040525b915050919050565b6000600560008473ffffffffffffffffffffffffffffffffffffffff1673ffffffffffffffffffffffffffffffffffffffff16815260200190815260200160002060008373ffffffffffffffffffffffffffffffffffffffff1673ffffffffffffffffffffffffffffffffffffffff16815260200190815260200160002060009054906101000a900460ff16905092915050565b611ae6611f2e565b600073ffffffffffffffffffffffffffffffffffffffff168173ffffffffffffffffffffffffffffffffffffffff1603611b55576040517f08c379a0000000000000000000000000000000000000000000000000000000008152600401611b4c906139fa565b60405180910390fd5b611b5e816124db565b50565b60007f01ffc9a7000000000000000000000000000000000000000000000000000000007bffffffffffffffffffffffffffffffffffffffffffffffffffffffff1916827bffffffffffffffffffffffffffffffffffffffffffffffffffffffff1916149050919050565b611bd48161284e565b611c13576040517f08c379a0000000000000000000000000000000000000000000000000000000008152600401611c0a90613876565b60405180910390fd5b50565b600033905090565b816004600083815260200190815260200160002060006101000a81548173ffffffffffffffffffffffffffffffffffffffff021916908373ffffffffffffffffffffffffffffffffffffffff160217905550808273ffffffffffffffffffffffffffffffffffffffff16611c918361168f565b73ffffffffffffffffffffffffffffffffffffffff167f8c5be1e5ebec7d5bd14f71427d1e84f3dd0314c0f7b2291e5b200ac8c7c3b92560405160405180910390a45050565b600081600001549050919050565b600073ffffffffffffffffffffffffffffffffffffffff168273ffffffffffffffffffffffffffffffffffffffff1603611d54576040517f08c379a0000000000000000000000000000000000000000000000000000000008152600401611d4b90613a66565b60405180910390fd5b611d5d8161284e565b15611d9d576040517f08c379a0000000000000000000000000000000000000000000000000000000008152600401611d9490613ad2565b60405180910390fd5b611dab60008383600161288f565b611db48161284e565b15611df4576040517f08c379a0000000000000000000000000000000000000000000000000000000008152600401611deb90613ad2565b60405180910390fd5b6001600360008473ffffffffffffffffffffffffffffffffffffffff1673ffffffffffffffffffffffffffffffffffffffff16815260200190815260200160002060008282540192505081905550816002600083815260200190815260200160002060006101000a81548173ffffffffffffffffffffffffffffffffffffffff021916908373ffffffffffffffffffffffffffffffffffffffff160217905550808273ffffffffffffffffffffffffffffffffffffffff16600073ffffffffffffffffffffffffffffffffffffffff167fddf252ad1be2c89b69c2b068fc378daa952ba7f163c4a11628f55a4df523b3ef60405160405180910390a4611efe600083836001612895565b5050565b60008183611f109190613b21565b905092915050565b6001816000016000828254019250508190555050565b611f36611c16565b73ffffffffffffffffffffffffffffffffffffffff16611f546117ec565b73ffffffffffffffffffffffffffffffffffffffff1614611faa576040517f08c379a0000000000000000000000000000000000000000000000000000000008152600401611fa190613ba1565b60405180910390fd5b565b600080611fb88361168f565b90508073ffffffffffffffffffffffffffffffffffffffff168473ffffffffffffffffffffffffffffffffffffffff161480611ffa5750611ff98185611a4a565b5b8061203857508373ffffffffffffffffffffffffffffffffffffffff16612020846106fa565b73ffffffffffffffffffffffffffffffffffffffff16145b91505092915050565b8273ffffffffffffffffffffffffffffffffffffffff166120618261168f565b73ffffffffffffffffffffffffffffffffffffffff16146120b7576040517f08c379a00000000000000000000000000000000000000000000000000000000081526004016120ae90613c33565b60405180910390fd5b600073ffffffffffffffffffffffffffffffffffffffff168273ffffffffffffffffffffffffffffffffffffffff1603612126576040517f08c379a000000000000000000000000000000000000000000000000000000000815260040161211d90613cc5565b60405180910390fd5b612133838383600161288f565b8273ffffffffffffffffffffffffffffffffffffffff166121538261168f565b73ffffffffffffffffffffffffffffffffffffffff16146121a9576040517f08c379a00000000000000000000000000000000000000000000000000000000081526004016121a090613c33565b60405180910390fd5b6004600082815260200190815260200160002060006101000a81549073ffffffffffffffffffffffffffffffffffffffff02191690556001600360008573ffffffffffffffffffffffffffffffffffffffff1673ffffffffffffffffffffffffffffffffffffffff168152602001908152602001600020600082825403925050819055506001600360008473ffffffffffffffffffffffffffffffffffffffff1673ffffffffffffffffffffffffffffffffffffffff16815260200190815260200160002060008282540192505081905550816002600083815260200190815260200160002060006101000a81548173ffffffffffffffffffffffffffffffffffffffff021916908373ffffffffffffffffffffffffffffffffffffffff160217905550808273ffffffffffffffffffffffffffffffffffffffff168473ffffffffffffffffffffffffffffffffffffffff167fddf252ad1be2c89b69c2b068fc378daa952ba7f163c4a11628f55a4df523b3ef60405160405180910390a46123358383836001612895565b505050565b600081836123489190613ce5565b905092915050565b600061235b8261168f565b905061236b81600084600161288f565b6123748261168f565b90506004600083815260200190815260200160002060006101000a81549073ffffffffffffffffffffffffffffffffffffffff02191690556001600360008373ffffffffffffffffffffffffffffffffffffffff1673ffffffffffffffffffffffffffffffffffffffff168152602001908152602001600020600082825403925050819055506002600083815260200190815260200160002060006101000a81549073ffffffffffffffffffffffffffffffffffffffff021916905581600073ffffffffffffffffffffffffffffffffffffffff168273ffffffffffffffffffffffffffffffffffffffff167fddf252ad1be2c89b69c2b068fc378daa952ba7f163c4a11628f55a4df523b3ef60405160405180910390a461249a816000846001612895565b5050565b60006002600083815260200190815260200160002060009054906101000a900473ffffffffffffffffffffffffffffffffffffffff169050919050565b6000600660009054906101000a900473ffffffffffffffffffffffffffffffffffffffff16905081600660006101000a81548173ffffffffffffffffffffffffffffffffffffffff021916908373ffffffffffffffffffffffffffffffffffffffff1602179055508173ffffffffffffffffffffffffffffffffffffffff168173ffffffffffffffffffffffffffffffffffffffff167f8be0079c531659141344cd1fd0a4f28419497f9722a3daafe3b4186f6b6457e060405160405180910390a35050565b8173ffffffffffffffffffffffffffffffffffffffff168373ffffffffffffffffffffffffffffffffffffffff160361260f576040517f08c379a000000000000000000000000000000000000000000000000000000000815260040161260690613d65565b60405180910390fd5b80600560008573ffffffffffffffffffffffffffffffffffffffff1673ffffffffffffffffffffffffffffffffffffffff16815260200190815260200160002060008473ffffffffffffffffffffffffffffffffffffffff1673ffffffffffffffffffffffffffffffffffffffff16815260200190815260200160002060006101000a81548160ff0219169083151502179055508173ffffffffffffffffffffffffffffffffffffffff168373ffffffffffffffffffffffffffffffffffffffff167f17307eab39ab6107e8899845ad3d59bd9653f200f220920489ca2b5937696c31836040516127009190612c4c565b60405180910390a3505050565b612718848484612041565b6127248484848461289b565b612763576040517f08c379a000000000000000000000000000000000000000000000000000000000815260040161275a90613df7565b60405180910390fd5b50505050565b606060405180602001604052806000815250905090565b60606000600161278f84612a22565b01905060008167ffffffffffffffff8111156127ae576127ad61305f565b5b6040519080825280601f01601f1916602001820160405280156127e05781602001600182028036833780820191505090505b509050600082602001820190505b600115612843578080600190039150507f3031323334353637383961626364656600000000000000000000000000000000600a86061a8153600a858161283757612836613e17565b5b049450600085036127ee575b819350505050919050565b60008073ffffffffffffffffffffffffffffffffffffffff166128708361249e565b73ffffffffffffffffffffffffffffffffffffffff1614159050919050565b50505050565b50505050565b60006128bc8473ffffffffffffffffffffffffffffffffffffffff16612b75565b15612a15578373ffffffffffffffffffffffffffffffffffffffff1663150b7a026128e5611c16565b8786866040518563ffffffff1660e01b81526004016129079493929190613e9b565b6020604051808303816000875af192505050801561294357506040513d601f19601f820116820180604052508101906129409190613efc565b60015b6129c5573d8060008114612973576040519150601f19603f3d011682016040523d82523d6000602084013e612978565b606091505b5060008151036129bd576040517f08c379a00000000000000000000000000000000000000000000000000000000081526004016129b490613df7565b60405180910390fd5b805181602001fd5b63150b7a0260e01b7bffffffffffffffffffffffffffffffffffffffffffffffffffffffff1916817bffffffffffffffffffffffffffffffffffffffffffffffffffffffff191614915050612a1a565b600190505b949350505050565b600080600090507a184f03e93ff9f4daa797ed6e38ed64bf6a1f0100000000000000008310612a80577a184f03e93ff9f4daa797ed6e38ed64bf6a1f0100000000000000008381612a7657612a75613e17565b5b0492506040810190505b6d04ee2d6d415b85acef81000000008310612abd576d04ee2d6d415b85acef81000000008381612ab357612ab2613e17565b5b0492506020810190505b662386f26fc100008310612aec57662386f26fc100008381612ae257612ae1613e17565b5b0492506010810190505b6305f5e1008310612b15576305f5e1008381612b0b57612b0a613e17565b5b0492506008810190505b6127108310612b3a576127108381612b3057612b2f613e17565b5b0492506004810190505b60648310612b5d5760648381612b5357612b52613e17565b5b0492506002810190505b600a8310612b6c576001810190505b80915050919050565b6000808273ffffffffffffffffffffffffffffffffffffffff163b119050919050565b6000604051905090565b600080fd5b600080fd5b60007fffffffff0000000000000000000000000000000000000000000000000000000082169050919050565b612be181612bac565b8114612bec57600080fd5b50565b600081359050612bfe81612bd8565b92915050565b600060208284031215612c1a57612c19612ba2565b5b6000612c2884828501612bef565b91505092915050565b60008115159050919050565b612c4681612c31565b82525050565b6000602082019050612c616000830184612c3d565b92915050565b600081519050919050565b600082825260208201905092915050565b60005b83811015612ca1578082015181840152602081019050612c86565b60008484015250505050565b6000601f19601f8301169050919050565b6000612cc982612c67565b612cd38185612c72565b9350612ce3818560208601612c83565b612cec81612cad565b840191505092915050565b60006020820190508181036000830152612d118184612cbe565b905092915050565b6000819050919050565b612d2c81612d19565b8114612d3757600080fd5b50565b600081359050612d4981612d23565b92915050565b600060208284031215612d6557612d64612ba2565b5b6000612d7384828501612d3a565b91505092915050565b600073ffffffffffffffffffffffffffffffffffffffff82169050919050565b6000612da782612d7c565b9050919050565b612db781612d9c565b82525050565b6000602082019050612dd26000830184612dae565b92915050565b612de181612d9c565b8114612dec57600080fd5b50565b600081359050612dfe81612dd8565b92915050565b60008060408385031215612e1b57612e1a612ba2565b5b6000612e2985828601612def565b9250506020612e3a85828601612d3a565b9150509250929050565b612e4d81612d19565b82525050565b6000602082019050612e686000830184612e44565b92915050565b600080600060608486031215612e8757612e86612ba2565b5b6000612e9586828701612def565b9350506020612ea686828701612def565b9250506040612eb786828701612d3a565b9150509250925092565b6000819050919050565b6000612ee6612ee1612edc84612d7c565b612ec1565b612d7c565b9050919050565b6000612ef882612ecb565b9050919050565b6000612f0a82612eed565b9050919050565b612f1a81612eff565b82525050565b6000602082019050612f356000830184612f11565b92915050565b6000612f4682612eed565b9050919050565b612f5681612f3b565b82525050565b6000602082019050612f716000830184612f4d565b92915050565b600060208284031215612f8d57612f8c612ba2565b5b6000612f9b84828501612def565b91505092915050565b612fad81612c31565b8114612fb857600080fd5b50565b600081359050612fca81612fa4565b92915050565b60008060408385031215612fe757612fe6612ba2565b5b6000612ff585828601612def565b925050602061300685828601612fbb565b9150509250929050565b60006080820190506130256000830187612e44565b6130326020830186612e44565b61303f6040830185612e44565b61304c6060830184612dae565b95945050505050565b600080fd5b600080fd5b7f4e487b7100000000000000000000000000000000000000000000000000000000600052604160045260246000fd5b61309782612cad565b810181811067ffffffffffffffff821117156130b6576130b561305f565b5b80604052505050565b60006130c9612b98565b90506130d5828261308e565b919050565b600067ffffffffffffffff8211156130f5576130f461305f565b5b6130fe82612cad565b9050602081019050919050565b82818337600083830152505050565b600061312d613128846130da565b6130bf565b9050828152602081018484840111156131495761314861305a565b5b61315484828561310b565b509392505050565b600082601f83011261317157613170613055565b5b813561318184826020860161311a565b91505092915050565b600080600080608085870312156131a4576131a3612ba2565b5b60006131b287828801612def565b94505060206131c387828801612def565b93505060406131d487828801612d3a565b925050606085013567ffffffffffffffff8111156131f5576131f4612ba7565b5b6132018782880161315c565b91505092959194509250565b600061321882612eed565b9050919050565b6132288161320d565b82525050565b6000602082019050613243600083018461321f565b92915050565b600061325482612eed565b9050919050565b61326481613249565b82525050565b600060208201905061327f600083018461325b565b92915050565b6000806040838503121561329c5761329b612ba2565b5b60006132aa85828601612def565b92505060206132bb85828601612def565b9150509250929050565b7f4e487b7100000000000000000000000000000000000000000000000000000000600052602260045260246000fd5b6000600282049050600182168061330c57607f821691505b60208210810361331f5761331e6132c5565b5b50919050565b7f4552433732313a20617070726f76616c20746f2063757272656e74206f776e6560008201527f7200000000000000000000000000000000000000000000000000000000000000602082015250565b6000613381602183612c72565b915061338c82613325565b604082019050919050565b600060208201905081810360008301526133b081613374565b9050919050565b7f4552433732313a20617070726f76652063616c6c6572206973206e6f7420746f60008201527f6b656e206f776e6572206f7220617070726f76656420666f7220616c6c000000602082015250565b6000613413603d83612c72565b915061341e826133b7565b604082019050919050565b6000602082019050818103600083015261344281613406565b9050919050565b600060608201905061345e6000830186612dae565b61346b6020830185612dae565b6134786040830184612e44565b949350505050565b60008151905061348f81612fa4565b92915050565b6000602082840312156134ab576134aa612ba2565b5b60006134b984828501613480565b91505092915050565b60006040820190506134d76000830185612dae565b6134e46020830184612e44565b9392505050565b6000815190506134fa81612d23565b92915050565b60006020828403121561351657613515612ba2565b5b6000613524848285016134eb565b91505092915050565b7f436f6d706f756e64206465706f736974206661696c6564000000000000000000600082015250565b6000613563601783612c72565b915061356e8261352d565b602082019050919050565b6000602082019050818103600083015261359281613556565b9050919050565b60006040820190506135ae6000830185612e44565b6135bb6020830184612dae565b9392505050565b7f696e73756666696369656e7420696e746572657374206163637275656420626160008201527f6c616e6365000000000000000000000000000000000000000000000000000000602082015250565b600061361e602583612c72565b9150613629826135c2565b604082019050919050565b6000602082019050818103600083015261364d81613611565b9050919050565b7f4552433732313a2063616c6c6572206973206e6f7420746f6b656e206f776e6560008201527f72206f7220617070726f76656400000000000000000000000000000000000000602082015250565b60006136b0602d83612c72565b91506136bb82613654565b604082019050919050565b600060208201905081810360008301526136df816136a3565b9050919050565b7f4e6f7420746865206f776e657200000000000000000000000000000000000000600082015250565b600061371c600d83612c72565b9150613727826136e6565b602082019050919050565b6000602082019050818103600083015261374b8161370f565b9050919050565b7f4e6f7420617070726f7665640000000000000000000000000000000000000000600082015250565b6000613788600c83612c72565b915061379382613752565b602082019050919050565b600060208201905081810360008301526137b78161377b565b9050919050565b7f436f6d706f756e64207769746864726177616c206661696c6564000000000000600082015250565b60006137f4601a83612c72565b91506137ff826137be565b602082019050919050565b60006020820190508181036000830152613823816137e7565b9050919050565b7f4552433732313a20696e76616c696420746f6b656e2049440000000000000000600082015250565b6000613860601883612c72565b915061386b8261382a565b602082019050919050565b6000602082019050818103600083015261388f81613853565b9050919050565b7f4552433732313a2061646472657373207a65726f206973206e6f74206120766160008201527f6c6964206f776e65720000000000000000000000000000000000000000000000602082015250565b60006138f2602983612c72565b91506138fd82613896565b604082019050919050565b60006020820190508181036000830152613921816138e5565b9050919050565b600081905092915050565b600061393e82612c67565b6139488185613928565b9350613958818560208601612c83565b80840191505092915050565b60006139708285613933565b915061397c8284613933565b91508190509392505050565b7f4f776e61626c653a206e6577206f776e657220697320746865207a65726f206160008201527f6464726573730000000000000000000000000000000000000000000000000000602082015250565b60006139e4602683612c72565b91506139ef82613988565b604082019050919050565b60006020820190508181036000830152613a13816139d7565b9050919050565b7f4552433732313a206d696e7420746f20746865207a65726f2061646472657373600082015250565b6000613a50602083612c72565b9150613a5b82613a1a565b602082019050919050565b60006020820190508181036000830152613a7f81613a43565b9050919050565b7f4552433732313a20746f6b656e20616c7265616479206d696e74656400000000600082015250565b6000613abc601c83612c72565b9150613ac782613a86565b602082019050919050565b60006020820190508181036000830152613aeb81613aaf565b9050919050565b7f4e487b7100000000000000000000000000000000000000000000000000000000600052601160045260246000fd5b6000613b2c82612d19565b9150613b3783612d19565b9250828203905081811115613b4f57613b4e613af2565b5b92915050565b7f4f776e61626c653a2063616c6c6572206973206e6f7420746865206f776e6572600082015250565b6000613b8b602083612c72565b9150613b9682613b55565b602082019050919050565b60006020820190508181036000830152613bba81613b7e565b9050919050565b7f4552433732313a207472616e736665722066726f6d20696e636f72726563742060008201527f6f776e6572000000000000000000000000000000000000000000000000000000602082015250565b6000613c1d602583612c72565b9150613c2882613bc1565b604082019050919050565b60006020820190508181036000830152613c4c81613c10565b9050919050565b7f4552433732313a207472616e7366657220746f20746865207a65726f2061646460008201527f7265737300000000000000000000000000000000000000000000000000000000602082015250565b6000613caf602483612c72565b9150613cba82613c53565b604082019050919050565b60006020820190508181036000830152613cde81613ca2565b9050919050565b6000613cf082612d19565b9150613cfb83612d19565b9250828201905080821115613d1357613d12613af2565b5b92915050565b7f4552433732313a20617070726f766520746f2063616c6c657200000000000000600082015250565b6000613d4f601983612c72565b9150613d5a82613d19565b602082019050919050565b60006020820190508181036000830152613d7e81613d42565b9050919050565b7f4552433732313a207472616e7366657220746f206e6f6e20455243373231526560008201527f63656976657220696d706c656d656e7465720000000000000000000000000000602082015250565b6000613de1603283612c72565b9150613dec82613d85565b604082019050919050565b60006020820190508181036000830152613e1081613dd4565b9050919050565b7f4e487b7100000000000000000000000000000000000000000000000000000000600052601260045260246000fd5b600081519050919050565b600082825260208201905092915050565b6000613e6d82613e46565b613e778185613e51565b9350613e87818560208601612c83565b613e9081612cad565b840191505092915050565b6000608082019050613eb06000830187612dae565b613ebd6020830186612dae565b613eca6040830185612e44565b8181036060830152613edc8184613e62565b905095945050505050565b600081519050613ef681612bd8565b92915050565b600060208284031215613f1257613f11612ba2565b5b6000613f2084828501613ee7565b9150509291505056fea2646970667358221220eeb028cb11b97528461ccd8fbc5c21f07cde314d86ee24c0954895cfcd0c49e564736f6c63430008130033","opcodes":"PUSH1 0x80 PUSH1 0x40 MSTORE PUSH8 0xDE0B6B3A7640000 PUSH1 0xD SSTORE CALLVALUE DUP1 ISZERO PUSH3 0x1D JUMPI PUSH1 0x0 DUP1 REVERT JUMPDEST POP PUSH1 0x40 MLOAD PUSH3 0x4650 CODESIZE SUB DUP1 PUSH3 0x4650 DUP4 CODECOPY DUP2 DUP2 ADD PUSH1 0x40 MSTORE DUP2 ADD SWAP1 PUSH3 0x43 SWAP2 SWAP1 PUSH3 0x339 JUMP JUMPDEST PUSH1 0x40 MLOAD DUP1 PUSH1 0x40 ADD PUSH1 0x40 MSTORE DUP1 PUSH1 0xB DUP2 MSTORE PUSH1 0x20 ADD PUSH32 0x436F6D706F756E644E4654000000000000000000000000000000000000000000 DUP2 MSTORE POP PUSH1 0x40 MLOAD DUP1 PUSH1 0x40 ADD PUSH1 0x40 MSTORE DUP1 PUSH1 0x3 DUP2 MSTORE PUSH1 0x20 ADD PUSH32 0x4E46540000000000000000000000000000000000000000000000000000000000 DUP2 MSTORE POP DUP2 PUSH1 0x0 SWAP1 DUP2 PUSH3 0xC0 SWAP2 SWAP1 PUSH3 0x5FA JUMP JUMPDEST POP DUP1 PUSH1 0x1 SWAP1 DUP2 PUSH3 0xD2 SWAP2 SWAP1 PUSH3 0x5FA JUMP JUMPDEST POP POP POP PUSH3 0xF5 PUSH3 0xE9 PUSH3 0x201 PUSH1 0x20 SHL PUSH1 0x20 SHR JUMP JUMPDEST PUSH3 0x209 PUSH1 0x20 SHL PUSH1 0x20 SHR JUMP JUMPDEST DUP2 PUSH1 0x8 PUSH1 0x0 PUSH2 0x100 EXP DUP2 SLOAD DUP2 PUSH20 0xFFFFFFFFFFFFFFFFFFFFFFFFFFFFFFFFFFFFFFFF MUL NOT AND SWAP1 DUP4 PUSH20 0xFFFFFFFFFFFFFFFFFFFFFFFFFFFFFFFFFFFFFFFF AND MUL OR SWAP1 SSTORE POP DUP1 PUSH1 0x9 PUSH1 0x0 PUSH2 0x100 EXP DUP2 SLOAD DUP2 PUSH20 0xFFFFFFFFFFFFFFFFFFFFFFFFFFFFFFFFFFFFFFFF MUL NOT AND SWAP1 DUP4 PUSH20 0xFFFFFFFFFFFFFFFFFFFFFFFFFFFFFFFFFFFFFFFF AND MUL OR SWAP1 SSTORE POP DUP1 PUSH1 0xA PUSH1 0x0 PUSH2 0x100 EXP DUP2 SLOAD DUP2 PUSH20 0xFFFFFFFFFFFFFFFFFFFFFFFFFFFFFFFFFFFFFFFF MUL NOT AND SWAP1 DUP4 PUSH20 0xFFFFFFFFFFFFFFFFFFFFFFFFFFFFFFFFFFFFFFFF AND MUL OR SWAP1 SSTORE POP DUP1 PUSH1 0xB PUSH1 0x0 PUSH2 0x100 EXP DUP2 SLOAD DUP2 PUSH20 0xFFFFFFFFFFFFFFFFFFFFFFFFFFFFFFFFFFFFFFFF MUL NOT AND SWAP1 DUP4 PUSH20 0xFFFFFFFFFFFFFFFFFFFFFFFFFFFFFFFFFFFFFFFF AND MUL OR SWAP1 SSTORE POP POP POP PUSH3 0x6E1 JUMP JUMPDEST PUSH1 0x0 CALLER SWAP1 POP SWAP1 JUMP JUMPDEST PUSH1 0x0 PUSH1 0x6 PUSH1 0x0 SWAP1 SLOAD SWAP1 PUSH2 0x100 EXP SWAP1 DIV PUSH20 0xFFFFFFFFFFFFFFFFFFFFFFFFFFFFFFFFFFFFFFFF AND SWAP1 POP DUP2 PUSH1 0x6 PUSH1 0x0 PUSH2 0x100 EXP DUP2 SLOAD DUP2 PUSH20 0xFFFFFFFFFFFFFFFFFFFFFFFFFFFFFFFFFFFFFFFF MUL NOT AND SWAP1 DUP4 PUSH20 0xFFFFFFFFFFFFFFFFFFFFFFFFFFFFFFFFFFFFFFFF AND MUL OR SWAP1 SSTORE POP DUP2 PUSH20 0xFFFFFFFFFFFFFFFFFFFFFFFFFFFFFFFFFFFFFFFF AND DUP2 PUSH20 0xFFFFFFFFFFFFFFFFFFFFFFFFFFFFFFFFFFFFFFFF AND PUSH32 0x8BE0079C531659141344CD1FD0A4F28419497F9722A3DAAFE3B4186F6B6457E0 PUSH1 0x40 MLOAD PUSH1 0x40 MLOAD DUP1 SWAP2 SUB SWAP1 LOG3 POP POP JUMP JUMPDEST PUSH1 0x0 DUP1 REVERT JUMPDEST PUSH1 0x0 PUSH20 0xFFFFFFFFFFFFFFFFFFFFFFFFFFFFFFFFFFFFFFFF DUP3 AND SWAP1 POP SWAP2 SWAP1 POP JUMP JUMPDEST PUSH1 0x0 PUSH3 0x301 DUP3 PUSH3 0x2D4 JUMP JUMPDEST SWAP1 POP SWAP2 SWAP1 POP JUMP JUMPDEST PUSH3 0x313 DUP2 PUSH3 0x2F4 JUMP JUMPDEST DUP2 EQ PUSH3 0x31F JUMPI PUSH1 0x0 DUP1 REVERT JUMPDEST POP JUMP JUMPDEST PUSH1 0x0 DUP2 MLOAD SWAP1 POP PUSH3 0x333 DUP2 PUSH3 0x308 JUMP JUMPDEST SWAP3 SWAP2 POP POP JUMP JUMPDEST PUSH1 0x0 DUP1 PUSH1 0x40 DUP4 DUP6 SUB SLT ISZERO PUSH3 0x353 JUMPI PUSH3 0x352 PUSH3 0x2CF JUMP JUMPDEST JUMPDEST PUSH1 0x0 PUSH3 0x363 DUP6 DUP3 DUP7 ADD PUSH3 0x322 JUMP JUMPDEST SWAP3 POP POP PUSH1 0x20 PUSH3 0x376 DUP6 DUP3 DUP7 ADD PUSH3 0x322 JUMP JUMPDEST SWAP2 POP POP SWAP3 POP SWAP3 SWAP1 POP JUMP JUMPDEST PUSH1 0x0 DUP2 MLOAD SWAP1 POP SWAP2 SWAP1 POP JUMP JUMPDEST PUSH32 0x4E487B7100000000000000000000000000000000000000000000000000000000 PUSH1 0x0 MSTORE PUSH1 0x41 PUSH1 0x4 MSTORE PUSH1 0x24 PUSH1 0x0 REVERT JUMPDEST PUSH32 0x4E487B7100000000000000000000000000000000000000000000000000000000 PUSH1 0x0 MSTORE PUSH1 0x22 PUSH1 0x4 MSTORE PUSH1 0x24 PUSH1 0x0 REVERT JUMPDEST PUSH1 0x0 PUSH1 0x2 DUP3 DIV SWAP1 POP PUSH1 0x1 DUP3 AND DUP1 PUSH3 0x402 JUMPI PUSH1 0x7F DUP3 AND SWAP2 POP JUMPDEST PUSH1 0x20 DUP3 LT DUP2 SUB PUSH3 0x418 JUMPI PUSH3 0x417 PUSH3 0x3BA JUMP JUMPDEST JUMPDEST POP SWAP2 SWAP1 POP JUMP JUMPDEST PUSH1 0x0 DUP2 SWAP1 POP DUP2 PUSH1 0x0 MSTORE PUSH1 0x20 PUSH1 0x0 KECCAK256 SWAP1 POP SWAP2 SWAP1 POP JUMP JUMPDEST PUSH1 0x0 PUSH1 0x20 PUSH1 0x1F DUP4 ADD DIV SWAP1 POP SWAP2 SWAP1 POP JUMP JUMPDEST PUSH1 0x0 DUP3 DUP3 SHL SWAP1 POP SWAP3 SWAP2 POP POP JUMP JUMPDEST PUSH1 0x0 PUSH1 0x8 DUP4 MUL PUSH3 0x482 PUSH32 0xFFFFFFFFFFFFFFFFFFFFFFFFFFFFFFFFFFFFFFFFFFFFFFFFFFFFFFFFFFFFFFFF DUP3 PUSH3 0x443 JUMP JUMPDEST PUSH3 0x48E DUP7 DUP4 PUSH3 0x443 JUMP JUMPDEST SWAP6 POP DUP1 NOT DUP5 AND SWAP4 POP DUP1 DUP7 AND DUP5 OR SWAP3 POP POP POP SWAP4 SWAP3 POP POP POP JUMP JUMPDEST PUSH1 0x0 DUP2 SWAP1 POP SWAP2 SWAP1 POP JUMP JUMPDEST PUSH1 0x0 DUP2 SWAP1 POP SWAP2 SWAP1 POP JUMP JUMPDEST PUSH1 0x0 PUSH3 0x4DB PUSH3 0x4D5 PUSH3 0x4CF DUP5 PUSH3 0x4A6 JUMP JUMPDEST PUSH3 0x4B0 JUMP JUMPDEST PUSH3 0x4A6 JUMP JUMPDEST SWAP1 POP SWAP2 SWAP1 POP JUMP JUMPDEST PUSH1 0x0 DUP2 SWAP1 POP SWAP2 SWAP1 POP JUMP JUMPDEST PUSH3 0x4F7 DUP4 PUSH3 0x4BA JUMP JUMPDEST PUSH3 0x50F PUSH3 0x506 DUP3 PUSH3 0x4E2 JUMP JUMPDEST DUP5 DUP5 SLOAD PUSH3 0x450 JUMP JUMPDEST DUP3 SSTORE POP POP POP POP JUMP JUMPDEST PUSH1 0x0 SWAP1 JUMP JUMPDEST PUSH3 0x526 PUSH3 0x517 JUMP JUMPDEST PUSH3 0x533 DUP2 DUP5 DUP5 PUSH3 0x4EC JUMP JUMPDEST POP POP POP JUMP JUMPDEST JUMPDEST DUP2 DUP2 LT ISZERO PUSH3 0x55B JUMPI PUSH3 0x54F PUSH1 0x0 DUP3 PUSH3 0x51C JUMP JUMPDEST PUSH1 0x1 DUP2 ADD SWAP1 POP PUSH3 0x539 JUMP JUMPDEST POP POP JUMP JUMPDEST PUSH1 0x1F DUP3 GT ISZERO PUSH3 0x5AA JUMPI PUSH3 0x574 DUP2 PUSH3 0x41E JUMP JUMPDEST PUSH3 0x57F DUP5 PUSH3 0x433 JUMP JUMPDEST DUP2 ADD PUSH1 0x20 DUP6 LT ISZERO PUSH3 0x58F JUMPI DUP2 SWAP1 POP JUMPDEST PUSH3 0x5A7 PUSH3 0x59E DUP6 PUSH3 0x433 JUMP JUMPDEST DUP4 ADD DUP3 PUSH3 0x538 JUMP JUMPDEST POP POP JUMPDEST POP POP POP JUMP JUMPDEST PUSH1 0x0 DUP3 DUP3 SHR SWAP1 POP SWAP3 SWAP2 POP POP JUMP JUMPDEST PUSH1 0x0 PUSH3 0x5CF PUSH1 0x0 NOT DUP5 PUSH1 0x8 MUL PUSH3 0x5AF JUMP JUMPDEST NOT DUP1 DUP4 AND SWAP2 POP POP SWAP3 SWAP2 POP POP JUMP JUMPDEST PUSH1 0x0 PUSH3 0x5EA DUP4 DUP4 PUSH3 0x5BC JUMP JUMPDEST SWAP2 POP DUP3 PUSH1 0x2 MUL DUP3 OR SWAP1 POP SWAP3 SWAP2 POP POP JUMP JUMPDEST PUSH3 0x605 DUP3 PUSH3 0x380 JUMP JUMPDEST PUSH8 0xFFFFFFFFFFFFFFFF DUP2 GT ISZERO PUSH3 0x621 JUMPI PUSH3 0x620 PUSH3 0x38B JUMP JUMPDEST JUMPDEST PUSH3 0x62D DUP3 SLOAD PUSH3 0x3E9 JUMP JUMPDEST PUSH3 0x63A DUP3 DUP3 DUP6 PUSH3 0x55F JUMP JUMPDEST PUSH1 0x0 PUSH1 0x20 SWAP1 POP PUSH1 0x1F DUP4 GT PUSH1 0x1 DUP2 EQ PUSH3 0x672 JUMPI PUSH1 0x0 DUP5 ISZERO PUSH3 0x65D JUMPI DUP3 DUP8 ADD MLOAD SWAP1 POP JUMPDEST PUSH3 0x669 DUP6 DUP3 PUSH3 0x5DC JUMP JUMPDEST DUP7 SSTORE POP PUSH3 0x6D9 JUMP JUMPDEST PUSH1 0x1F NOT DUP5 AND PUSH3 0x682 DUP7 PUSH3 0x41E JUMP JUMPDEST PUSH1 0x0 JUMPDEST DUP3 DUP2 LT ISZERO PUSH3 0x6AC JUMPI DUP5 DUP10 ADD MLOAD DUP3 SSTORE PUSH1 0x1 DUP3 ADD SWAP2 POP PUSH1 0x20 DUP6 ADD SWAP5 POP PUSH1 0x20 DUP2 ADD SWAP1 POP PUSH3 0x685 JUMP JUMPDEST DUP7 DUP4 LT ISZERO PUSH3 0x6CC JUMPI DUP5 DUP10 ADD MLOAD PUSH3 0x6C8 PUSH1 0x1F DUP10 AND DUP3 PUSH3 0x5BC JUMP JUMPDEST DUP4 SSTORE POP JUMPDEST PUSH1 0x1 PUSH1 0x2 DUP9 MUL ADD DUP9 SSTORE POP POP POP JUMPDEST POP POP POP POP POP POP JUMP JUMPDEST PUSH2 0x3F5F DUP1 PUSH3 0x6F1 PUSH1 0x0 CODECOPY PUSH1 0x0 RETURN INVALID PUSH1 0x80 PUSH1 0x40 MSTORE CALLVALUE DUP1 ISZERO PUSH2 0x10 JUMPI PUSH1 0x0 DUP1 REVERT JUMPDEST POP PUSH1 0x4 CALLDATASIZE LT PUSH2 0x1DA JUMPI PUSH1 0x0 CALLDATALOAD PUSH1 0xE0 SHR DUP1 PUSH4 0x6352211E GT PUSH2 0x104 JUMPI DUP1 PUSH4 0xA22CB465 GT PUSH2 0xA2 JUMPI DUP1 PUSH4 0xBE22F546 GT PUSH2 0x71 JUMPI DUP1 PUSH4 0xBE22F546 EQ PUSH2 0x4EC JUMPI DUP1 PUSH4 0xC87B56DD EQ PUSH2 0x50A JUMPI DUP1 PUSH4 0xE985E9C5 EQ PUSH2 0x53A JUMPI DUP1 PUSH4 0xF2FDE38B EQ PUSH2 0x56A JUMPI PUSH2 0x1DA JUMP JUMPDEST DUP1 PUSH4 0xA22CB465 EQ PUSH2 0x463 JUMPI DUP1 PUSH4 0xA9CAD37B EQ PUSH2 0x47F JUMPI DUP1 PUSH4 0xB88D4FDE EQ PUSH2 0x4B2 JUMPI DUP1 PUSH4 0xBA266B13 EQ PUSH2 0x4CE JUMPI PUSH2 0x1DA JUMP JUMPDEST DUP1 PUSH4 0x84C4BD4B GT PUSH2 0xDE JUMPI DUP1 PUSH4 0x84C4BD4B EQ PUSH2 0x3EB JUMPI DUP1 PUSH4 0x8DA5CB5B EQ PUSH2 0x409 JUMPI DUP1 PUSH4 0x95D89B41 EQ PUSH2 0x427 JUMPI DUP1 PUSH4 0xA03A60F1 EQ PUSH2 0x445 JUMPI PUSH2 0x1DA JUMP JUMPDEST DUP1 PUSH4 0x6352211E EQ PUSH2 0x381 JUMPI DUP1 PUSH4 0x70A08231 EQ PUSH2 0x3B1 JUMPI DUP1 PUSH4 0x715018A6 EQ PUSH2 0x3E1 JUMPI PUSH2 0x1DA JUMP JUMPDEST DUP1 PUSH4 0x23B872DD GT PUSH2 0x17C JUMPI DUP1 PUSH4 0x43C7995D GT PUSH2 0x14B JUMPI DUP1 PUSH4 0x43C7995D EQ PUSH2 0x31D JUMPI DUP1 PUSH4 0x56189236 EQ PUSH2 0x33B JUMPI DUP1 PUSH4 0x5D1793FF EQ PUSH2 0x359 JUMPI DUP1 PUSH4 0x5FE3B567 EQ PUSH2 0x363 JUMPI PUSH2 0x1DA JUMP JUMPDEST DUP1 PUSH4 0x23B872DD EQ PUSH2 0x2AB JUMPI DUP1 PUSH4 0x2890E0D7 EQ PUSH2 0x2C7 JUMPI DUP1 PUSH4 0x35DB70B5 EQ PUSH2 0x2E3 JUMPI DUP1 PUSH4 0x42842E0E EQ PUSH2 0x301 JUMPI PUSH2 0x1DA JUMP JUMPDEST DUP1 PUSH4 0x95EA7B3 GT PUSH2 0x1B8 JUMPI DUP1 PUSH4 0x95EA7B3 EQ PUSH2 0x25D JUMPI DUP1 PUSH4 0x14F710FE EQ PUSH2 0x279 JUMPI DUP1 PUSH4 0x1976959E EQ PUSH2 0x283 JUMPI DUP1 PUSH4 0x20DCC342 EQ PUSH2 0x28D JUMPI PUSH2 0x1DA JUMP JUMPDEST DUP1 PUSH4 0x1FFC9A7 EQ PUSH2 0x1DF JUMPI DUP1 PUSH4 0x6FDDE03 EQ PUSH2 0x20F JUMPI DUP1 PUSH4 0x81812FC EQ PUSH2 0x22D JUMPI JUMPDEST PUSH1 0x0 DUP1 REVERT JUMPDEST PUSH2 0x1F9 PUSH1 0x4 DUP1 CALLDATASIZE SUB DUP2 ADD SWAP1 PUSH2 0x1F4 SWAP2 SWAP1 PUSH2 0x2C04 JUMP JUMPDEST PUSH2 0x586 JUMP JUMPDEST PUSH1 0x40 MLOAD PUSH2 0x206 SWAP2 SWAP1 PUSH2 0x2C4C JUMP JUMPDEST PUSH1 0x40 MLOAD DUP1 SWAP2 SUB SWAP1 RETURN JUMPDEST PUSH2 0x217 PUSH2 0x668 JUMP JUMPDEST PUSH1 0x40 MLOAD PUSH2 0x224 SWAP2 SWAP1 PUSH2 0x2CF7 JUMP JUMPDEST PUSH1 0x40 MLOAD DUP1 SWAP2 SUB SWAP1 RETURN JUMPDEST PUSH2 0x247 PUSH1 0x4 DUP1 CALLDATASIZE SUB DUP2 ADD SWAP1 PUSH2 0x242 SWAP2 SWAP1 PUSH2 0x2D4F JUMP JUMPDEST PUSH2 0x6FA JUMP JUMPDEST PUSH1 0x40 MLOAD PUSH2 0x254 SWAP2 SWAP1 PUSH2 0x2DBD JUMP JUMPDEST PUSH1 0x40 MLOAD DUP1 SWAP2 SUB SWAP1 RETURN JUMPDEST PUSH2 0x277 PUSH1 0x4 DUP1 CALLDATASIZE SUB DUP2 ADD SWAP1 PUSH2 0x272 SWAP2 SWAP1 PUSH2 0x2E04 JUMP JUMPDEST PUSH2 0x740 JUMP JUMPDEST STOP JUMPDEST PUSH2 0x281 PUSH2 0x857 JUMP JUMPDEST STOP JUMPDEST PUSH2 0x28B PUSH2 0xD0F JUMP JUMPDEST STOP JUMPDEST PUSH2 0x295 PUSH2 0x1003 JUMP JUMPDEST PUSH1 0x40 MLOAD PUSH2 0x2A2 SWAP2 SWAP1 PUSH2 0x2E53 JUMP JUMPDEST PUSH1 0x40 MLOAD DUP1 SWAP2 SUB SWAP1 RETURN JUMPDEST PUSH2 0x2C5 PUSH1 0x4 DUP1 CALLDATASIZE SUB DUP2 ADD SWAP1 PUSH2 0x2C0 SWAP2 SWAP1 PUSH2 0x2E6E JUMP JUMPDEST PUSH2 0x1009 JUMP JUMPDEST STOP JUMPDEST PUSH2 0x2E1 PUSH1 0x4 DUP1 CALLDATASIZE SUB DUP2 ADD SWAP1 PUSH2 0x2DC SWAP2 SWAP1 PUSH2 0x2D4F JUMP JUMPDEST PUSH2 0x1069 JUMP JUMPDEST STOP JUMPDEST PUSH2 0x2EB PUSH2 0x150B JUMP JUMPDEST PUSH1 0x40 MLOAD PUSH2 0x2F8 SWAP2 SWAP1 PUSH2 0x2E53 JUMP JUMPDEST PUSH1 0x40 MLOAD DUP1 SWAP2 SUB SWAP1 RETURN JUMPDEST PUSH2 0x31B PUSH1 0x4 DUP1 CALLDATASIZE SUB DUP2 ADD SWAP1 PUSH2 0x316 SWAP2 SWAP1 PUSH2 0x2E6E JUMP JUMPDEST PUSH2 0x1511 JUMP JUMPDEST STOP JUMPDEST PUSH2 0x325 PUSH2 0x1531 JUMP JUMPDEST PUSH1 0x40 MLOAD PUSH2 0x332 SWAP2 SWAP1 PUSH2 0x2F20 JUMP JUMPDEST PUSH1 0x40 MLOAD DUP1 SWAP2 SUB SWAP1 RETURN JUMPDEST PUSH2 0x343 PUSH2 0x1557 JUMP JUMPDEST PUSH1 0x40 MLOAD PUSH2 0x350 SWAP2 SWAP1 PUSH2 0x2E53 JUMP JUMPDEST PUSH1 0x40 MLOAD DUP1 SWAP2 SUB SWAP1 RETURN JUMPDEST PUSH2 0x361 PUSH2 0x1568 JUMP JUMPDEST STOP JUMPDEST PUSH2 0x36B PUSH2 0x1669 JUMP JUMPDEST PUSH1 0x40 MLOAD PUSH2 0x378 SWAP2 SWAP1 PUSH2 0x2F5C JUMP JUMPDEST PUSH1 0x40 MLOAD DUP1 SWAP2 SUB SWAP1 RETURN JUMPDEST PUSH2 0x39B PUSH1 0x4 DUP1 CALLDATASIZE SUB DUP2 ADD SWAP1 PUSH2 0x396 SWAP2 SWAP1 PUSH2 0x2D4F JUMP JUMPDEST PUSH2 0x168F JUMP JUMPDEST PUSH1 0x40 MLOAD PUSH2 0x3A8 SWAP2 SWAP1 PUSH2 0x2DBD JUMP JUMPDEST PUSH1 0x40 MLOAD DUP1 SWAP2 SUB SWAP1 RETURN JUMPDEST PUSH2 0x3CB PUSH1 0x4 DUP1 CALLDATASIZE SUB DUP2 ADD SWAP1 PUSH2 0x3C6 SWAP2 SWAP1 PUSH2 0x2F77 JUMP JUMPDEST PUSH2 0x1715 JUMP JUMPDEST PUSH1 0x40 MLOAD PUSH2 0x3D8 SWAP2 SWAP1 PUSH2 0x2E53 JUMP JUMPDEST PUSH1 0x40 MLOAD DUP1 SWAP2 SUB SWAP1 RETURN JUMPDEST PUSH2 0x3E9 PUSH2 0x17CC JUMP JUMPDEST STOP JUMPDEST PUSH2 0x3F3 PUSH2 0x17E0 JUMP JUMPDEST PUSH1 0x40 MLOAD PUSH2 0x400 SWAP2 SWAP1 PUSH2 0x2E53 JUMP JUMPDEST PUSH1 0x40 MLOAD DUP1 SWAP2 SUB SWAP1 RETURN JUMPDEST PUSH2 0x411 PUSH2 0x17EC JUMP JUMPDEST PUSH1 0x40 MLOAD PUSH2 0x41E SWAP2 SWAP1 PUSH2 0x2DBD JUMP JUMPDEST PUSH1 0x40 MLOAD DUP1 SWAP2 SUB SWAP1 RETURN JUMPDEST PUSH2 0x42F PUSH2 0x1816 JUMP JUMPDEST PUSH1 0x40 MLOAD PUSH2 0x43C SWAP2 SWAP1 PUSH2 0x2CF7 JUMP JUMPDEST PUSH1 0x40 MLOAD DUP1 SWAP2 SUB SWAP1 RETURN JUMPDEST PUSH2 0x44D PUSH2 0x18A8 JUMP JUMPDEST PUSH1 0x40 MLOAD PUSH2 0x45A SWAP2 SWAP1 PUSH2 0x2DBD JUMP JUMPDEST PUSH1 0x40 MLOAD DUP1 SWAP2 SUB SWAP1 RETURN JUMPDEST PUSH2 0x47D PUSH1 0x4 DUP1 CALLDATASIZE SUB DUP2 ADD SWAP1 PUSH2 0x478 SWAP2 SWAP1 PUSH2 0x2FD0 JUMP JUMPDEST PUSH2 0x18CE JUMP JUMPDEST STOP JUMPDEST PUSH2 0x499 PUSH1 0x4 DUP1 CALLDATASIZE SUB DUP2 ADD SWAP1 PUSH2 0x494 SWAP2 SWAP1 PUSH2 0x2D4F JUMP JUMPDEST PUSH2 0x18E4 JUMP JUMPDEST PUSH1 0x40 MLOAD PUSH2 0x4A9 SWAP5 SWAP4 SWAP3 SWAP2 SWAP1 PUSH2 0x3010 JUMP JUMPDEST PUSH1 0x40 MLOAD DUP1 SWAP2 SUB SWAP1 RETURN JUMPDEST PUSH2 0x4CC PUSH1 0x4 DUP1 CALLDATASIZE SUB DUP2 ADD SWAP1 PUSH2 0x4C7 SWAP2 SWAP1 PUSH2 0x318A JUMP JUMPDEST PUSH2 0x1934 JUMP JUMPDEST STOP JUMPDEST PUSH2 0x4D6 PUSH2 0x1996 JUMP JUMPDEST PUSH1 0x40 MLOAD PUSH2 0x4E3 SWAP2 SWAP1 PUSH2 0x322E JUMP JUMPDEST PUSH1 0x40 MLOAD DUP1 SWAP2 SUB SWAP1 RETURN JUMPDEST PUSH2 0x4F4 PUSH2 0x19BC JUMP JUMPDEST PUSH1 0x40 MLOAD PUSH2 0x501 SWAP2 SWAP1 PUSH2 0x326A JUMP JUMPDEST PUSH1 0x40 MLOAD DUP1 SWAP2 SUB SWAP1 RETURN JUMPDEST PUSH2 0x524 PUSH1 0x4 DUP1 CALLDATASIZE SUB DUP2 ADD SWAP1 PUSH2 0x51F SWAP2 SWAP1 PUSH2 0x2D4F JUMP JUMPDEST PUSH2 0x19E2 JUMP JUMPDEST PUSH1 0x40 MLOAD PUSH2 0x531 SWAP2 SWAP1 PUSH2 0x2CF7 JUMP JUMPDEST PUSH1 0x40 MLOAD DUP1 SWAP2 SUB SWAP1 RETURN JUMPDEST PUSH2 0x554 PUSH1 0x4 DUP1 CALLDATASIZE SUB DUP2 ADD SWAP1 PUSH2 0x54F SWAP2 SWAP1 PUSH2 0x3285 JUMP JUMPDEST PUSH2 0x1A4A JUMP JUMPDEST PUSH1 0x40 MLOAD PUSH2 0x561 SWAP2 SWAP1 PUSH2 0x2C4C JUMP JUMPDEST PUSH1 0x40 MLOAD DUP1 SWAP2 SUB SWAP1 RETURN JUMPDEST PUSH2 0x584 PUSH1 0x4 DUP1 CALLDATASIZE SUB DUP2 ADD SWAP1 PUSH2 0x57F SWAP2 SWAP1 PUSH2 0x2F77 JUMP JUMPDEST PUSH2 0x1ADE JUMP JUMPDEST STOP JUMPDEST PUSH1 0x0 PUSH32 0x80AC58CD00000000000000000000000000000000000000000000000000000000 PUSH28 0xFFFFFFFFFFFFFFFFFFFFFFFFFFFFFFFFFFFFFFFFFFFFFFFFFFFFFFFF NOT AND DUP3 PUSH28 0xFFFFFFFFFFFFFFFFFFFFFFFFFFFFFFFFFFFFFFFFFFFFFFFFFFFFFFFF NOT AND EQ DUP1 PUSH2 0x651 JUMPI POP PUSH32 0x5B5E139F00000000000000000000000000000000000000000000000000000000 PUSH28 0xFFFFFFFFFFFFFFFFFFFFFFFFFFFFFFFFFFFFFFFFFFFFFFFFFFFFFFFF NOT AND DUP3 PUSH28 0xFFFFFFFFFFFFFFFFFFFFFFFFFFFFFFFFFFFFFFFFFFFFFFFFFFFFFFFF NOT AND EQ JUMPDEST DUP1 PUSH2 0x661 JUMPI POP PUSH2 0x660 DUP3 PUSH2 0x1B61 JUMP JUMPDEST JUMPDEST SWAP1 POP SWAP2 SWAP1 POP JUMP JUMPDEST PUSH1 0x60 PUSH1 0x0 DUP1 SLOAD PUSH2 0x677 SWAP1 PUSH2 0x32F4 JUMP JUMPDEST DUP1 PUSH1 0x1F ADD PUSH1 0x20 DUP1 SWAP2 DIV MUL PUSH1 0x20 ADD PUSH1 0x40 MLOAD SWAP1 DUP2 ADD PUSH1 0x40 MSTORE DUP1 SWAP3 SWAP2 SWAP1 DUP2 DUP2 MSTORE PUSH1 0x20 ADD DUP3 DUP1 SLOAD PUSH2 0x6A3 SWAP1 PUSH2 0x32F4 JUMP JUMPDEST DUP1 ISZERO PUSH2 0x6F0 JUMPI DUP1 PUSH1 0x1F LT PUSH2 0x6C5 JUMPI PUSH2 0x100 DUP1 DUP4 SLOAD DIV MUL DUP4 MSTORE SWAP2 PUSH1 0x20 ADD SWAP2 PUSH2 0x6F0 JUMP JUMPDEST DUP3 ADD SWAP2 SWAP1 PUSH1 0x0 MSTORE PUSH1 0x20 PUSH1 0x0 KECCAK256 SWAP1 JUMPDEST DUP2 SLOAD DUP2 MSTORE SWAP1 PUSH1 0x1 ADD SWAP1 PUSH1 0x20 ADD DUP1 DUP4 GT PUSH2 0x6D3 JUMPI DUP3 SWAP1 SUB PUSH1 0x1F AND DUP3 ADD SWAP2 JUMPDEST POP POP POP POP POP SWAP1 POP SWAP1 JUMP JUMPDEST PUSH1 0x0 PUSH2 0x705 DUP3 PUSH2 0x1BCB JUMP JUMPDEST PUSH1 0x4 PUSH1 0x0 DUP4 DUP2 MSTORE PUSH1 0x20 ADD SWAP1 DUP2 MSTORE PUSH1 0x20 ADD PUSH1 0x0 KECCAK256 PUSH1 0x0 SWAP1 SLOAD SWAP1 PUSH2 0x100 EXP SWAP1 DIV PUSH20 0xFFFFFFFFFFFFFFFFFFFFFFFFFFFFFFFFFFFFFFFF AND SWAP1 POP SWAP2 SWAP1 POP JUMP JUMPDEST PUSH1 0x0 PUSH2 0x74B DUP3 PUSH2 0x168F JUMP JUMPDEST SWAP1 POP DUP1 PUSH20 0xFFFFFFFFFFFFFFFFFFFFFFFFFFFFFFFFFFFFFFFF AND DUP4 PUSH20 0xFFFFFFFFFFFFFFFFFFFFFFFFFFFFFFFFFFFFFFFF AND SUB PUSH2 0x7BB JUMPI PUSH1 0x40 MLOAD PUSH32 0x8C379A000000000000000000000000000000000000000000000000000000000 DUP2 MSTORE PUSH1 0x4 ADD PUSH2 0x7B2 SWAP1 PUSH2 0x3397 JUMP JUMPDEST PUSH1 0x40 MLOAD DUP1 SWAP2 SUB SWAP1 REVERT JUMPDEST DUP1 PUSH20 0xFFFFFFFFFFFFFFFFFFFFFFFFFFFFFFFFFFFFFFFF AND PUSH2 0x7DA PUSH2 0x1C16 JUMP JUMPDEST PUSH20 0xFFFFFFFFFFFFFFFFFFFFFFFFFFFFFFFFFFFFFFFF AND EQ DUP1 PUSH2 0x809 JUMPI POP PUSH2 0x808 DUP2 PUSH2 0x803 PUSH2 0x1C16 JUMP JUMPDEST PUSH2 0x1A4A JUMP JUMPDEST JUMPDEST PUSH2 0x848 JUMPI PUSH1 0x40 MLOAD PUSH32 0x8C379A000000000000000000000000000000000000000000000000000000000 DUP2 MSTORE PUSH1 0x4 ADD PUSH2 0x83F SWAP1 PUSH2 0x3429 JUMP JUMPDEST PUSH1 0x40 MLOAD DUP1 SWAP2 SUB SWAP1 REVERT JUMPDEST PUSH2 0x852 DUP4 DUP4 PUSH2 0x1C1E JUMP JUMPDEST POP POP POP JUMP JUMPDEST PUSH1 0x8 PUSH1 0x0 SWAP1 SLOAD SWAP1 PUSH2 0x100 EXP SWAP1 DIV PUSH20 0xFFFFFFFFFFFFFFFFFFFFFFFFFFFFFFFFFFFFFFFF AND PUSH20 0xFFFFFFFFFFFFFFFFFFFFFFFFFFFFFFFFFFFFFFFF AND PUSH4 0x23B872DD CALLER ADDRESS PUSH1 0xD SLOAD PUSH1 0x40 MLOAD DUP5 PUSH4 0xFFFFFFFF AND PUSH1 0xE0 SHL DUP2 MSTORE PUSH1 0x4 ADD PUSH2 0x8B8 SWAP4 SWAP3 SWAP2 SWAP1 PUSH2 0x3449 JUMP JUMPDEST PUSH1 0x20 PUSH1 0x40 MLOAD DUP1 DUP4 SUB DUP2 PUSH1 0x0 DUP8 GAS CALL ISZERO DUP1 ISZERO PUSH2 0x8D7 JUMPI RETURNDATASIZE PUSH1 0x0 DUP1 RETURNDATACOPY RETURNDATASIZE PUSH1 0x0 REVERT JUMPDEST POP POP POP POP PUSH1 0x40 MLOAD RETURNDATASIZE PUSH1 0x1F NOT PUSH1 0x1F DUP3 ADD AND DUP3 ADD DUP1 PUSH1 0x40 MSTORE POP DUP2 ADD SWAP1 PUSH2 0x8FB SWAP2 SWAP1 PUSH2 0x3495 JUMP JUMPDEST POP PUSH1 0x0 PUSH2 0x908 PUSH1 0x7 PUSH2 0x1CD7 JUMP JUMPDEST SWAP1 POP PUSH2 0x914 CALLER DUP3 PUSH2 0x1CE5 JUMP JUMPDEST PUSH1 0x8 PUSH1 0x0 SWAP1 SLOAD SWAP1 PUSH2 0x100 EXP SWAP1 DIV PUSH20 0xFFFFFFFFFFFFFFFFFFFFFFFFFFFFFFFFFFFFFFFF AND PUSH20 0xFFFFFFFFFFFFFFFFFFFFFFFFFFFFFFFFFFFFFFFF AND PUSH4 0x95EA7B3 PUSH1 0xB PUSH1 0x0 SWAP1 SLOAD SWAP1 PUSH2 0x100 EXP SWAP1 DIV PUSH20 0xFFFFFFFFFFFFFFFFFFFFFFFFFFFFFFFFFFFFFFFF AND PUSH1 0xD SLOAD PUSH1 0x40 MLOAD DUP4 PUSH4 0xFFFFFFFF AND PUSH1 0xE0 SHL DUP2 MSTORE PUSH1 0x4 ADD PUSH2 0x995 SWAP3 SWAP2 SWAP1 PUSH2 0x34C2 JUMP JUMPDEST PUSH1 0x20 PUSH1 0x40 MLOAD DUP1 DUP4 SUB DUP2 PUSH1 0x0 DUP8 GAS CALL ISZERO DUP1 ISZERO PUSH2 0x9B4 JUMPI RETURNDATASIZE PUSH1 0x0 DUP1 RETURNDATACOPY RETURNDATASIZE PUSH1 0x0 REVERT JUMPDEST POP POP POP POP PUSH1 0x40 MLOAD RETURNDATASIZE PUSH1 0x1F NOT PUSH1 0x1F DUP3 ADD AND DUP3 ADD DUP1 PUSH1 0x40 MSTORE POP DUP2 ADD SWAP1 PUSH2 0x9D8 SWAP2 SWAP1 PUSH2 0x3495 JUMP JUMPDEST POP PUSH1 0x0 PUSH1 0xA PUSH1 0x0 SWAP1 SLOAD SWAP1 PUSH2 0x100 EXP SWAP1 DIV PUSH20 0xFFFFFFFFFFFFFFFFFFFFFFFFFFFFFFFFFFFFFFFF AND PUSH20 0xFFFFFFFFFFFFFFFFFFFFFFFFFFFFFFFFFFFFFFFF AND PUSH4 0x70A08231 ADDRESS PUSH1 0x40 MLOAD DUP3 PUSH4 0xFFFFFFFF AND PUSH1 0xE0 SHL DUP2 MSTORE PUSH1 0x4 ADD PUSH2 0xA36 SWAP2 SWAP1 PUSH2 0x2DBD JUMP JUMPDEST PUSH1 0x20 PUSH1 0x40 MLOAD DUP1 DUP4 SUB DUP2 DUP7 GAS STATICCALL ISZERO DUP1 ISZERO PUSH2 0xA53 JUMPI RETURNDATASIZE PUSH1 0x0 DUP1 RETURNDATACOPY RETURNDATASIZE PUSH1 0x0 REVERT JUMPDEST POP POP POP POP PUSH1 0x40 MLOAD RETURNDATASIZE PUSH1 0x1F NOT PUSH1 0x1F DUP3 ADD AND DUP3 ADD DUP1 PUSH1 0x40 MSTORE POP DUP2 ADD SWAP1 PUSH2 0xA77 SWAP2 SWAP1 PUSH2 0x3500 JUMP JUMPDEST SWAP1 POP PUSH1 0x0 PUSH1 0x9 PUSH1 0x0 SWAP1 SLOAD SWAP1 PUSH2 0x100 EXP SWAP1 DIV PUSH20 0xFFFFFFFFFFFFFFFFFFFFFFFFFFFFFFFFFFFFFFFF AND PUSH20 0xFFFFFFFFFFFFFFFFFFFFFFFFFFFFFFFFFFFFFFFF AND PUSH4 0xA0712D68 PUSH1 0xD SLOAD PUSH1 0x40 MLOAD DUP3 PUSH4 0xFFFFFFFF AND PUSH1 0xE0 SHL DUP2 MSTORE PUSH1 0x4 ADD PUSH2 0xAD8 SWAP2 SWAP1 PUSH2 0x2E53 JUMP JUMPDEST PUSH1 0x20 PUSH1 0x40 MLOAD DUP1 DUP4 SUB DUP2 PUSH1 0x0 DUP8 GAS CALL ISZERO DUP1 ISZERO PUSH2 0xAF7 JUMPI RETURNDATASIZE PUSH1 0x0 DUP1 RETURNDATACOPY RETURNDATASIZE PUSH1 0x0 REVERT JUMPDEST POP POP POP POP PUSH1 0x40 MLOAD RETURNDATASIZE PUSH1 0x1F NOT PUSH1 0x1F DUP3 ADD AND DUP3 ADD DUP1 PUSH1 0x40 MSTORE POP DUP2 ADD SWAP1 PUSH2 0xB1B SWAP2 SWAP1 PUSH2 0x3500 JUMP JUMPDEST SWAP1 POP PUSH1 0x0 DUP2 EQ PUSH2 0xB60 JUMPI PUSH1 0x40 MLOAD PUSH32 0x8C379A000000000000000000000000000000000000000000000000000000000 DUP2 MSTORE PUSH1 0x4 ADD PUSH2 0xB57 SWAP1 PUSH2 0x3579 JUMP JUMPDEST PUSH1 0x40 MLOAD DUP1 SWAP2 SUB SWAP1 REVERT JUMPDEST PUSH1 0x0 PUSH1 0xA PUSH1 0x0 SWAP1 SLOAD SWAP1 PUSH2 0x100 EXP SWAP1 DIV PUSH20 0xFFFFFFFFFFFFFFFFFFFFFFFFFFFFFFFFFFFFFFFF AND PUSH20 0xFFFFFFFFFFFFFFFFFFFFFFFFFFFFFFFFFFFFFFFF AND PUSH4 0x70A08231 ADDRESS PUSH1 0x40 MLOAD DUP3 PUSH4 0xFFFFFFFF AND PUSH1 0xE0 SHL DUP2 MSTORE PUSH1 0x4 ADD PUSH2 0xBBD SWAP2 SWAP1 PUSH2 0x2DBD JUMP JUMPDEST PUSH1 0x20 PUSH1 0x40 MLOAD DUP1 DUP4 SUB DUP2 DUP7 GAS STATICCALL ISZERO DUP1 ISZERO PUSH2 0xBDA JUMPI RETURNDATASIZE PUSH1 0x0 DUP1 RETURNDATACOPY RETURNDATASIZE PUSH1 0x0 REVERT JUMPDEST POP POP POP POP PUSH1 0x40 MLOAD RETURNDATASIZE PUSH1 0x1F NOT PUSH1 0x1F DUP3 ADD AND DUP3 ADD DUP1 PUSH1 0x40 MSTORE POP DUP2 ADD SWAP1 PUSH2 0xBFE SWAP2 SWAP1 PUSH2 0x3500 JUMP JUMPDEST SWAP1 POP PUSH1 0x40 MLOAD DUP1 PUSH1 0x80 ADD PUSH1 0x40 MSTORE DUP1 TIMESTAMP DUP2 MSTORE PUSH1 0x20 ADD PUSH1 0xD SLOAD DUP2 MSTORE PUSH1 0x20 ADD PUSH2 0xC2C DUP6 DUP5 PUSH2 0x1F02 SWAP1 SWAP2 SWAP1 PUSH4 0xFFFFFFFF AND JUMP JUMPDEST DUP2 MSTORE PUSH1 0x20 ADD CALLER PUSH20 0xFFFFFFFFFFFFFFFFFFFFFFFFFFFFFFFFFFFFFFFF AND DUP2 MSTORE POP PUSH1 0xF PUSH1 0x0 DUP7 DUP2 MSTORE PUSH1 0x20 ADD SWAP1 DUP2 MSTORE PUSH1 0x20 ADD PUSH1 0x0 KECCAK256 PUSH1 0x0 DUP3 ADD MLOAD DUP2 PUSH1 0x0 ADD SSTORE PUSH1 0x20 DUP3 ADD MLOAD DUP2 PUSH1 0x1 ADD SSTORE PUSH1 0x40 DUP3 ADD MLOAD DUP2 PUSH1 0x2 ADD SSTORE PUSH1 0x60 DUP3 ADD MLOAD DUP2 PUSH1 0x3 ADD PUSH1 0x0 PUSH2 0x100 EXP DUP2 SLOAD DUP2 PUSH20 0xFFFFFFFFFFFFFFFFFFFFFFFFFFFFFFFFFFFFFFFF MUL NOT AND SWAP1 DUP4 PUSH20 0xFFFFFFFFFFFFFFFFFFFFFFFFFFFFFFFFFFFFFFFF AND MUL OR SWAP1 SSTORE POP SWAP1 POP POP PUSH32 0x176F203DF400D7BD5F1B1C9EF36C16709BF3B5D9FD35F000A6BAE32393F66C3 DUP5 CALLER PUSH1 0x40 MLOAD PUSH2 0xCF7 SWAP3 SWAP2 SWAP1 PUSH2 0x3599 JUMP JUMPDEST PUSH1 0x40 MLOAD DUP1 SWAP2 SUB SWAP1 LOG1 PUSH2 0xD09 PUSH1 0x7 PUSH2 0x1F18 JUMP JUMPDEST POP POP POP POP JUMP JUMPDEST PUSH2 0xD17 PUSH2 0x1F2E JUMP JUMPDEST PUSH1 0x0 PUSH1 0xE SLOAD GT PUSH2 0xD5C JUMPI PUSH1 0x40 MLOAD PUSH32 0x8C379A000000000000000000000000000000000000000000000000000000000 DUP2 MSTORE PUSH1 0x4 ADD PUSH2 0xD53 SWAP1 PUSH2 0x3634 JUMP JUMPDEST PUSH1 0x40 MLOAD DUP1 SWAP2 SUB SWAP1 REVERT JUMPDEST PUSH1 0x0 PUSH1 0x8 PUSH1 0x0 SWAP1 SLOAD SWAP1 PUSH2 0x100 EXP SWAP1 DIV PUSH20 0xFFFFFFFFFFFFFFFFFFFFFFFFFFFFFFFFFFFFFFFF AND PUSH20 0xFFFFFFFFFFFFFFFFFFFFFFFFFFFFFFFFFFFFFFFF AND PUSH4 0x70A08231 ADDRESS PUSH1 0x40 MLOAD DUP3 PUSH4 0xFFFFFFFF AND PUSH1 0xE0 SHL DUP2 MSTORE PUSH1 0x4 ADD PUSH2 0xDB9 SWAP2 SWAP1 PUSH2 0x2DBD JUMP JUMPDEST PUSH1 0x20 PUSH1 0x40 MLOAD DUP1 DUP4 SUB DUP2 DUP7 GAS STATICCALL ISZERO DUP1 ISZERO PUSH2 0xDD6 JUMPI RETURNDATASIZE PUSH1 0x0 DUP1 RETURNDATACOPY RETURNDATASIZE PUSH1 0x0 REVERT JUMPDEST POP POP POP POP PUSH1 0x40 MLOAD RETURNDATASIZE PUSH1 0x1F NOT PUSH1 0x1F DUP3 ADD AND DUP3 ADD DUP1 PUSH1 0x40 MSTORE POP DUP2 ADD SWAP1 PUSH2 0xDFA SWAP2 SWAP1 PUSH2 0x3500 JUMP JUMPDEST SWAP1 POP PUSH1 0x9 PUSH1 0x0 SWAP1 SLOAD SWAP1 PUSH2 0x100 EXP SWAP1 DIV PUSH20 0xFFFFFFFFFFFFFFFFFFFFFFFFFFFFFFFFFFFFFFFF AND PUSH20 0xFFFFFFFFFFFFFFFFFFFFFFFFFFFFFFFFFFFFFFFF AND PUSH4 0xDB006A75 PUSH1 0xE SLOAD PUSH1 0x40 MLOAD DUP3 PUSH4 0xFFFFFFFF AND PUSH1 0xE0 SHL DUP2 MSTORE PUSH1 0x4 ADD PUSH2 0xE59 SWAP2 SWAP1 PUSH2 0x2E53 JUMP JUMPDEST PUSH1 0x20 PUSH1 0x40 MLOAD DUP1 DUP4 SUB DUP2 PUSH1 0x0 DUP8 GAS CALL ISZERO DUP1 ISZERO PUSH2 0xE78 JUMPI RETURNDATASIZE PUSH1 0x0 DUP1 RETURNDATACOPY RETURNDATASIZE PUSH1 0x0 REVERT JUMPDEST POP POP POP POP PUSH1 0x40 MLOAD RETURNDATASIZE PUSH1 0x1F NOT PUSH1 0x1F DUP3 ADD AND DUP3 ADD DUP1 PUSH1 0x40 MSTORE POP DUP2 ADD SWAP1 PUSH2 0xE9C SWAP2 SWAP1 PUSH2 0x3500 JUMP JUMPDEST POP PUSH1 0x0 PUSH1 0x8 PUSH1 0x0 SWAP1 SLOAD SWAP1 PUSH2 0x100 EXP SWAP1 DIV PUSH20 0xFFFFFFFFFFFFFFFFFFFFFFFFFFFFFFFFFFFFFFFF AND PUSH20 0xFFFFFFFFFFFFFFFFFFFFFFFFFFFFFFFFFFFFFFFF AND PUSH4 0x70A08231 ADDRESS PUSH1 0x40 MLOAD DUP3 PUSH4 0xFFFFFFFF AND PUSH1 0xE0 SHL DUP2 MSTORE PUSH1 0x4 ADD PUSH2 0xEFA SWAP2 SWAP1 PUSH2 0x2DBD JUMP JUMPDEST PUSH1 0x20 PUSH1 0x40 MLOAD DUP1 DUP4 SUB DUP2 DUP7 GAS STATICCALL ISZERO DUP1 ISZERO PUSH2 0xF17 JUMPI RETURNDATASIZE PUSH1 0x0 DUP1 RETURNDATACOPY RETURNDATASIZE PUSH1 0x0 REVERT JUMPDEST POP POP POP POP PUSH1 0x40 MLOAD RETURNDATASIZE PUSH1 0x1F NOT PUSH1 0x1F DUP3 ADD AND DUP3 ADD DUP1 PUSH1 0x40 MSTORE POP DUP2 ADD SWAP1 PUSH2 0xF3B SWAP2 SWAP1 PUSH2 0x3500 JUMP JUMPDEST SWAP1 POP PUSH1 0x8 PUSH1 0x0 SWAP1 SLOAD SWAP1 PUSH2 0x100 EXP SWAP1 DIV PUSH20 0xFFFFFFFFFFFFFFFFFFFFFFFFFFFFFFFFFFFFFFFF AND PUSH20 0xFFFFFFFFFFFFFFFFFFFFFFFFFFFFFFFFFFFFFFFF AND PUSH4 0xA9059CBB PUSH2 0xF83 PUSH2 0x17EC JUMP JUMPDEST PUSH2 0xF96 DUP6 DUP6 PUSH2 0x1F02 SWAP1 SWAP2 SWAP1 PUSH4 0xFFFFFFFF AND JUMP JUMPDEST PUSH1 0x40 MLOAD DUP4 PUSH4 0xFFFFFFFF AND PUSH1 0xE0 SHL DUP2 MSTORE PUSH1 0x4 ADD PUSH2 0xFB3 SWAP3 SWAP2 SWAP1 PUSH2 0x34C2 JUMP JUMPDEST PUSH1 0x20 PUSH1 0x40 MLOAD DUP1 DUP4 SUB DUP2 PUSH1 0x0 DUP8 GAS CALL ISZERO DUP1 ISZERO PUSH2 0xFD2 JUMPI RETURNDATASIZE PUSH1 0x0 DUP1 RETURNDATACOPY RETURNDATASIZE PUSH1 0x0 REVERT JUMPDEST POP POP POP POP PUSH1 0x40 MLOAD RETURNDATASIZE PUSH1 0x1F NOT PUSH1 0x1F DUP3 ADD AND DUP3 ADD DUP1 PUSH1 0x40 MSTORE POP DUP2 ADD SWAP1 PUSH2 0xFF6 SWAP2 SWAP1 PUSH2 0x3495 JUMP JUMPDEST POP PUSH1 0x0 PUSH1 0xE DUP2 SWAP1 SSTORE POP POP POP JUMP JUMPDEST PUSH1 0xE SLOAD DUP2 JUMP JUMPDEST PUSH2 0x101A PUSH2 0x1014 PUSH2 0x1C16 JUMP JUMPDEST DUP3 PUSH2 0x1FAC JUMP JUMPDEST PUSH2 0x1059 JUMPI PUSH1 0x40 MLOAD PUSH32 0x8C379A000000000000000000000000000000000000000000000000000000000 DUP2 MSTORE PUSH1 0x4 ADD PUSH2 0x1050 SWAP1 PUSH2 0x36C6 JUMP JUMPDEST PUSH1 0x40 MLOAD DUP1 SWAP2 SUB SWAP1 REVERT JUMPDEST PUSH2 0x1064 DUP4 DUP4 DUP4 PUSH2 0x2041 JUMP JUMPDEST POP POP POP JUMP JUMPDEST CALLER PUSH20 0xFFFFFFFFFFFFFFFFFFFFFFFFFFFFFFFFFFFFFFFF AND PUSH2 0x1089 DUP3 PUSH2 0x168F JUMP JUMPDEST PUSH20 0xFFFFFFFFFFFFFFFFFFFFFFFFFFFFFFFFFFFFFFFF AND EQ PUSH2 0x10DF JUMPI PUSH1 0x40 MLOAD PUSH32 0x8C379A000000000000000000000000000000000000000000000000000000000 DUP2 MSTORE PUSH1 0x4 ADD PUSH2 0x10D6 SWAP1 PUSH2 0x3732 JUMP JUMPDEST PUSH1 0x40 MLOAD DUP1 SWAP2 SUB SWAP1 REVERT JUMPDEST PUSH2 0x10E9 CALLER DUP3 PUSH2 0x1FAC JUMP JUMPDEST PUSH2 0x1128 JUMPI PUSH1 0x40 MLOAD PUSH32 0x8C379A000000000000000000000000000000000000000000000000000000000 DUP2 MSTORE PUSH1 0x4 ADD PUSH2 0x111F SWAP1 PUSH2 0x379E JUMP JUMPDEST PUSH1 0x40 MLOAD DUP1 SWAP2 SUB SWAP1 REVERT JUMPDEST PUSH1 0x0 PUSH1 0xA PUSH1 0x0 SWAP1 SLOAD SWAP1 PUSH2 0x100 EXP SWAP1 DIV PUSH20 0xFFFFFFFFFFFFFFFFFFFFFFFFFFFFFFFFFFFFFFFF AND PUSH20 0xFFFFFFFFFFFFFFFFFFFFFFFFFFFFFFFFFFFFFFFF AND PUSH4 0x70A08231 ADDRESS PUSH1 0x40 MLOAD DUP3 PUSH4 0xFFFFFFFF AND PUSH1 0xE0 SHL DUP2 MSTORE PUSH1 0x4 ADD PUSH2 0x1185 SWAP2 SWAP1 PUSH2 0x2DBD JUMP JUMPDEST PUSH1 0x20 PUSH1 0x40 MLOAD DUP1 DUP4 SUB DUP2 DUP7 GAS STATICCALL ISZERO DUP1 ISZERO PUSH2 0x11A2 JUMPI RETURNDATASIZE PUSH1 0x0 DUP1 RETURNDATACOPY RETURNDATASIZE PUSH1 0x0 REVERT JUMPDEST POP POP POP POP PUSH1 0x40 MLOAD RETURNDATASIZE PUSH1 0x1F NOT PUSH1 0x1F DUP3 ADD AND DUP3 ADD DUP1 PUSH1 0x40 MSTORE POP DUP2 ADD SWAP1 PUSH2 0x11C6 SWAP2 SWAP1 PUSH2 0x3500 JUMP JUMPDEST SWAP1 POP PUSH1 0x0 PUSH1 0x9 PUSH1 0x0 SWAP1 SLOAD SWAP1 PUSH2 0x100 EXP SWAP1 DIV PUSH20 0xFFFFFFFFFFFFFFFFFFFFFFFFFFFFFFFFFFFFFFFF AND PUSH20 0xFFFFFFFFFFFFFFFFFFFFFFFFFFFFFFFFFFFFFFFF AND PUSH4 0x852A12E3 PUSH1 0xD SLOAD PUSH1 0x40 MLOAD DUP3 PUSH4 0xFFFFFFFF AND PUSH1 0xE0 SHL DUP2 MSTORE PUSH1 0x4 ADD PUSH2 0x1227 SWAP2 SWAP1 PUSH2 0x2E53 JUMP JUMPDEST PUSH1 0x20 PUSH1 0x40 MLOAD DUP1 DUP4 SUB DUP2 PUSH1 0x0 DUP8 GAS CALL ISZERO DUP1 ISZERO PUSH2 0x1246 JUMPI RETURNDATASIZE PUSH1 0x0 DUP1 RETURNDATACOPY RETURNDATASIZE PUSH1 0x0 REVERT JUMPDEST POP POP POP POP PUSH1 0x40 MLOAD RETURNDATASIZE PUSH1 0x1F NOT PUSH1 0x1F DUP3 ADD AND DUP3 ADD DUP1 PUSH1 0x40 MSTORE POP DUP2 ADD SWAP1 PUSH2 0x126A SWAP2 SWAP1 PUSH2 0x3500 JUMP JUMPDEST SWAP1 POP PUSH1 0x0 DUP2 EQ PUSH2 0x12AF JUMPI PUSH1 0x40 MLOAD PUSH32 0x8C379A000000000000000000000000000000000000000000000000000000000 DUP2 MSTORE PUSH1 0x4 ADD PUSH2 0x12A6 SWAP1 PUSH2 0x380A JUMP JUMPDEST PUSH1 0x40 MLOAD DUP1 SWAP2 SUB SWAP1 REVERT JUMPDEST PUSH1 0x0 PUSH1 0xA PUSH1 0x0 SWAP1 SLOAD SWAP1 PUSH2 0x100 EXP SWAP1 DIV PUSH20 0xFFFFFFFFFFFFFFFFFFFFFFFFFFFFFFFFFFFFFFFF AND PUSH20 0xFFFFFFFFFFFFFFFFFFFFFFFFFFFFFFFFFFFFFFFF AND PUSH4 0x70A08231 ADDRESS PUSH1 0x40 MLOAD DUP3 PUSH4 0xFFFFFFFF AND PUSH1 0xE0 SHL DUP2 MSTORE PUSH1 0x4 ADD PUSH2 0x130C SWAP2 SWAP1 PUSH2 0x2DBD JUMP JUMPDEST PUSH1 0x20 PUSH1 0x40 MLOAD DUP1 DUP4 SUB DUP2 DUP7 GAS STATICCALL ISZERO DUP1 ISZERO PUSH2 0x1329 JUMPI RETURNDATASIZE PUSH1 0x0 DUP1 RETURNDATACOPY RETURNDATASIZE PUSH1 0x0 REVERT JUMPDEST POP POP POP POP PUSH1 0x40 MLOAD RETURNDATASIZE PUSH1 0x1F NOT PUSH1 0x1F DUP3 ADD AND DUP3 ADD DUP1 PUSH1 0x40 MSTORE POP DUP2 ADD SWAP1 PUSH2 0x134D SWAP2 SWAP1 PUSH2 0x3500 JUMP JUMPDEST SWAP1 POP PUSH1 0x0 PUSH2 0x1364 DUP3 DUP6 PUSH2 0x1F02 SWAP1 SWAP2 SWAP1 PUSH4 0xFFFFFFFF AND JUMP JUMPDEST SWAP1 POP PUSH2 0x1391 PUSH1 0xD SLOAD PUSH1 0xF PUSH1 0x0 DUP9 DUP2 MSTORE PUSH1 0x20 ADD SWAP1 DUP2 MSTORE PUSH1 0x20 ADD PUSH1 0x0 KECCAK256 PUSH1 0x1 ADD SLOAD PUSH2 0x1F02 SWAP1 SWAP2 SWAP1 PUSH4 0xFFFFFFFF AND JUMP JUMPDEST PUSH1 0xF PUSH1 0x0 DUP8 DUP2 MSTORE PUSH1 0x20 ADD SWAP1 DUP2 MSTORE PUSH1 0x20 ADD PUSH1 0x0 KECCAK256 PUSH1 0x1 ADD DUP2 SWAP1 SSTORE POP PUSH2 0x13D4 DUP2 PUSH1 0xF PUSH1 0x0 DUP9 DUP2 MSTORE PUSH1 0x20 ADD SWAP1 DUP2 MSTORE PUSH1 0x20 ADD PUSH1 0x0 KECCAK256 PUSH1 0x2 ADD SLOAD PUSH2 0x1F02 SWAP1 SWAP2 SWAP1 PUSH4 0xFFFFFFFF AND JUMP JUMPDEST PUSH1 0xF PUSH1 0x0 DUP8 DUP2 MSTORE PUSH1 0x20 ADD SWAP1 DUP2 MSTORE PUSH1 0x20 ADD PUSH1 0x0 KECCAK256 PUSH1 0x2 ADD DUP2 SWAP1 SSTORE POP PUSH2 0x1419 PUSH1 0xF PUSH1 0x0 DUP8 DUP2 MSTORE PUSH1 0x20 ADD SWAP1 DUP2 MSTORE PUSH1 0x20 ADD PUSH1 0x0 KECCAK256 PUSH1 0x2 ADD SLOAD PUSH1 0xE SLOAD PUSH2 0x233A SWAP1 SWAP2 SWAP1 PUSH4 0xFFFFFFFF AND JUMP JUMPDEST PUSH1 0xE DUP2 SWAP1 SSTORE POP PUSH1 0x8 PUSH1 0x0 SWAP1 SLOAD SWAP1 PUSH2 0x100 EXP SWAP1 DIV PUSH20 0xFFFFFFFFFFFFFFFFFFFFFFFFFFFFFFFFFFFFFFFF AND PUSH20 0xFFFFFFFFFFFFFFFFFFFFFFFFFFFFFFFFFFFFFFFF AND PUSH4 0xA9059CBB CALLER PUSH1 0xD SLOAD PUSH1 0x40 MLOAD DUP4 PUSH4 0xFFFFFFFF AND PUSH1 0xE0 SHL DUP2 MSTORE PUSH1 0x4 ADD PUSH2 0x147E SWAP3 SWAP2 SWAP1 PUSH2 0x34C2 JUMP JUMPDEST PUSH1 0x20 PUSH1 0x40 MLOAD DUP1 DUP4 SUB DUP2 PUSH1 0x0 DUP8 GAS CALL ISZERO DUP1 ISZERO PUSH2 0x149D JUMPI RETURNDATASIZE PUSH1 0x0 DUP1 RETURNDATACOPY RETURNDATASIZE PUSH1 0x0 REVERT JUMPDEST POP POP POP POP PUSH1 0x40 MLOAD RETURNDATASIZE PUSH1 0x1F NOT PUSH1 0x1F DUP3 ADD AND DUP3 ADD DUP1 PUSH1 0x40 MSTORE POP DUP2 ADD SWAP1 PUSH2 0x14C1 SWAP2 SWAP1 PUSH2 0x3495 JUMP JUMPDEST POP PUSH2 0x14CB DUP6 PUSH2 0x2350 JUMP JUMPDEST PUSH32 0x8F0A80450BFBFADC6D05658C9DC494E43BEB79BE53B44ADBB146C6D5040F8770 DUP6 CALLER PUSH1 0x40 MLOAD PUSH2 0x14FC SWAP3 SWAP2 SWAP1 PUSH2 0x3599 JUMP JUMPDEST PUSH1 0x40 MLOAD DUP1 SWAP2 SUB SWAP1 LOG1 POP POP POP POP POP JUMP JUMPDEST PUSH1 0xD SLOAD DUP2 JUMP JUMPDEST PUSH2 0x152C DUP4 DUP4 DUP4 PUSH1 0x40 MLOAD DUP1 PUSH1 0x20 ADD PUSH1 0x40 MSTORE DUP1 PUSH1 0x0 DUP2 MSTORE POP PUSH2 0x1934 JUMP JUMPDEST POP POP POP JUMP JUMPDEST PUSH1 0xA PUSH1 0x0 SWAP1 SLOAD SWAP1 PUSH2 0x100 EXP SWAP1 DIV PUSH20 0xFFFFFFFFFFFFFFFFFFFFFFFFFFFFFFFFFFFFFFFF AND DUP2 JUMP JUMPDEST PUSH1 0x0 PUSH2 0x1563 PUSH1 0x7 PUSH2 0x1CD7 JUMP JUMPDEST SWAP1 POP SWAP1 JUMP JUMPDEST PUSH2 0x1570 PUSH2 0x1F2E JUMP JUMPDEST PUSH1 0x0 PUSH1 0xE SLOAD GT PUSH2 0x15B5 JUMPI PUSH1 0x40 MLOAD PUSH32 0x8C379A000000000000000000000000000000000000000000000000000000000 DUP2 MSTORE PUSH1 0x4 ADD PUSH2 0x15AC SWAP1 PUSH2 0x3634 JUMP JUMPDEST PUSH1 0x40 MLOAD DUP1 SWAP2 SUB SWAP1 REVERT JUMPDEST PUSH1 0xA PUSH1 0x0 SWAP1 SLOAD SWAP1 PUSH2 0x100 EXP SWAP1 DIV PUSH20 0xFFFFFFFFFFFFFFFFFFFFFFFFFFFFFFFFFFFFFFFF AND PUSH20 0xFFFFFFFFFFFFFFFFFFFFFFFFFFFFFFFFFFFFFFFF AND PUSH4 0xA9059CBB PUSH2 0x15FB PUSH2 0x17EC JUMP JUMPDEST PUSH1 0xE SLOAD PUSH1 0x40 MLOAD DUP4 PUSH4 0xFFFFFFFF AND PUSH1 0xE0 SHL DUP2 MSTORE PUSH1 0x4 ADD PUSH2 0x161B SWAP3 SWAP2 SWAP1 PUSH2 0x34C2 JUMP JUMPDEST PUSH1 0x20 PUSH1 0x40 MLOAD DUP1 DUP4 SUB DUP2 PUSH1 0x0 DUP8 GAS CALL ISZERO DUP1 ISZERO PUSH2 0x163A JUMPI RETURNDATASIZE PUSH1 0x0 DUP1 RETURNDATACOPY RETURNDATASIZE PUSH1 0x0 REVERT JUMPDEST POP POP POP POP PUSH1 0x40 MLOAD RETURNDATASIZE PUSH1 0x1F NOT PUSH1 0x1F DUP3 ADD AND DUP3 ADD DUP1 PUSH1 0x40 MSTORE POP DUP2 ADD SWAP1 PUSH2 0x165E SWAP2 SWAP1 PUSH2 0x3495 JUMP JUMPDEST POP PUSH1 0x0 PUSH1 0xE DUP2 SWAP1 SSTORE POP JUMP JUMPDEST PUSH1 0xC PUSH1 0x0 SWAP1 SLOAD SWAP1 PUSH2 0x100 EXP SWAP1 DIV PUSH20 0xFFFFFFFFFFFFFFFFFFFFFFFFFFFFFFFFFFFFFFFF AND DUP2 JUMP JUMPDEST PUSH1 0x0 DUP1 PUSH2 0x169B DUP4 PUSH2 0x249E JUMP JUMPDEST SWAP1 POP PUSH1 0x0 PUSH20 0xFFFFFFFFFFFFFFFFFFFFFFFFFFFFFFFFFFFFFFFF AND DUP2 PUSH20 0xFFFFFFFFFFFFFFFFFFFFFFFFFFFFFFFFFFFFFFFF AND SUB PUSH2 0x170C JUMPI PUSH1 0x40 MLOAD PUSH32 0x8C379A000000000000000000000000000000000000000000000000000000000 DUP2 MSTORE PUSH1 0x4 ADD PUSH2 0x1703 SWAP1 PUSH2 0x3876 JUMP JUMPDEST PUSH1 0x40 MLOAD DUP1 SWAP2 SUB SWAP1 REVERT JUMPDEST DUP1 SWAP2 POP POP SWAP2 SWAP1 POP JUMP JUMPDEST PUSH1 0x0 DUP1 PUSH20 0xFFFFFFFFFFFFFFFFFFFFFFFFFFFFFFFFFFFFFFFF AND DUP3 PUSH20 0xFFFFFFFFFFFFFFFFFFFFFFFFFFFFFFFFFFFFFFFF AND SUB PUSH2 0x1785 JUMPI PUSH1 0x40 MLOAD PUSH32 0x8C379A000000000000000000000000000000000000000000000000000000000 DUP2 MSTORE PUSH1 0x4 ADD PUSH2 0x177C SWAP1 PUSH2 0x3908 JUMP JUMPDEST PUSH1 0x40 MLOAD DUP1 SWAP2 SUB SWAP1 REVERT JUMPDEST PUSH1 0x3 PUSH1 0x0 DUP4 PUSH20 0xFFFFFFFFFFFFFFFFFFFFFFFFFFFFFFFFFFFFFFFF AND PUSH20 0xFFFFFFFFFFFFFFFFFFFFFFFFFFFFFFFFFFFFFFFF AND DUP2 MSTORE PUSH1 0x20 ADD SWAP1 DUP2 MSTORE PUSH1 0x20 ADD PUSH1 0x0 KECCAK256 SLOAD SWAP1 POP SWAP2 SWAP1 POP JUMP JUMPDEST PUSH2 0x17D4 PUSH2 0x1F2E JUMP JUMPDEST PUSH2 0x17DE PUSH1 0x0 PUSH2 0x24DB JUMP JUMPDEST JUMP JUMPDEST PUSH1 0x7 DUP1 PUSH1 0x0 ADD SLOAD SWAP1 POP DUP2 JUMP JUMPDEST PUSH1 0x0 PUSH1 0x6 PUSH1 0x0 SWAP1 SLOAD SWAP1 PUSH2 0x100 EXP SWAP1 DIV PUSH20 0xFFFFFFFFFFFFFFFFFFFFFFFFFFFFFFFFFFFFFFFF AND SWAP1 POP SWAP1 JUMP JUMPDEST PUSH1 0x60 PUSH1 0x1 DUP1 SLOAD PUSH2 0x1825 SWAP1 PUSH2 0x32F4 JUMP JUMPDEST DUP1 PUSH1 0x1F ADD PUSH1 0x20 DUP1 SWAP2 DIV MUL PUSH1 0x20 ADD PUSH1 0x40 MLOAD SWAP1 DUP2 ADD PUSH1 0x40 MSTORE DUP1 SWAP3 SWAP2 SWAP1 DUP2 DUP2 MSTORE PUSH1 0x20 ADD DUP3 DUP1 SLOAD PUSH2 0x1851 SWAP1 PUSH2 0x32F4 JUMP JUMPDEST DUP1 ISZERO PUSH2 0x189E JUMPI DUP1 PUSH1 0x1F LT PUSH2 0x1873 JUMPI PUSH2 0x100 DUP1 DUP4 SLOAD DIV MUL DUP4 MSTORE SWAP2 PUSH1 0x20 ADD SWAP2 PUSH2 0x189E JUMP JUMPDEST DUP3 ADD SWAP2 SWAP1 PUSH1 0x0 MSTORE PUSH1 0x20 PUSH1 0x0 KECCAK256 SWAP1 JUMPDEST DUP2 SLOAD DUP2 MSTORE SWAP1 PUSH1 0x1 ADD SWAP1 PUSH1 0x20 ADD DUP1 DUP4 GT PUSH2 0x1881 JUMPI DUP3 SWAP1 SUB PUSH1 0x1F AND DUP3 ADD SWAP2 JUMPDEST POP POP POP POP POP SWAP1 POP SWAP1 JUMP JUMPDEST PUSH1 0xB PUSH1 0x0 SWAP1 SLOAD SWAP1 PUSH2 0x100 EXP SWAP1 DIV PUSH20 0xFFFFFFFFFFFFFFFFFFFFFFFFFFFFFFFFFFFFFFFF AND DUP2 JUMP JUMPDEST PUSH2 0x18E0 PUSH2 0x18D9 PUSH2 0x1C16 JUMP JUMPDEST DUP4 DUP4 PUSH2 0x25A1 JUMP JUMPDEST POP POP JUMP JUMPDEST PUSH1 0xF PUSH1 0x20 MSTORE DUP1 PUSH1 0x0 MSTORE PUSH1 0x40 PUSH1 0x0 KECCAK256 PUSH1 0x0 SWAP2 POP SWAP1 POP DUP1 PUSH1 0x0 ADD SLOAD SWAP1 DUP1 PUSH1 0x1 ADD SLOAD SWAP1 DUP1 PUSH1 0x2 ADD SLOAD SWAP1 DUP1 PUSH1 0x3 ADD PUSH1 0x0 SWAP1 SLOAD SWAP1 PUSH2 0x100 EXP SWAP1 DIV PUSH20 0xFFFFFFFFFFFFFFFFFFFFFFFFFFFFFFFFFFFFFFFF AND SWAP1 POP DUP5 JUMP JUMPDEST PUSH2 0x1945 PUSH2 0x193F PUSH2 0x1C16 JUMP JUMPDEST DUP4 PUSH2 0x1FAC JUMP JUMPDEST PUSH2 0x1984 JUMPI PUSH1 0x40 MLOAD PUSH32 0x8C379A000000000000000000000000000000000000000000000000000000000 DUP2 MSTORE PUSH1 0x4 ADD PUSH2 0x197B SWAP1 PUSH2 0x36C6 JUMP JUMPDEST PUSH1 0x40 MLOAD DUP1 SWAP2 SUB SWAP1 REVERT JUMPDEST PUSH2 0x1990 DUP5 DUP5 DUP5 DUP5 PUSH2 0x270D JUMP JUMPDEST POP POP POP POP JUMP JUMPDEST PUSH1 0x9 PUSH1 0x0 SWAP1 SLOAD SWAP1 PUSH2 0x100 EXP SWAP1 DIV PUSH20 0xFFFFFFFFFFFFFFFFFFFFFFFFFFFFFFFFFFFFFFFF AND DUP2 JUMP JUMPDEST PUSH1 0x8 PUSH1 0x0 SWAP1 SLOAD SWAP1 PUSH2 0x100 EXP SWAP1 DIV PUSH20 0xFFFFFFFFFFFFFFFFFFFFFFFFFFFFFFFFFFFFFFFF AND DUP2 JUMP JUMPDEST PUSH1 0x60 PUSH2 0x19ED DUP3 PUSH2 0x1BCB JUMP JUMPDEST PUSH1 0x0 PUSH2 0x19F7 PUSH2 0x2769 JUMP JUMPDEST SWAP1 POP PUSH1 0x0 DUP2 MLOAD GT PUSH2 0x1A17 JUMPI PUSH1 0x40 MLOAD DUP1 PUSH1 0x20 ADD PUSH1 0x40 MSTORE DUP1 PUSH1 0x0 DUP2 MSTORE POP PUSH2 0x1A42 JUMP JUMPDEST DUP1 PUSH2 0x1A21 DUP5 PUSH2 0x2780 JUMP JUMPDEST PUSH1 0x40 MLOAD PUSH1 0x20 ADD PUSH2 0x1A32 SWAP3 SWAP2 SWAP1 PUSH2 0x3964 JUMP JUMPDEST PUSH1 0x40 MLOAD PUSH1 0x20 DUP2 DUP4 SUB SUB DUP2 MSTORE SWAP1 PUSH1 0x40 MSTORE JUMPDEST SWAP2 POP POP SWAP2 SWAP1 POP JUMP JUMPDEST PUSH1 0x0 PUSH1 0x5 PUSH1 0x0 DUP5 PUSH20 0xFFFFFFFFFFFFFFFFFFFFFFFFFFFFFFFFFFFFFFFF AND PUSH20 0xFFFFFFFFFFFFFFFFFFFFFFFFFFFFFFFFFFFFFFFF AND DUP2 MSTORE PUSH1 0x20 ADD SWAP1 DUP2 MSTORE PUSH1 0x20 ADD PUSH1 0x0 KECCAK256 PUSH1 0x0 DUP4 PUSH20 0xFFFFFFFFFFFFFFFFFFFFFFFFFFFFFFFFFFFFFFFF AND PUSH20 0xFFFFFFFFFFFFFFFFFFFFFFFFFFFFFFFFFFFFFFFF AND DUP2 MSTORE PUSH1 0x20 ADD SWAP1 DUP2 MSTORE PUSH1 0x20 ADD PUSH1 0x0 KECCAK256 PUSH1 0x0 SWAP1 SLOAD SWAP1 PUSH2 0x100 EXP SWAP1 DIV PUSH1 0xFF AND SWAP1 POP SWAP3 SWAP2 POP POP JUMP JUMPDEST PUSH2 0x1AE6 PUSH2 0x1F2E JUMP JUMPDEST PUSH1 0x0 PUSH20 0xFFFFFFFFFFFFFFFFFFFFFFFFFFFFFFFFFFFFFFFF AND DUP2 PUSH20 0xFFFFFFFFFFFFFFFFFFFFFFFFFFFFFFFFFFFFFFFF AND SUB PUSH2 0x1B55 JUMPI PUSH1 0x40 MLOAD PUSH32 0x8C379A000000000000000000000000000000000000000000000000000000000 DUP2 MSTORE PUSH1 0x4 ADD PUSH2 0x1B4C SWAP1 PUSH2 0x39FA JUMP JUMPDEST PUSH1 0x40 MLOAD DUP1 SWAP2 SUB SWAP1 REVERT JUMPDEST PUSH2 0x1B5E DUP2 PUSH2 0x24DB JUMP JUMPDEST POP JUMP JUMPDEST PUSH1 0x0 PUSH32 0x1FFC9A700000000000000000000000000000000000000000000000000000000 PUSH28 0xFFFFFFFFFFFFFFFFFFFFFFFFFFFFFFFFFFFFFFFFFFFFFFFFFFFFFFFF NOT AND DUP3 PUSH28 0xFFFFFFFFFFFFFFFFFFFFFFFFFFFFFFFFFFFFFFFFFFFFFFFFFFFFFFFF NOT AND EQ SWAP1 POP SWAP2 SWAP1 POP JUMP JUMPDEST PUSH2 0x1BD4 DUP2 PUSH2 0x284E JUMP JUMPDEST PUSH2 0x1C13 JUMPI PUSH1 0x40 MLOAD PUSH32 0x8C379A000000000000000000000000000000000000000000000000000000000 DUP2 MSTORE PUSH1 0x4 ADD PUSH2 0x1C0A SWAP1 PUSH2 0x3876 JUMP JUMPDEST PUSH1 0x40 MLOAD DUP1 SWAP2 SUB SWAP1 REVERT JUMPDEST POP JUMP JUMPDEST PUSH1 0x0 CALLER SWAP1 POP SWAP1 JUMP JUMPDEST DUP2 PUSH1 0x4 PUSH1 0x0 DUP4 DUP2 MSTORE PUSH1 0x20 ADD SWAP1 DUP2 MSTORE PUSH1 0x20 ADD PUSH1 0x0 KECCAK256 PUSH1 0x0 PUSH2 0x100 EXP DUP2 SLOAD DUP2 PUSH20 0xFFFFFFFFFFFFFFFFFFFFFFFFFFFFFFFFFFFFFFFF MUL NOT AND SWAP1 DUP4 PUSH20 0xFFFFFFFFFFFFFFFFFFFFFFFFFFFFFFFFFFFFFFFF AND MUL OR SWAP1 SSTORE POP DUP1 DUP3 PUSH20 0xFFFFFFFFFFFFFFFFFFFFFFFFFFFFFFFFFFFFFFFF AND PUSH2 0x1C91 DUP4 PUSH2 0x168F JUMP JUMPDEST PUSH20 0xFFFFFFFFFFFFFFFFFFFFFFFFFFFFFFFFFFFFFFFF AND PUSH32 0x8C5BE1E5EBEC7D5BD14F71427D1E84F3DD0314C0F7B2291E5B200AC8C7C3B925 PUSH1 0x40 MLOAD PUSH1 0x40 MLOAD DUP1 SWAP2 SUB SWAP1 LOG4 POP POP JUMP JUMPDEST PUSH1 0x0 DUP2 PUSH1 0x0 ADD SLOAD SWAP1 POP SWAP2 SWAP1 POP JUMP JUMPDEST PUSH1 0x0 PUSH20 0xFFFFFFFFFFFFFFFFFFFFFFFFFFFFFFFFFFFFFFFF AND DUP3 PUSH20 0xFFFFFFFFFFFFFFFFFFFFFFFFFFFFFFFFFFFFFFFF AND SUB PUSH2 0x1D54 JUMPI PUSH1 0x40 MLOAD PUSH32 0x8C379A000000000000000000000000000000000000000000000000000000000 DUP2 MSTORE PUSH1 0x4 ADD PUSH2 0x1D4B SWAP1 PUSH2 0x3A66 JUMP JUMPDEST PUSH1 0x40 MLOAD DUP1 SWAP2 SUB SWAP1 REVERT JUMPDEST PUSH2 0x1D5D DUP2 PUSH2 0x284E JUMP JUMPDEST ISZERO PUSH2 0x1D9D JUMPI PUSH1 0x40 MLOAD PUSH32 0x8C379A000000000000000000000000000000000000000000000000000000000 DUP2 MSTORE PUSH1 0x4 ADD PUSH2 0x1D94 SWAP1 PUSH2 0x3AD2 JUMP JUMPDEST PUSH1 0x40 MLOAD DUP1 SWAP2 SUB SWAP1 REVERT JUMPDEST PUSH2 0x1DAB PUSH1 0x0 DUP4 DUP4 PUSH1 0x1 PUSH2 0x288F JUMP JUMPDEST PUSH2 0x1DB4 DUP2 PUSH2 0x284E JUMP JUMPDEST ISZERO PUSH2 0x1DF4 JUMPI PUSH1 0x40 MLOAD PUSH32 0x8C379A000000000000000000000000000000000000000000000000000000000 DUP2 MSTORE PUSH1 0x4 ADD PUSH2 0x1DEB SWAP1 PUSH2 0x3AD2 JUMP JUMPDEST PUSH1 0x40 MLOAD DUP1 SWAP2 SUB SWAP1 REVERT JUMPDEST PUSH1 0x1 PUSH1 0x3 PUSH1 0x0 DUP5 PUSH20 0xFFFFFFFFFFFFFFFFFFFFFFFFFFFFFFFFFFFFFFFF AND PUSH20 0xFFFFFFFFFFFFFFFFFFFFFFFFFFFFFFFFFFFFFFFF AND DUP2 MSTORE PUSH1 0x20 ADD SWAP1 DUP2 MSTORE PUSH1 0x20 ADD PUSH1 0x0 KECCAK256 PUSH1 0x0 DUP3 DUP3 SLOAD ADD SWAP3 POP POP DUP2 SWAP1 SSTORE POP DUP2 PUSH1 0x2 PUSH1 0x0 DUP4 DUP2 MSTORE PUSH1 0x20 ADD SWAP1 DUP2 MSTORE PUSH1 0x20 ADD PUSH1 0x0 KECCAK256 PUSH1 0x0 PUSH2 0x100 EXP DUP2 SLOAD DUP2 PUSH20 0xFFFFFFFFFFFFFFFFFFFFFFFFFFFFFFFFFFFFFFFF MUL NOT AND SWAP1 DUP4 PUSH20 0xFFFFFFFFFFFFFFFFFFFFFFFFFFFFFFFFFFFFFFFF AND MUL OR SWAP1 SSTORE POP DUP1 DUP3 PUSH20 0xFFFFFFFFFFFFFFFFFFFFFFFFFFFFFFFFFFFFFFFF AND PUSH1 0x0 PUSH20 0xFFFFFFFFFFFFFFFFFFFFFFFFFFFFFFFFFFFFFFFF AND PUSH32 0xDDF252AD1BE2C89B69C2B068FC378DAA952BA7F163C4A11628F55A4DF523B3EF PUSH1 0x40 MLOAD PUSH1 0x40 MLOAD DUP1 SWAP2 SUB SWAP1 LOG4 PUSH2 0x1EFE PUSH1 0x0 DUP4 DUP4 PUSH1 0x1 PUSH2 0x2895 JUMP JUMPDEST POP POP JUMP JUMPDEST PUSH1 0x0 DUP2 DUP4 PUSH2 0x1F10 SWAP2 SWAP1 PUSH2 0x3B21 JUMP JUMPDEST SWAP1 POP SWAP3 SWAP2 POP POP JUMP JUMPDEST PUSH1 0x1 DUP2 PUSH1 0x0 ADD PUSH1 0x0 DUP3 DUP3 SLOAD ADD SWAP3 POP POP DUP2 SWAP1 SSTORE POP POP JUMP JUMPDEST PUSH2 0x1F36 PUSH2 0x1C16 JUMP JUMPDEST PUSH20 0xFFFFFFFFFFFFFFFFFFFFFFFFFFFFFFFFFFFFFFFF AND PUSH2 0x1F54 PUSH2 0x17EC JUMP JUMPDEST PUSH20 0xFFFFFFFFFFFFFFFFFFFFFFFFFFFFFFFFFFFFFFFF AND EQ PUSH2 0x1FAA JUMPI PUSH1 0x40 MLOAD PUSH32 0x8C379A000000000000000000000000000000000000000000000000000000000 DUP2 MSTORE PUSH1 0x4 ADD PUSH2 0x1FA1 SWAP1 PUSH2 0x3BA1 JUMP JUMPDEST PUSH1 0x40 MLOAD DUP1 SWAP2 SUB SWAP1 REVERT JUMPDEST JUMP JUMPDEST PUSH1 0x0 DUP1 PUSH2 0x1FB8 DUP4 PUSH2 0x168F JUMP JUMPDEST SWAP1 POP DUP1 PUSH20 0xFFFFFFFFFFFFFFFFFFFFFFFFFFFFFFFFFFFFFFFF AND DUP5 PUSH20 0xFFFFFFFFFFFFFFFFFFFFFFFFFFFFFFFFFFFFFFFF AND EQ DUP1 PUSH2 0x1FFA JUMPI POP PUSH2 0x1FF9 DUP2 DUP6 PUSH2 0x1A4A JUMP JUMPDEST JUMPDEST DUP1 PUSH2 0x2038 JUMPI POP DUP4 PUSH20 0xFFFFFFFFFFFFFFFFFFFFFFFFFFFFFFFFFFFFFFFF AND PUSH2 0x2020 DUP5 PUSH2 0x6FA JUMP JUMPDEST PUSH20 0xFFFFFFFFFFFFFFFFFFFFFFFFFFFFFFFFFFFFFFFF AND EQ JUMPDEST SWAP2 POP POP SWAP3 SWAP2 POP POP JUMP JUMPDEST DUP3 PUSH20 0xFFFFFFFFFFFFFFFFFFFFFFFFFFFFFFFFFFFFFFFF AND PUSH2 0x2061 DUP3 PUSH2 0x168F JUMP JUMPDEST PUSH20 0xFFFFFFFFFFFFFFFFFFFFFFFFFFFFFFFFFFFFFFFF AND EQ PUSH2 0x20B7 JUMPI PUSH1 0x40 MLOAD PUSH32 0x8C379A000000000000000000000000000000000000000000000000000000000 DUP2 MSTORE PUSH1 0x4 ADD PUSH2 0x20AE SWAP1 PUSH2 0x3C33 JUMP JUMPDEST PUSH1 0x40 MLOAD DUP1 SWAP2 SUB SWAP1 REVERT JUMPDEST PUSH1 0x0 PUSH20 0xFFFFFFFFFFFFFFFFFFFFFFFFFFFFFFFFFFFFFFFF AND DUP3 PUSH20 0xFFFFFFFFFFFFFFFFFFFFFFFFFFFFFFFFFFFFFFFF AND SUB PUSH2 0x2126 JUMPI PUSH1 0x40 MLOAD PUSH32 0x8C379A000000000000000000000000000000000000000000000000000000000 DUP2 MSTORE PUSH1 0x4 ADD PUSH2 0x211D SWAP1 PUSH2 0x3CC5 JUMP JUMPDEST PUSH1 0x40 MLOAD DUP1 SWAP2 SUB SWAP1 REVERT JUMPDEST PUSH2 0x2133 DUP4 DUP4 DUP4 PUSH1 0x1 PUSH2 0x288F JUMP JUMPDEST DUP3 PUSH20 0xFFFFFFFFFFFFFFFFFFFFFFFFFFFFFFFFFFFFFFFF AND PUSH2 0x2153 DUP3 PUSH2 0x168F JUMP JUMPDEST PUSH20 0xFFFFFFFFFFFFFFFFFFFFFFFFFFFFFFFFFFFFFFFF AND EQ PUSH2 0x21A9 JUMPI PUSH1 0x40 MLOAD PUSH32 0x8C379A000000000000000000000000000000000000000000000000000000000 DUP2 MSTORE PUSH1 0x4 ADD PUSH2 0x21A0 SWAP1 PUSH2 0x3C33 JUMP JUMPDEST PUSH1 0x40 MLOAD DUP1 SWAP2 SUB SWAP1 REVERT JUMPDEST PUSH1 0x4 PUSH1 0x0 DUP3 DUP2 MSTORE PUSH1 0x20 ADD SWAP1 DUP2 MSTORE PUSH1 0x20 ADD PUSH1 0x0 KECCAK256 PUSH1 0x0 PUSH2 0x100 EXP DUP2 SLOAD SWAP1 PUSH20 0xFFFFFFFFFFFFFFFFFFFFFFFFFFFFFFFFFFFFFFFF MUL NOT AND SWAP1 SSTORE PUSH1 0x1 PUSH1 0x3 PUSH1 0x0 DUP6 PUSH20 0xFFFFFFFFFFFFFFFFFFFFFFFFFFFFFFFFFFFFFFFF AND PUSH20 0xFFFFFFFFFFFFFFFFFFFFFFFFFFFFFFFFFFFFFFFF AND DUP2 MSTORE PUSH1 0x20 ADD SWAP1 DUP2 MSTORE PUSH1 0x20 ADD PUSH1 0x0 KECCAK256 PUSH1 0x0 DUP3 DUP3 SLOAD SUB SWAP3 POP POP DUP2 SWAP1 SSTORE POP PUSH1 0x1 PUSH1 0x3 PUSH1 0x0 DUP5 PUSH20 0xFFFFFFFFFFFFFFFFFFFFFFFFFFFFFFFFFFFFFFFF AND PUSH20 0xFFFFFFFFFFFFFFFFFFFFFFFFFFFFFFFFFFFFFFFF AND DUP2 MSTORE PUSH1 0x20 ADD SWAP1 DUP2 MSTORE PUSH1 0x20 ADD PUSH1 0x0 KECCAK256 PUSH1 0x0 DUP3 DUP3 SLOAD ADD SWAP3 POP POP DUP2 SWAP1 SSTORE POP DUP2 PUSH1 0x2 PUSH1 0x0 DUP4 DUP2 MSTORE PUSH1 0x20 ADD SWAP1 DUP2 MSTORE PUSH1 0x20 ADD PUSH1 0x0 KECCAK256 PUSH1 0x0 PUSH2 0x100 EXP DUP2 SLOAD DUP2 PUSH20 0xFFFFFFFFFFFFFFFFFFFFFFFFFFFFFFFFFFFFFFFF MUL NOT AND SWAP1 DUP4 PUSH20 0xFFFFFFFFFFFFFFFFFFFFFFFFFFFFFFFFFFFFFFFF AND MUL OR SWAP1 SSTORE POP DUP1 DUP3 PUSH20 0xFFFFFFFFFFFFFFFFFFFFFFFFFFFFFFFFFFFFFFFF AND DUP5 PUSH20 0xFFFFFFFFFFFFFFFFFFFFFFFFFFFFFFFFFFFFFFFF AND PUSH32 0xDDF252AD1BE2C89B69C2B068FC378DAA952BA7F163C4A11628F55A4DF523B3EF PUSH1 0x40 MLOAD PUSH1 0x40 MLOAD DUP1 SWAP2 SUB SWAP1 LOG4 PUSH2 0x2335 DUP4 DUP4 DUP4 PUSH1 0x1 PUSH2 0x2895 JUMP JUMPDEST POP POP POP JUMP JUMPDEST PUSH1 0x0 DUP2 DUP4 PUSH2 0x2348 SWAP2 SWAP1 PUSH2 0x3CE5 JUMP JUMPDEST SWAP1 POP SWAP3 SWAP2 POP POP JUMP JUMPDEST PUSH1 0x0 PUSH2 0x235B DUP3 PUSH2 0x168F JUMP JUMPDEST SWAP1 POP PUSH2 0x236B DUP2 PUSH1 0x0 DUP5 PUSH1 0x1 PUSH2 0x288F JUMP JUMPDEST PUSH2 0x2374 DUP3 PUSH2 0x168F JUMP JUMPDEST SWAP1 POP PUSH1 0x4 PUSH1 0x0 DUP4 DUP2 MSTORE PUSH1 0x20 ADD SWAP1 DUP2 MSTORE PUSH1 0x20 ADD PUSH1 0x0 KECCAK256 PUSH1 0x0 PUSH2 0x100 EXP DUP2 SLOAD SWAP1 PUSH20 0xFFFFFFFFFFFFFFFFFFFFFFFFFFFFFFFFFFFFFFFF MUL NOT AND SWAP1 SSTORE PUSH1 0x1 PUSH1 0x3 PUSH1 0x0 DUP4 PUSH20 0xFFFFFFFFFFFFFFFFFFFFFFFFFFFFFFFFFFFFFFFF AND PUSH20 0xFFFFFFFFFFFFFFFFFFFFFFFFFFFFFFFFFFFFFFFF AND DUP2 MSTORE PUSH1 0x20 ADD SWAP1 DUP2 MSTORE PUSH1 0x20 ADD PUSH1 0x0 KECCAK256 PUSH1 0x0 DUP3 DUP3 SLOAD SUB SWAP3 POP POP DUP2 SWAP1 SSTORE POP PUSH1 0x2 PUSH1 0x0 DUP4 DUP2 MSTORE PUSH1 0x20 ADD SWAP1 DUP2 MSTORE PUSH1 0x20 ADD PUSH1 0x0 KECCAK256 PUSH1 0x0 PUSH2 0x100 EXP DUP2 SLOAD SWAP1 PUSH20 0xFFFFFFFFFFFFFFFFFFFFFFFFFFFFFFFFFFFFFFFF MUL NOT AND SWAP1 SSTORE DUP2 PUSH1 0x0 PUSH20 0xFFFFFFFFFFFFFFFFFFFFFFFFFFFFFFFFFFFFFFFF AND DUP3 PUSH20 0xFFFFFFFFFFFFFFFFFFFFFFFFFFFFFFFFFFFFFFFF AND PUSH32 0xDDF252AD1BE2C89B69C2B068FC378DAA952BA7F163C4A11628F55A4DF523B3EF PUSH1 0x40 MLOAD PUSH1 0x40 MLOAD DUP1 SWAP2 SUB SWAP1 LOG4 PUSH2 0x249A DUP2 PUSH1 0x0 DUP5 PUSH1 0x1 PUSH2 0x2895 JUMP JUMPDEST POP POP JUMP JUMPDEST PUSH1 0x0 PUSH1 0x2 PUSH1 0x0 DUP4 DUP2 MSTORE PUSH1 0x20 ADD SWAP1 DUP2 MSTORE PUSH1 0x20 ADD PUSH1 0x0 KECCAK256 PUSH1 0x0 SWAP1 SLOAD SWAP1 PUSH2 0x100 EXP SWAP1 DIV PUSH20 0xFFFFFFFFFFFFFFFFFFFFFFFFFFFFFFFFFFFFFFFF AND SWAP1 POP SWAP2 SWAP1 POP JUMP JUMPDEST PUSH1 0x0 PUSH1 0x6 PUSH1 0x0 SWAP1 SLOAD SWAP1 PUSH2 0x100 EXP SWAP1 DIV PUSH20 0xFFFFFFFFFFFFFFFFFFFFFFFFFFFFFFFFFFFFFFFF AND SWAP1 POP DUP2 PUSH1 0x6 PUSH1 0x0 PUSH2 0x100 EXP DUP2 SLOAD DUP2 PUSH20 0xFFFFFFFFFFFFFFFFFFFFFFFFFFFFFFFFFFFFFFFF MUL NOT AND SWAP1 DUP4 PUSH20 0xFFFFFFFFFFFFFFFFFFFFFFFFFFFFFFFFFFFFFFFF AND MUL OR SWAP1 SSTORE POP DUP2 PUSH20 0xFFFFFFFFFFFFFFFFFFFFFFFFFFFFFFFFFFFFFFFF AND DUP2 PUSH20 0xFFFFFFFFFFFFFFFFFFFFFFFFFFFFFFFFFFFFFFFF AND PUSH32 0x8BE0079C531659141344CD1FD0A4F28419497F9722A3DAAFE3B4186F6B6457E0 PUSH1 0x40 MLOAD PUSH1 0x40 MLOAD DUP1 SWAP2 SUB SWAP1 LOG3 POP POP JUMP JUMPDEST DUP2 PUSH20 0xFFFFFFFFFFFFFFFFFFFFFFFFFFFFFFFFFFFFFFFF AND DUP4 PUSH20 0xFFFFFFFFFFFFFFFFFFFFFFFFFFFFFFFFFFFFFFFF AND SUB PUSH2 0x260F JUMPI PUSH1 0x40 MLOAD PUSH32 0x8C379A000000000000000000000000000000000000000000000000000000000 DUP2 MSTORE PUSH1 0x4 ADD PUSH2 0x2606 SWAP1 PUSH2 0x3D65 JUMP JUMPDEST PUSH1 0x40 MLOAD DUP1 SWAP2 SUB SWAP1 REVERT JUMPDEST DUP1 PUSH1 0x5 PUSH1 0x0 DUP6 PUSH20 0xFFFFFFFFFFFFFFFFFFFFFFFFFFFFFFFFFFFFFFFF AND PUSH20 0xFFFFFFFFFFFFFFFFFFFFFFFFFFFFFFFFFFFFFFFF AND DUP2 MSTORE PUSH1 0x20 ADD SWAP1 DUP2 MSTORE PUSH1 0x20 ADD PUSH1 0x0 KECCAK256 PUSH1 0x0 DUP5 PUSH20 0xFFFFFFFFFFFFFFFFFFFFFFFFFFFFFFFFFFFFFFFF AND PUSH20 0xFFFFFFFFFFFFFFFFFFFFFFFFFFFFFFFFFFFFFFFF AND DUP2 MSTORE PUSH1 0x20 ADD SWAP1 DUP2 MSTORE PUSH1 0x20 ADD PUSH1 0x0 KECCAK256 PUSH1 0x0 PUSH2 0x100 EXP DUP2 SLOAD DUP2 PUSH1 0xFF MUL NOT AND SWAP1 DUP4 ISZERO ISZERO MUL OR SWAP1 SSTORE POP DUP2 PUSH20 0xFFFFFFFFFFFFFFFFFFFFFFFFFFFFFFFFFFFFFFFF AND DUP4 PUSH20 0xFFFFFFFFFFFFFFFFFFFFFFFFFFFFFFFFFFFFFFFF AND PUSH32 0x17307EAB39AB6107E8899845AD3D59BD9653F200F220920489CA2B5937696C31 DUP4 PUSH1 0x40 MLOAD PUSH2 0x2700 SWAP2 SWAP1 PUSH2 0x2C4C JUMP JUMPDEST PUSH1 0x40 MLOAD DUP1 SWAP2 SUB SWAP1 LOG3 POP POP POP JUMP JUMPDEST PUSH2 0x2718 DUP5 DUP5 DUP5 PUSH2 0x2041 JUMP JUMPDEST PUSH2 0x2724 DUP5 DUP5 DUP5 DUP5 PUSH2 0x289B JUMP JUMPDEST PUSH2 0x2763 JUMPI PUSH1 0x40 MLOAD PUSH32 0x8C379A000000000000000000000000000000000000000000000000000000000 DUP2 MSTORE PUSH1 0x4 ADD PUSH2 0x275A SWAP1 PUSH2 0x3DF7 JUMP JUMPDEST PUSH1 0x40 MLOAD DUP1 SWAP2 SUB SWAP1 REVERT JUMPDEST POP POP POP POP JUMP JUMPDEST PUSH1 0x60 PUSH1 0x40 MLOAD DUP1 PUSH1 0x20 ADD PUSH1 0x40 MSTORE DUP1 PUSH1 0x0 DUP2 MSTORE POP SWAP1 POP SWAP1 JUMP JUMPDEST PUSH1 0x60 PUSH1 0x0 PUSH1 0x1 PUSH2 0x278F DUP5 PUSH2 0x2A22 JUMP JUMPDEST ADD SWAP1 POP PUSH1 0x0 DUP2 PUSH8 0xFFFFFFFFFFFFFFFF DUP2 GT ISZERO PUSH2 0x27AE JUMPI PUSH2 0x27AD PUSH2 0x305F JUMP JUMPDEST JUMPDEST PUSH1 0x40 MLOAD SWAP1 DUP1 DUP3 MSTORE DUP1 PUSH1 0x1F ADD PUSH1 0x1F NOT AND PUSH1 0x20 ADD DUP3 ADD PUSH1 0x40 MSTORE DUP1 ISZERO PUSH2 0x27E0 JUMPI DUP2 PUSH1 0x20 ADD PUSH1 0x1 DUP3 MUL DUP1 CALLDATASIZE DUP4 CALLDATACOPY DUP1 DUP3 ADD SWAP2 POP POP SWAP1 POP JUMPDEST POP SWAP1 POP PUSH1 0x0 DUP3 PUSH1 0x20 ADD DUP3 ADD SWAP1 POP JUMPDEST PUSH1 0x1 ISZERO PUSH2 0x2843 JUMPI DUP1 DUP1 PUSH1 0x1 SWAP1 SUB SWAP2 POP POP PUSH32 0x3031323334353637383961626364656600000000000000000000000000000000 PUSH1 0xA DUP7 MOD BYTE DUP2 MSTORE8 PUSH1 0xA DUP6 DUP2 PUSH2 0x2837 JUMPI PUSH2 0x2836 PUSH2 0x3E17 JUMP JUMPDEST JUMPDEST DIV SWAP5 POP PUSH1 0x0 DUP6 SUB PUSH2 0x27EE JUMPI JUMPDEST DUP2 SWAP4 POP POP POP POP SWAP2 SWAP1 POP JUMP JUMPDEST PUSH1 0x0 DUP1 PUSH20 0xFFFFFFFFFFFFFFFFFFFFFFFFFFFFFFFFFFFFFFFF AND PUSH2 0x2870 DUP4 PUSH2 0x249E JUMP JUMPDEST PUSH20 0xFFFFFFFFFFFFFFFFFFFFFFFFFFFFFFFFFFFFFFFF AND EQ ISZERO SWAP1 POP SWAP2 SWAP1 POP JUMP JUMPDEST POP POP POP POP JUMP JUMPDEST POP POP POP POP JUMP JUMPDEST PUSH1 0x0 PUSH2 0x28BC DUP5 PUSH20 0xFFFFFFFFFFFFFFFFFFFFFFFFFFFFFFFFFFFFFFFF AND PUSH2 0x2B75 JUMP JUMPDEST ISZERO PUSH2 0x2A15 JUMPI DUP4 PUSH20 0xFFFFFFFFFFFFFFFFFFFFFFFFFFFFFFFFFFFFFFFF AND PUSH4 0x150B7A02 PUSH2 0x28E5 PUSH2 0x1C16 JUMP JUMPDEST DUP8 DUP7 DUP7 PUSH1 0x40 MLOAD DUP6 PUSH4 0xFFFFFFFF AND PUSH1 0xE0 SHL DUP2 MSTORE PUSH1 0x4 ADD PUSH2 0x2907 SWAP5 SWAP4 SWAP3 SWAP2 SWAP1 PUSH2 0x3E9B JUMP JUMPDEST PUSH1 0x20 PUSH1 0x40 MLOAD DUP1 DUP4 SUB DUP2 PUSH1 0x0 DUP8 GAS CALL SWAP3 POP POP POP DUP1 ISZERO PUSH2 0x2943 JUMPI POP PUSH1 0x40 MLOAD RETURNDATASIZE PUSH1 0x1F NOT PUSH1 0x1F DUP3 ADD AND DUP3 ADD DUP1 PUSH1 0x40 MSTORE POP DUP2 ADD SWAP1 PUSH2 0x2940 SWAP2 SWAP1 PUSH2 0x3EFC JUMP JUMPDEST PUSH1 0x1 JUMPDEST PUSH2 0x29C5 JUMPI RETURNDATASIZE DUP1 PUSH1 0x0 DUP2 EQ PUSH2 0x2973 JUMPI PUSH1 0x40 MLOAD SWAP2 POP PUSH1 0x1F NOT PUSH1 0x3F RETURNDATASIZE ADD AND DUP3 ADD PUSH1 0x40 MSTORE RETURNDATASIZE DUP3 MSTORE RETURNDATASIZE PUSH1 0x0 PUSH1 0x20 DUP5 ADD RETURNDATACOPY PUSH2 0x2978 JUMP JUMPDEST PUSH1 0x60 SWAP2 POP JUMPDEST POP PUSH1 0x0 DUP2 MLOAD SUB PUSH2 0x29BD JUMPI PUSH1 0x40 MLOAD PUSH32 0x8C379A000000000000000000000000000000000000000000000000000000000 DUP2 MSTORE PUSH1 0x4 ADD PUSH2 0x29B4 SWAP1 PUSH2 0x3DF7 JUMP JUMPDEST PUSH1 0x40 MLOAD DUP1 SWAP2 SUB SWAP1 REVERT JUMPDEST DUP1 MLOAD DUP2 PUSH1 0x20 ADD REVERT JUMPDEST PUSH4 0x150B7A02 PUSH1 0xE0 SHL PUSH28 0xFFFFFFFFFFFFFFFFFFFFFFFFFFFFFFFFFFFFFFFFFFFFFFFFFFFFFFFF NOT AND DUP2 PUSH28 0xFFFFFFFFFFFFFFFFFFFFFFFFFFFFFFFFFFFFFFFFFFFFFFFFFFFFFFFF NOT AND EQ SWAP2 POP POP PUSH2 0x2A1A JUMP JUMPDEST PUSH1 0x1 SWAP1 POP JUMPDEST SWAP5 SWAP4 POP POP POP POP JUMP JUMPDEST PUSH1 0x0 DUP1 PUSH1 0x0 SWAP1 POP PUSH27 0x184F03E93FF9F4DAA797ED6E38ED64BF6A1F010000000000000000 DUP4 LT PUSH2 0x2A80 JUMPI PUSH27 0x184F03E93FF9F4DAA797ED6E38ED64BF6A1F010000000000000000 DUP4 DUP2 PUSH2 0x2A76 JUMPI PUSH2 0x2A75 PUSH2 0x3E17 JUMP JUMPDEST JUMPDEST DIV SWAP3 POP PUSH1 0x40 DUP2 ADD SWAP1 POP JUMPDEST PUSH14 0x4EE2D6D415B85ACEF8100000000 DUP4 LT PUSH2 0x2ABD JUMPI PUSH14 0x4EE2D6D415B85ACEF8100000000 DUP4 DUP2 PUSH2 0x2AB3 JUMPI PUSH2 0x2AB2 PUSH2 0x3E17 JUMP JUMPDEST JUMPDEST DIV SWAP3 POP PUSH1 0x20 DUP2 ADD SWAP1 POP JUMPDEST PUSH7 0x2386F26FC10000 DUP4 LT PUSH2 0x2AEC JUMPI PUSH7 0x2386F26FC10000 DUP4 DUP2 PUSH2 0x2AE2 JUMPI PUSH2 0x2AE1 PUSH2 0x3E17 JUMP JUMPDEST JUMPDEST DIV SWAP3 POP PUSH1 0x10 DUP2 ADD SWAP1 POP JUMPDEST PUSH4 0x5F5E100 DUP4 LT PUSH2 0x2B15 JUMPI PUSH4 0x5F5E100 DUP4 DUP2 PUSH2 0x2B0B JUMPI PUSH2 0x2B0A PUSH2 0x3E17 JUMP JUMPDEST JUMPDEST DIV SWAP3 POP PUSH1 0x8 DUP2 ADD SWAP1 POP JUMPDEST PUSH2 0x2710 DUP4 LT PUSH2 0x2B3A JUMPI PUSH2 0x2710 DUP4 DUP2 PUSH2 0x2B30 JUMPI PUSH2 0x2B2F PUSH2 0x3E17 JUMP JUMPDEST JUMPDEST DIV SWAP3 POP PUSH1 0x4 DUP2 ADD SWAP1 POP JUMPDEST PUSH1 0x64 DUP4 LT PUSH2 0x2B5D JUMPI PUSH1 0x64 DUP4 DUP2 PUSH2 0x2B53 JUMPI PUSH2 0x2B52 PUSH2 0x3E17 JUMP JUMPDEST JUMPDEST DIV SWAP3 POP PUSH1 0x2 DUP2 ADD SWAP1 POP JUMPDEST PUSH1 0xA DUP4 LT PUSH2 0x2B6C JUMPI PUSH1 0x1 DUP2 ADD SWAP1 POP JUMPDEST DUP1 SWAP2 POP POP SWAP2 SWAP1 POP JUMP JUMPDEST PUSH1 0x0 DUP1 DUP3 PUSH20 0xFFFFFFFFFFFFFFFFFFFFFFFFFFFFFFFFFFFFFFFF AND EXTCODESIZE GT SWAP1 POP SWAP2 SWAP1 POP JUMP JUMPDEST PUSH1 0x0 PUSH1 0x40 MLOAD SWAP1 POP SWAP1 JUMP JUMPDEST PUSH1 0x0 DUP1 REVERT JUMPDEST PUSH1 0x0 DUP1 REVERT JUMPDEST PUSH1 0x0 PUSH32 0xFFFFFFFF00000000000000000000000000000000000000000000000000000000 DUP3 AND SWAP1 POP SWAP2 SWAP1 POP JUMP JUMPDEST PUSH2 0x2BE1 DUP2 PUSH2 0x2BAC JUMP JUMPDEST DUP2 EQ PUSH2 0x2BEC JUMPI PUSH1 0x0 DUP1 REVERT JUMPDEST POP JUMP JUMPDEST PUSH1 0x0 DUP2 CALLDATALOAD SWAP1 POP PUSH2 0x2BFE DUP2 PUSH2 0x2BD8 JUMP JUMPDEST SWAP3 SWAP2 POP POP JUMP JUMPDEST PUSH1 0x0 PUSH1 0x20 DUP3 DUP5 SUB SLT ISZERO PUSH2 0x2C1A JUMPI PUSH2 0x2C19 PUSH2 0x2BA2 JUMP JUMPDEST JUMPDEST PUSH1 0x0 PUSH2 0x2C28 DUP5 DUP3 DUP6 ADD PUSH2 0x2BEF JUMP JUMPDEST SWAP2 POP POP SWAP3 SWAP2 POP POP JUMP JUMPDEST PUSH1 0x0 DUP2 ISZERO ISZERO SWAP1 POP SWAP2 SWAP1 POP JUMP JUMPDEST PUSH2 0x2C46 DUP2 PUSH2 0x2C31 JUMP JUMPDEST DUP3 MSTORE POP POP JUMP JUMPDEST PUSH1 0x0 PUSH1 0x20 DUP3 ADD SWAP1 POP PUSH2 0x2C61 PUSH1 0x0 DUP4 ADD DUP5 PUSH2 0x2C3D JUMP JUMPDEST SWAP3 SWAP2 POP POP JUMP JUMPDEST PUSH1 0x0 DUP2 MLOAD SWAP1 POP SWAP2 SWAP1 POP JUMP JUMPDEST PUSH1 0x0 DUP3 DUP3 MSTORE PUSH1 0x20 DUP3 ADD SWAP1 POP SWAP3 SWAP2 POP POP JUMP JUMPDEST PUSH1 0x0 JUMPDEST DUP4 DUP2 LT ISZERO PUSH2 0x2CA1 JUMPI DUP1 DUP3 ADD MLOAD DUP2 DUP5 ADD MSTORE PUSH1 0x20 DUP2 ADD SWAP1 POP PUSH2 0x2C86 JUMP JUMPDEST PUSH1 0x0 DUP5 DUP5 ADD MSTORE POP POP POP POP JUMP JUMPDEST PUSH1 0x0 PUSH1 0x1F NOT PUSH1 0x1F DUP4 ADD AND SWAP1 POP SWAP2 SWAP1 POP JUMP JUMPDEST PUSH1 0x0 PUSH2 0x2CC9 DUP3 PUSH2 0x2C67 JUMP JUMPDEST PUSH2 0x2CD3 DUP2 DUP6 PUSH2 0x2C72 JUMP JUMPDEST SWAP4 POP PUSH2 0x2CE3 DUP2 DUP6 PUSH1 0x20 DUP7 ADD PUSH2 0x2C83 JUMP JUMPDEST PUSH2 0x2CEC DUP2 PUSH2 0x2CAD JUMP JUMPDEST DUP5 ADD SWAP2 POP POP SWAP3 SWAP2 POP POP JUMP JUMPDEST PUSH1 0x0 PUSH1 0x20 DUP3 ADD SWAP1 POP DUP2 DUP2 SUB PUSH1 0x0 DUP4 ADD MSTORE PUSH2 0x2D11 DUP2 DUP5 PUSH2 0x2CBE JUMP JUMPDEST SWAP1 POP SWAP3 SWAP2 POP POP JUMP JUMPDEST PUSH1 0x0 DUP2 SWAP1 POP SWAP2 SWAP1 POP JUMP JUMPDEST PUSH2 0x2D2C DUP2 PUSH2 0x2D19 JUMP JUMPDEST DUP2 EQ PUSH2 0x2D37 JUMPI PUSH1 0x0 DUP1 REVERT JUMPDEST POP JUMP JUMPDEST PUSH1 0x0 DUP2 CALLDATALOAD SWAP1 POP PUSH2 0x2D49 DUP2 PUSH2 0x2D23 JUMP JUMPDEST SWAP3 SWAP2 POP POP JUMP JUMPDEST PUSH1 0x0 PUSH1 0x20 DUP3 DUP5 SUB SLT ISZERO PUSH2 0x2D65 JUMPI PUSH2 0x2D64 PUSH2 0x2BA2 JUMP JUMPDEST JUMPDEST PUSH1 0x0 PUSH2 0x2D73 DUP5 DUP3 DUP6 ADD PUSH2 0x2D3A JUMP JUMPDEST SWAP2 POP POP SWAP3 SWAP2 POP POP JUMP JUMPDEST PUSH1 0x0 PUSH20 0xFFFFFFFFFFFFFFFFFFFFFFFFFFFFFFFFFFFFFFFF DUP3 AND SWAP1 POP SWAP2 SWAP1 POP JUMP JUMPDEST PUSH1 0x0 PUSH2 0x2DA7 DUP3 PUSH2 0x2D7C JUMP JUMPDEST SWAP1 POP SWAP2 SWAP1 POP JUMP JUMPDEST PUSH2 0x2DB7 DUP2 PUSH2 0x2D9C JUMP JUMPDEST DUP3 MSTORE POP POP JUMP JUMPDEST PUSH1 0x0 PUSH1 0x20 DUP3 ADD SWAP1 POP PUSH2 0x2DD2 PUSH1 0x0 DUP4 ADD DUP5 PUSH2 0x2DAE JUMP JUMPDEST SWAP3 SWAP2 POP POP JUMP JUMPDEST PUSH2 0x2DE1 DUP2 PUSH2 0x2D9C JUMP JUMPDEST DUP2 EQ PUSH2 0x2DEC JUMPI PUSH1 0x0 DUP1 REVERT JUMPDEST POP JUMP JUMPDEST PUSH1 0x0 DUP2 CALLDATALOAD SWAP1 POP PUSH2 0x2DFE DUP2 PUSH2 0x2DD8 JUMP JUMPDEST SWAP3 SWAP2 POP POP JUMP JUMPDEST PUSH1 0x0 DUP1 PUSH1 0x40 DUP4 DUP6 SUB SLT ISZERO PUSH2 0x2E1B JUMPI PUSH2 0x2E1A PUSH2 0x2BA2 JUMP JUMPDEST JUMPDEST PUSH1 0x0 PUSH2 0x2E29 DUP6 DUP3 DUP7 ADD PUSH2 0x2DEF JUMP JUMPDEST SWAP3 POP POP PUSH1 0x20 PUSH2 0x2E3A DUP6 DUP3 DUP7 ADD PUSH2 0x2D3A JUMP JUMPDEST SWAP2 POP POP SWAP3 POP SWAP3 SWAP1 POP JUMP JUMPDEST PUSH2 0x2E4D DUP2 PUSH2 0x2D19 JUMP JUMPDEST DUP3 MSTORE POP POP JUMP JUMPDEST PUSH1 0x0 PUSH1 0x20 DUP3 ADD SWAP1 POP PUSH2 0x2E68 PUSH1 0x0 DUP4 ADD DUP5 PUSH2 0x2E44 JUMP JUMPDEST SWAP3 SWAP2 POP POP JUMP JUMPDEST PUSH1 0x0 DUP1 PUSH1 0x0 PUSH1 0x60 DUP5 DUP7 SUB SLT ISZERO PUSH2 0x2E87 JUMPI PUSH2 0x2E86 PUSH2 0x2BA2 JUMP JUMPDEST JUMPDEST PUSH1 0x0 PUSH2 0x2E95 DUP7 DUP3 DUP8 ADD PUSH2 0x2DEF JUMP JUMPDEST SWAP4 POP POP PUSH1 0x20 PUSH2 0x2EA6 DUP7 DUP3 DUP8 ADD PUSH2 0x2DEF JUMP JUMPDEST SWAP3 POP POP PUSH1 0x40 PUSH2 0x2EB7 DUP7 DUP3 DUP8 ADD PUSH2 0x2D3A JUMP JUMPDEST SWAP2 POP POP SWAP3 POP SWAP3 POP SWAP3 JUMP JUMPDEST PUSH1 0x0 DUP2 SWAP1 POP SWAP2 SWAP1 POP JUMP JUMPDEST PUSH1 0x0 PUSH2 0x2EE6 PUSH2 0x2EE1 PUSH2 0x2EDC DUP5 PUSH2 0x2D7C JUMP JUMPDEST PUSH2 0x2EC1 JUMP JUMPDEST PUSH2 0x2D7C JUMP JUMPDEST SWAP1 POP SWAP2 SWAP1 POP JUMP JUMPDEST PUSH1 0x0 PUSH2 0x2EF8 DUP3 PUSH2 0x2ECB JUMP JUMPDEST SWAP1 POP SWAP2 SWAP1 POP JUMP JUMPDEST PUSH1 0x0 PUSH2 0x2F0A DUP3 PUSH2 0x2EED JUMP JUMPDEST SWAP1 POP SWAP2 SWAP1 POP JUMP JUMPDEST PUSH2 0x2F1A DUP2 PUSH2 0x2EFF JUMP JUMPDEST DUP3 MSTORE POP POP JUMP JUMPDEST PUSH1 0x0 PUSH1 0x20 DUP3 ADD SWAP1 POP PUSH2 0x2F35 PUSH1 0x0 DUP4 ADD DUP5 PUSH2 0x2F11 JUMP JUMPDEST SWAP3 SWAP2 POP POP JUMP JUMPDEST PUSH1 0x0 PUSH2 0x2F46 DUP3 PUSH2 0x2EED JUMP JUMPDEST SWAP1 POP SWAP2 SWAP1 POP JUMP JUMPDEST PUSH2 0x2F56 DUP2 PUSH2 0x2F3B JUMP JUMPDEST DUP3 MSTORE POP POP JUMP JUMPDEST PUSH1 0x0 PUSH1 0x20 DUP3 ADD SWAP1 POP PUSH2 0x2F71 PUSH1 0x0 DUP4 ADD DUP5 PUSH2 0x2F4D JUMP JUMPDEST SWAP3 SWAP2 POP POP JUMP JUMPDEST PUSH1 0x0 PUSH1 0x20 DUP3 DUP5 SUB SLT ISZERO PUSH2 0x2F8D JUMPI PUSH2 0x2F8C PUSH2 0x2BA2 JUMP JUMPDEST JUMPDEST PUSH1 0x0 PUSH2 0x2F9B DUP5 DUP3 DUP6 ADD PUSH2 0x2DEF JUMP JUMPDEST SWAP2 POP POP SWAP3 SWAP2 POP POP JUMP JUMPDEST PUSH2 0x2FAD DUP2 PUSH2 0x2C31 JUMP JUMPDEST DUP2 EQ PUSH2 0x2FB8 JUMPI PUSH1 0x0 DUP1 REVERT JUMPDEST POP JUMP JUMPDEST PUSH1 0x0 DUP2 CALLDATALOAD SWAP1 POP PUSH2 0x2FCA DUP2 PUSH2 0x2FA4 JUMP JUMPDEST SWAP3 SWAP2 POP POP JUMP JUMPDEST PUSH1 0x0 DUP1 PUSH1 0x40 DUP4 DUP6 SUB SLT ISZERO PUSH2 0x2FE7 JUMPI PUSH2 0x2FE6 PUSH2 0x2BA2 JUMP JUMPDEST JUMPDEST PUSH1 0x0 PUSH2 0x2FF5 DUP6 DUP3 DUP7 ADD PUSH2 0x2DEF JUMP JUMPDEST SWAP3 POP POP PUSH1 0x20 PUSH2 0x3006 DUP6 DUP3 DUP7 ADD PUSH2 0x2FBB JUMP JUMPDEST SWAP2 POP POP SWAP3 POP SWAP3 SWAP1 POP JUMP JUMPDEST PUSH1 0x0 PUSH1 0x80 DUP3 ADD SWAP1 POP PUSH2 0x3025 PUSH1 0x0 DUP4 ADD DUP8 PUSH2 0x2E44 JUMP JUMPDEST PUSH2 0x3032 PUSH1 0x20 DUP4 ADD DUP7 PUSH2 0x2E44 JUMP JUMPDEST PUSH2 0x303F PUSH1 0x40 DUP4 ADD DUP6 PUSH2 0x2E44 JUMP JUMPDEST PUSH2 0x304C PUSH1 0x60 DUP4 ADD DUP5 PUSH2 0x2DAE JUMP JUMPDEST SWAP6 SWAP5 POP POP POP POP POP JUMP JUMPDEST PUSH1 0x0 DUP1 REVERT JUMPDEST PUSH1 0x0 DUP1 REVERT JUMPDEST PUSH32 0x4E487B7100000000000000000000000000000000000000000000000000000000 PUSH1 0x0 MSTORE PUSH1 0x41 PUSH1 0x4 MSTORE PUSH1 0x24 PUSH1 0x0 REVERT JUMPDEST PUSH2 0x3097 DUP3 PUSH2 0x2CAD JUMP JUMPDEST DUP2 ADD DUP2 DUP2 LT PUSH8 0xFFFFFFFFFFFFFFFF DUP3 GT OR ISZERO PUSH2 0x30B6 JUMPI PUSH2 0x30B5 PUSH2 0x305F JUMP JUMPDEST JUMPDEST DUP1 PUSH1 0x40 MSTORE POP POP POP JUMP JUMPDEST PUSH1 0x0 PUSH2 0x30C9 PUSH2 0x2B98 JUMP JUMPDEST SWAP1 POP PUSH2 0x30D5 DUP3 DUP3 PUSH2 0x308E JUMP JUMPDEST SWAP2 SWAP1 POP JUMP JUMPDEST PUSH1 0x0 PUSH8 0xFFFFFFFFFFFFFFFF DUP3 GT ISZERO PUSH2 0x30F5 JUMPI PUSH2 0x30F4 PUSH2 0x305F JUMP JUMPDEST JUMPDEST PUSH2 0x30FE DUP3 PUSH2 0x2CAD JUMP JUMPDEST SWAP1 POP PUSH1 0x20 DUP2 ADD SWAP1 POP SWAP2 SWAP1 POP JUMP JUMPDEST DUP3 DUP2 DUP4 CALLDATACOPY PUSH1 0x0 DUP4 DUP4 ADD MSTORE POP POP POP JUMP JUMPDEST PUSH1 0x0 PUSH2 0x312D PUSH2 0x3128 DUP5 PUSH2 0x30DA JUMP JUMPDEST PUSH2 0x30BF JUMP JUMPDEST SWAP1 POP DUP3 DUP2 MSTORE PUSH1 0x20 DUP2 ADD DUP5 DUP5 DUP5 ADD GT ISZERO PUSH2 0x3149 JUMPI PUSH2 0x3148 PUSH2 0x305A JUMP JUMPDEST JUMPDEST PUSH2 0x3154 DUP5 DUP3 DUP6 PUSH2 0x310B JUMP JUMPDEST POP SWAP4 SWAP3 POP POP POP JUMP JUMPDEST PUSH1 0x0 DUP3 PUSH1 0x1F DUP4 ADD SLT PUSH2 0x3171 JUMPI PUSH2 0x3170 PUSH2 0x3055 JUMP JUMPDEST JUMPDEST DUP2 CALLDATALOAD PUSH2 0x3181 DUP5 DUP3 PUSH1 0x20 DUP7 ADD PUSH2 0x311A JUMP JUMPDEST SWAP2 POP POP SWAP3 SWAP2 POP POP JUMP JUMPDEST PUSH1 0x0 DUP1 PUSH1 0x0 DUP1 PUSH1 0x80 DUP6 DUP8 SUB SLT ISZERO PUSH2 0x31A4 JUMPI PUSH2 0x31A3 PUSH2 0x2BA2 JUMP JUMPDEST JUMPDEST PUSH1 0x0 PUSH2 0x31B2 DUP8 DUP3 DUP9 ADD PUSH2 0x2DEF JUMP JUMPDEST SWAP5 POP POP PUSH1 0x20 PUSH2 0x31C3 DUP8 DUP3 DUP9 ADD PUSH2 0x2DEF JUMP JUMPDEST SWAP4 POP POP PUSH1 0x40 PUSH2 0x31D4 DUP8 DUP3 DUP9 ADD PUSH2 0x2D3A JUMP JUMPDEST SWAP3 POP POP PUSH1 0x60 DUP6 ADD CALLDATALOAD PUSH8 0xFFFFFFFFFFFFFFFF DUP2 GT ISZERO PUSH2 0x31F5 JUMPI PUSH2 0x31F4 PUSH2 0x2BA7 JUMP JUMPDEST JUMPDEST PUSH2 0x3201 DUP8 DUP3 DUP9 ADD PUSH2 0x315C JUMP JUMPDEST SWAP2 POP POP SWAP3 SWAP6 SWAP2 SWAP5 POP SWAP3 POP JUMP JUMPDEST PUSH1 0x0 PUSH2 0x3218 DUP3 PUSH2 0x2EED JUMP JUMPDEST SWAP1 POP SWAP2 SWAP1 POP JUMP JUMPDEST PUSH2 0x3228 DUP2 PUSH2 0x320D JUMP JUMPDEST DUP3 MSTORE POP POP JUMP JUMPDEST PUSH1 0x0 PUSH1 0x20 DUP3 ADD SWAP1 POP PUSH2 0x3243 PUSH1 0x0 DUP4 ADD DUP5 PUSH2 0x321F JUMP JUMPDEST SWAP3 SWAP2 POP POP JUMP JUMPDEST PUSH1 0x0 PUSH2 0x3254 DUP3 PUSH2 0x2EED JUMP JUMPDEST SWAP1 POP SWAP2 SWAP1 POP JUMP JUMPDEST PUSH2 0x3264 DUP2 PUSH2 0x3249 JUMP JUMPDEST DUP3 MSTORE POP POP JUMP JUMPDEST PUSH1 0x0 PUSH1 0x20 DUP3 ADD SWAP1 POP PUSH2 0x327F PUSH1 0x0 DUP4 ADD DUP5 PUSH2 0x325B JUMP JUMPDEST SWAP3 SWAP2 POP POP JUMP JUMPDEST PUSH1 0x0 DUP1 PUSH1 0x40 DUP4 DUP6 SUB SLT ISZERO PUSH2 0x329C JUMPI PUSH2 0x329B PUSH2 0x2BA2 JUMP JUMPDEST JUMPDEST PUSH1 0x0 PUSH2 0x32AA DUP6 DUP3 DUP7 ADD PUSH2 0x2DEF JUMP JUMPDEST SWAP3 POP POP PUSH1 0x20 PUSH2 0x32BB DUP6 DUP3 DUP7 ADD PUSH2 0x2DEF JUMP JUMPDEST SWAP2 POP POP SWAP3 POP SWAP3 SWAP1 POP JUMP JUMPDEST PUSH32 0x4E487B7100000000000000000000000000000000000000000000000000000000 PUSH1 0x0 MSTORE PUSH1 0x22 PUSH1 0x4 MSTORE PUSH1 0x24 PUSH1 0x0 REVERT JUMPDEST PUSH1 0x0 PUSH1 0x2 DUP3 DIV SWAP1 POP PUSH1 0x1 DUP3 AND DUP1 PUSH2 0x330C JUMPI PUSH1 0x7F DUP3 AND SWAP2 POP JUMPDEST PUSH1 0x20 DUP3 LT DUP2 SUB PUSH2 0x331F JUMPI PUSH2 0x331E PUSH2 0x32C5 JUMP JUMPDEST JUMPDEST POP SWAP2 SWAP1 POP JUMP JUMPDEST PUSH32 0x4552433732313A20617070726F76616C20746F2063757272656E74206F776E65 PUSH1 0x0 DUP3 ADD MSTORE PUSH32 0x7200000000000000000000000000000000000000000000000000000000000000 PUSH1 0x20 DUP3 ADD MSTORE POP JUMP JUMPDEST PUSH1 0x0 PUSH2 0x3381 PUSH1 0x21 DUP4 PUSH2 0x2C72 JUMP JUMPDEST SWAP2 POP PUSH2 0x338C DUP3 PUSH2 0x3325 JUMP JUMPDEST PUSH1 0x40 DUP3 ADD SWAP1 POP SWAP2 SWAP1 POP JUMP JUMPDEST PUSH1 0x0 PUSH1 0x20 DUP3 ADD SWAP1 POP DUP2 DUP2 SUB PUSH1 0x0 DUP4 ADD MSTORE PUSH2 0x33B0 DUP2 PUSH2 0x3374 JUMP JUMPDEST SWAP1 POP SWAP2 SWAP1 POP JUMP JUMPDEST PUSH32 0x4552433732313A20617070726F76652063616C6C6572206973206E6F7420746F PUSH1 0x0 DUP3 ADD MSTORE PUSH32 0x6B656E206F776E6572206F7220617070726F76656420666F7220616C6C000000 PUSH1 0x20 DUP3 ADD MSTORE POP JUMP JUMPDEST PUSH1 0x0 PUSH2 0x3413 PUSH1 0x3D DUP4 PUSH2 0x2C72 JUMP JUMPDEST SWAP2 POP PUSH2 0x341E DUP3 PUSH2 0x33B7 JUMP JUMPDEST PUSH1 0x40 DUP3 ADD SWAP1 POP SWAP2 SWAP1 POP JUMP JUMPDEST PUSH1 0x0 PUSH1 0x20 DUP3 ADD SWAP1 POP DUP2 DUP2 SUB PUSH1 0x0 DUP4 ADD MSTORE PUSH2 0x3442 DUP2 PUSH2 0x3406 JUMP JUMPDEST SWAP1 POP SWAP2 SWAP1 POP JUMP JUMPDEST PUSH1 0x0 PUSH1 0x60 DUP3 ADD SWAP1 POP PUSH2 0x345E PUSH1 0x0 DUP4 ADD DUP7 PUSH2 0x2DAE JUMP JUMPDEST PUSH2 0x346B PUSH1 0x20 DUP4 ADD DUP6 PUSH2 0x2DAE JUMP JUMPDEST PUSH2 0x3478 PUSH1 0x40 DUP4 ADD DUP5 PUSH2 0x2E44 JUMP JUMPDEST SWAP5 SWAP4 POP POP POP POP JUMP JUMPDEST PUSH1 0x0 DUP2 MLOAD SWAP1 POP PUSH2 0x348F DUP2 PUSH2 0x2FA4 JUMP JUMPDEST SWAP3 SWAP2 POP POP JUMP JUMPDEST PUSH1 0x0 PUSH1 0x20 DUP3 DUP5 SUB SLT ISZERO PUSH2 0x34AB JUMPI PUSH2 0x34AA PUSH2 0x2BA2 JUMP JUMPDEST JUMPDEST PUSH1 0x0 PUSH2 0x34B9 DUP5 DUP3 DUP6 ADD PUSH2 0x3480 JUMP JUMPDEST SWAP2 POP POP SWAP3 SWAP2 POP POP JUMP JUMPDEST PUSH1 0x0 PUSH1 0x40 DUP3 ADD SWAP1 POP PUSH2 0x34D7 PUSH1 0x0 DUP4 ADD DUP6 PUSH2 0x2DAE JUMP JUMPDEST PUSH2 0x34E4 PUSH1 0x20 DUP4 ADD DUP5 PUSH2 0x2E44 JUMP JUMPDEST SWAP4 SWAP3 POP POP POP JUMP JUMPDEST PUSH1 0x0 DUP2 MLOAD SWAP1 POP PUSH2 0x34FA DUP2 PUSH2 0x2D23 JUMP JUMPDEST SWAP3 SWAP2 POP POP JUMP JUMPDEST PUSH1 0x0 PUSH1 0x20 DUP3 DUP5 SUB SLT ISZERO PUSH2 0x3516 JUMPI PUSH2 0x3515 PUSH2 0x2BA2 JUMP JUMPDEST JUMPDEST PUSH1 0x0 PUSH2 0x3524 DUP5 DUP3 DUP6 ADD PUSH2 0x34EB JUMP JUMPDEST SWAP2 POP POP SWAP3 SWAP2 POP POP JUMP JUMPDEST PUSH32 0x436F6D706F756E64206465706F736974206661696C6564000000000000000000 PUSH1 0x0 DUP3 ADD MSTORE POP JUMP JUMPDEST PUSH1 0x0 PUSH2 0x3563 PUSH1 0x17 DUP4 PUSH2 0x2C72 JUMP JUMPDEST SWAP2 POP PUSH2 0x356E DUP3 PUSH2 0x352D JUMP JUMPDEST PUSH1 0x20 DUP3 ADD SWAP1 POP SWAP2 SWAP1 POP JUMP JUMPDEST PUSH1 0x0 PUSH1 0x20 DUP3 ADD SWAP1 POP DUP2 DUP2 SUB PUSH1 0x0 DUP4 ADD MSTORE PUSH2 0x3592 DUP2 PUSH2 0x3556 JUMP JUMPDEST SWAP1 POP SWAP2 SWAP1 POP JUMP JUMPDEST PUSH1 0x0 PUSH1 0x40 DUP3 ADD SWAP1 POP PUSH2 0x35AE PUSH1 0x0 DUP4 ADD DUP6 PUSH2 0x2E44 JUMP JUMPDEST PUSH2 0x35BB PUSH1 0x20 DUP4 ADD DUP5 PUSH2 0x2DAE JUMP JUMPDEST SWAP4 SWAP3 POP POP POP JUMP JUMPDEST PUSH32 0x696E73756666696369656E7420696E7465726573742061636372756564206261 PUSH1 0x0 DUP3 ADD MSTORE PUSH32 0x6C616E6365000000000000000000000000000000000000000000000000000000 PUSH1 0x20 DUP3 ADD MSTORE POP JUMP JUMPDEST PUSH1 0x0 PUSH2 0x361E PUSH1 0x25 DUP4 PUSH2 0x2C72 JUMP JUMPDEST SWAP2 POP PUSH2 0x3629 DUP3 PUSH2 0x35C2 JUMP JUMPDEST PUSH1 0x40 DUP3 ADD SWAP1 POP SWAP2 SWAP1 POP JUMP JUMPDEST PUSH1 0x0 PUSH1 0x20 DUP3 ADD SWAP1 POP DUP2 DUP2 SUB PUSH1 0x0 DUP4 ADD MSTORE PUSH2 0x364D DUP2 PUSH2 0x3611 JUMP JUMPDEST SWAP1 POP SWAP2 SWAP1 POP JUMP JUMPDEST PUSH32 0x4552433732313A2063616C6C6572206973206E6F7420746F6B656E206F776E65 PUSH1 0x0 DUP3 ADD MSTORE PUSH32 0x72206F7220617070726F76656400000000000000000000000000000000000000 PUSH1 0x20 DUP3 ADD MSTORE POP JUMP JUMPDEST PUSH1 0x0 PUSH2 0x36B0 PUSH1 0x2D DUP4 PUSH2 0x2C72 JUMP JUMPDEST SWAP2 POP PUSH2 0x36BB DUP3 PUSH2 0x3654 JUMP JUMPDEST PUSH1 0x40 DUP3 ADD SWAP1 POP SWAP2 SWAP1 POP JUMP JUMPDEST PUSH1 0x0 PUSH1 0x20 DUP3 ADD SWAP1 POP DUP2 DUP2 SUB PUSH1 0x0 DUP4 ADD MSTORE PUSH2 0x36DF DUP2 PUSH2 0x36A3 JUMP JUMPDEST SWAP1 POP SWAP2 SWAP1 POP JUMP JUMPDEST PUSH32 0x4E6F7420746865206F776E657200000000000000000000000000000000000000 PUSH1 0x0 DUP3 ADD MSTORE POP JUMP JUMPDEST PUSH1 0x0 PUSH2 0x371C PUSH1 0xD DUP4 PUSH2 0x2C72 JUMP JUMPDEST SWAP2 POP PUSH2 0x3727 DUP3 PUSH2 0x36E6 JUMP JUMPDEST PUSH1 0x20 DUP3 ADD SWAP1 POP SWAP2 SWAP1 POP JUMP JUMPDEST PUSH1 0x0 PUSH1 0x20 DUP3 ADD SWAP1 POP DUP2 DUP2 SUB PUSH1 0x0 DUP4 ADD MSTORE PUSH2 0x374B DUP2 PUSH2 0x370F JUMP JUMPDEST SWAP1 POP SWAP2 SWAP1 POP JUMP JUMPDEST PUSH32 0x4E6F7420617070726F7665640000000000000000000000000000000000000000 PUSH1 0x0 DUP3 ADD MSTORE POP JUMP JUMPDEST PUSH1 0x0 PUSH2 0x3788 PUSH1 0xC DUP4 PUSH2 0x2C72 JUMP JUMPDEST SWAP2 POP PUSH2 0x3793 DUP3 PUSH2 0x3752 JUMP JUMPDEST PUSH1 0x20 DUP3 ADD SWAP1 POP SWAP2 SWAP1 POP JUMP JUMPDEST PUSH1 0x0 PUSH1 0x20 DUP3 ADD SWAP1 POP DUP2 DUP2 SUB PUSH1 0x0 DUP4 ADD MSTORE PUSH2 0x37B7 DUP2 PUSH2 0x377B JUMP JUMPDEST SWAP1 POP SWAP2 SWAP1 POP JUMP JUMPDEST PUSH32 0x436F6D706F756E64207769746864726177616C206661696C6564000000000000 PUSH1 0x0 DUP3 ADD MSTORE POP JUMP JUMPDEST PUSH1 0x0 PUSH2 0x37F4 PUSH1 0x1A DUP4 PUSH2 0x2C72 JUMP JUMPDEST SWAP2 POP PUSH2 0x37FF DUP3 PUSH2 0x37BE JUMP JUMPDEST PUSH1 0x20 DUP3 ADD SWAP1 POP SWAP2 SWAP1 POP JUMP JUMPDEST PUSH1 0x0 PUSH1 0x20 DUP3 ADD SWAP1 POP DUP2 DUP2 SUB PUSH1 0x0 DUP4 ADD MSTORE PUSH2 0x3823 DUP2 PUSH2 0x37E7 JUMP JUMPDEST SWAP1 POP SWAP2 SWAP1 POP JUMP JUMPDEST PUSH32 0x4552433732313A20696E76616C696420746F6B656E2049440000000000000000 PUSH1 0x0 DUP3 ADD MSTORE POP JUMP JUMPDEST PUSH1 0x0 PUSH2 0x3860 PUSH1 0x18 DUP4 PUSH2 0x2C72 JUMP JUMPDEST SWAP2 POP PUSH2 0x386B DUP3 PUSH2 0x382A JUMP JUMPDEST PUSH1 0x20 DUP3 ADD SWAP1 POP SWAP2 SWAP1 POP JUMP JUMPDEST PUSH1 0x0 PUSH1 0x20 DUP3 ADD SWAP1 POP DUP2 DUP2 SUB PUSH1 0x0 DUP4 ADD MSTORE PUSH2 0x388F DUP2 PUSH2 0x3853 JUMP JUMPDEST SWAP1 POP SWAP2 SWAP1 POP JUMP JUMPDEST PUSH32 0x4552433732313A2061646472657373207A65726F206973206E6F742061207661 PUSH1 0x0 DUP3 ADD MSTORE PUSH32 0x6C6964206F776E65720000000000000000000000000000000000000000000000 PUSH1 0x20 DUP3 ADD MSTORE POP JUMP JUMPDEST PUSH1 0x0 PUSH2 0x38F2 PUSH1 0x29 DUP4 PUSH2 0x2C72 JUMP JUMPDEST SWAP2 POP PUSH2 0x38FD DUP3 PUSH2 0x3896 JUMP JUMPDEST PUSH1 0x40 DUP3 ADD SWAP1 POP SWAP2 SWAP1 POP JUMP JUMPDEST PUSH1 0x0 PUSH1 0x20 DUP3 ADD SWAP1 POP DUP2 DUP2 SUB PUSH1 0x0 DUP4 ADD MSTORE PUSH2 0x3921 DUP2 PUSH2 0x38E5 JUMP JUMPDEST SWAP1 POP SWAP2 SWAP1 POP JUMP JUMPDEST PUSH1 0x0 DUP2 SWAP1 POP SWAP3 SWAP2 POP POP JUMP JUMPDEST PUSH1 0x0 PUSH2 0x393E DUP3 PUSH2 0x2C67 JUMP JUMPDEST PUSH2 0x3948 DUP2 DUP6 PUSH2 0x3928 JUMP JUMPDEST SWAP4 POP PUSH2 0x3958 DUP2 DUP6 PUSH1 0x20 DUP7 ADD PUSH2 0x2C83 JUMP JUMPDEST DUP1 DUP5 ADD SWAP2 POP POP SWAP3 SWAP2 POP POP JUMP JUMPDEST PUSH1 0x0 PUSH2 0x3970 DUP3 DUP6 PUSH2 0x3933 JUMP JUMPDEST SWAP2 POP PUSH2 0x397C DUP3 DUP5 PUSH2 0x3933 JUMP JUMPDEST SWAP2 POP DUP2 SWAP1 POP SWAP4 SWAP3 POP POP POP JUMP JUMPDEST PUSH32 0x4F776E61626C653A206E6577206F776E657220697320746865207A65726F2061 PUSH1 0x0 DUP3 ADD MSTORE PUSH32 0x6464726573730000000000000000000000000000000000000000000000000000 PUSH1 0x20 DUP3 ADD MSTORE POP JUMP JUMPDEST PUSH1 0x0 PUSH2 0x39E4 PUSH1 0x26 DUP4 PUSH2 0x2C72 JUMP JUMPDEST SWAP2 POP PUSH2 0x39EF DUP3 PUSH2 0x3988 JUMP JUMPDEST PUSH1 0x40 DUP3 ADD SWAP1 POP SWAP2 SWAP1 POP JUMP JUMPDEST PUSH1 0x0 PUSH1 0x20 DUP3 ADD SWAP1 POP DUP2 DUP2 SUB PUSH1 0x0 DUP4 ADD MSTORE PUSH2 0x3A13 DUP2 PUSH2 0x39D7 JUMP JUMPDEST SWAP1 POP SWAP2 SWAP1 POP JUMP JUMPDEST PUSH32 0x4552433732313A206D696E7420746F20746865207A65726F2061646472657373 PUSH1 0x0 DUP3 ADD MSTORE POP JUMP JUMPDEST PUSH1 0x0 PUSH2 0x3A50 PUSH1 0x20 DUP4 PUSH2 0x2C72 JUMP JUMPDEST SWAP2 POP PUSH2 0x3A5B DUP3 PUSH2 0x3A1A JUMP JUMPDEST PUSH1 0x20 DUP3 ADD SWAP1 POP SWAP2 SWAP1 POP JUMP JUMPDEST PUSH1 0x0 PUSH1 0x20 DUP3 ADD SWAP1 POP DUP2 DUP2 SUB PUSH1 0x0 DUP4 ADD MSTORE PUSH2 0x3A7F DUP2 PUSH2 0x3A43 JUMP JUMPDEST SWAP1 POP SWAP2 SWAP1 POP JUMP JUMPDEST PUSH32 0x4552433732313A20746F6B656E20616C7265616479206D696E74656400000000 PUSH1 0x0 DUP3 ADD MSTORE POP JUMP JUMPDEST PUSH1 0x0 PUSH2 0x3ABC PUSH1 0x1C DUP4 PUSH2 0x2C72 JUMP JUMPDEST SWAP2 POP PUSH2 0x3AC7 DUP3 PUSH2 0x3A86 JUMP JUMPDEST PUSH1 0x20 DUP3 ADD SWAP1 POP SWAP2 SWAP1 POP JUMP JUMPDEST PUSH1 0x0 PUSH1 0x20 DUP3 ADD SWAP1 POP DUP2 DUP2 SUB PUSH1 0x0 DUP4 ADD MSTORE PUSH2 0x3AEB DUP2 PUSH2 0x3AAF JUMP JUMPDEST SWAP1 POP SWAP2 SWAP1 POP JUMP JUMPDEST PUSH32 0x4E487B7100000000000000000000000000000000000000000000000000000000 PUSH1 0x0 MSTORE PUSH1 0x11 PUSH1 0x4 MSTORE PUSH1 0x24 PUSH1 0x0 REVERT JUMPDEST PUSH1 0x0 PUSH2 0x3B2C DUP3 PUSH2 0x2D19 JUMP JUMPDEST SWAP2 POP PUSH2 0x3B37 DUP4 PUSH2 0x2D19 JUMP JUMPDEST SWAP3 POP DUP3 DUP3 SUB SWAP1 POP DUP2 DUP2 GT ISZERO PUSH2 0x3B4F JUMPI PUSH2 0x3B4E PUSH2 0x3AF2 JUMP JUMPDEST JUMPDEST SWAP3 SWAP2 POP POP JUMP JUMPDEST PUSH32 0x4F776E61626C653A2063616C6C6572206973206E6F7420746865206F776E6572 PUSH1 0x0 DUP3 ADD MSTORE POP JUMP JUMPDEST PUSH1 0x0 PUSH2 0x3B8B PUSH1 0x20 DUP4 PUSH2 0x2C72 JUMP JUMPDEST SWAP2 POP PUSH2 0x3B96 DUP3 PUSH2 0x3B55 JUMP JUMPDEST PUSH1 0x20 DUP3 ADD SWAP1 POP SWAP2 SWAP1 POP JUMP JUMPDEST PUSH1 0x0 PUSH1 0x20 DUP3 ADD SWAP1 POP DUP2 DUP2 SUB PUSH1 0x0 DUP4 ADD MSTORE PUSH2 0x3BBA DUP2 PUSH2 0x3B7E JUMP JUMPDEST SWAP1 POP SWAP2 SWAP1 POP JUMP JUMPDEST PUSH32 0x4552433732313A207472616E736665722066726F6D20696E636F727265637420 PUSH1 0x0 DUP3 ADD MSTORE PUSH32 0x6F776E6572000000000000000000000000000000000000000000000000000000 PUSH1 0x20 DUP3 ADD MSTORE POP JUMP JUMPDEST PUSH1 0x0 PUSH2 0x3C1D PUSH1 0x25 DUP4 PUSH2 0x2C72 JUMP JUMPDEST SWAP2 POP PUSH2 0x3C28 DUP3 PUSH2 0x3BC1 JUMP JUMPDEST PUSH1 0x40 DUP3 ADD SWAP1 POP SWAP2 SWAP1 POP JUMP JUMPDEST PUSH1 0x0 PUSH1 0x20 DUP3 ADD SWAP1 POP DUP2 DUP2 SUB PUSH1 0x0 DUP4 ADD MSTORE PUSH2 0x3C4C DUP2 PUSH2 0x3C10 JUMP JUMPDEST SWAP1 POP SWAP2 SWAP1 POP JUMP JUMPDEST PUSH32 0x4552433732313A207472616E7366657220746F20746865207A65726F20616464 PUSH1 0x0 DUP3 ADD MSTORE PUSH32 0x7265737300000000000000000000000000000000000000000000000000000000 PUSH1 0x20 DUP3 ADD MSTORE POP JUMP JUMPDEST PUSH1 0x0 PUSH2 0x3CAF PUSH1 0x24 DUP4 PUSH2 0x2C72 JUMP JUMPDEST SWAP2 POP PUSH2 0x3CBA DUP3 PUSH2 0x3C53 JUMP JUMPDEST PUSH1 0x40 DUP3 ADD SWAP1 POP SWAP2 SWAP1 POP JUMP JUMPDEST PUSH1 0x0 PUSH1 0x20 DUP3 ADD SWAP1 POP DUP2 DUP2 SUB PUSH1 0x0 DUP4 ADD MSTORE PUSH2 0x3CDE DUP2 PUSH2 0x3CA2 JUMP JUMPDEST SWAP1 POP SWAP2 SWAP1 POP JUMP JUMPDEST PUSH1 0x0 PUSH2 0x3CF0 DUP3 PUSH2 0x2D19 JUMP JUMPDEST SWAP2 POP PUSH2 0x3CFB DUP4 PUSH2 0x2D19 JUMP JUMPDEST SWAP3 POP DUP3 DUP3 ADD SWAP1 POP DUP1 DUP3 GT ISZERO PUSH2 0x3D13 JUMPI PUSH2 0x3D12 PUSH2 0x3AF2 JUMP JUMPDEST JUMPDEST SWAP3 SWAP2 POP POP JUMP JUMPDEST PUSH32 0x4552433732313A20617070726F766520746F2063616C6C657200000000000000 PUSH1 0x0 DUP3 ADD MSTORE POP JUMP JUMPDEST PUSH1 0x0 PUSH2 0x3D4F PUSH1 0x19 DUP4 PUSH2 0x2C72 JUMP JUMPDEST SWAP2 POP PUSH2 0x3D5A DUP3 PUSH2 0x3D19 JUMP JUMPDEST PUSH1 0x20 DUP3 ADD SWAP1 POP SWAP2 SWAP1 POP JUMP JUMPDEST PUSH1 0x0 PUSH1 0x20 DUP3 ADD SWAP1 POP DUP2 DUP2 SUB PUSH1 0x0 DUP4 ADD MSTORE PUSH2 0x3D7E DUP2 PUSH2 0x3D42 JUMP JUMPDEST SWAP1 POP SWAP2 SWAP1 POP JUMP JUMPDEST PUSH32 0x4552433732313A207472616E7366657220746F206E6F6E204552433732315265 PUSH1 0x0 DUP3 ADD MSTORE PUSH32 0x63656976657220696D706C656D656E7465720000000000000000000000000000 PUSH1 0x20 DUP3 ADD MSTORE POP JUMP JUMPDEST PUSH1 0x0 PUSH2 0x3DE1 PUSH1 0x32 DUP4 PUSH2 0x2C72 JUMP JUMPDEST SWAP2 POP PUSH2 0x3DEC DUP3 PUSH2 0x3D85 JUMP JUMPDEST PUSH1 0x40 DUP3 ADD SWAP1 POP SWAP2 SWAP1 POP JUMP JUMPDEST PUSH1 0x0 PUSH1 0x20 DUP3 ADD SWAP1 POP DUP2 DUP2 SUB PUSH1 0x0 DUP4 ADD MSTORE PUSH2 0x3E10 DUP2 PUSH2 0x3DD4 JUMP JUMPDEST SWAP1 POP SWAP2 SWAP1 POP JUMP JUMPDEST PUSH32 0x4E487B7100000000000000000000000000000000000000000000000000000000 PUSH1 0x0 MSTORE PUSH1 0x12 PUSH1 0x4 MSTORE PUSH1 0x24 PUSH1 0x0 REVERT JUMPDEST PUSH1 0x0 DUP2 MLOAD SWAP1 POP SWAP2 SWAP1 POP JUMP JUMPDEST PUSH1 0x0 DUP3 DUP3 MSTORE PUSH1 0x20 DUP3 ADD SWAP1 POP SWAP3 SWAP2 POP POP JUMP JUMPDEST PUSH1 0x0 PUSH2 0x3E6D DUP3 PUSH2 0x3E46 JUMP JUMPDEST PUSH2 0x3E77 DUP2 DUP6 PUSH2 0x3E51 JUMP JUMPDEST SWAP4 POP PUSH2 0x3E87 DUP2 DUP6 PUSH1 0x20 DUP7 ADD PUSH2 0x2C83 JUMP JUMPDEST PUSH2 0x3E90 DUP2 PUSH2 0x2CAD JUMP JUMPDEST DUP5 ADD SWAP2 POP POP SWAP3 SWAP2 POP POP JUMP JUMPDEST PUSH1 0x0 PUSH1 0x80 DUP3 ADD SWAP1 POP PUSH2 0x3EB0 PUSH1 0x0 DUP4 ADD DUP8 PUSH2 0x2DAE JUMP JUMPDEST PUSH2 0x3EBD PUSH1 0x20 DUP4 ADD DUP7 PUSH2 0x2DAE JUMP JUMPDEST PUSH2 0x3ECA PUSH1 0x40 DUP4 ADD DUP6 PUSH2 0x2E44 JUMP JUMPDEST DUP2 DUP2 SUB PUSH1 0x60 DUP4 ADD MSTORE PUSH2 0x3EDC DUP2 DUP5 PUSH2 0x3E62 JUMP JUMPDEST SWAP1 POP SWAP6 SWAP5 POP POP POP POP POP JUMP JUMPDEST PUSH1 0x0 DUP2 MLOAD SWAP1 POP PUSH2 0x3EF6 DUP2 PUSH2 0x2BD8 JUMP JUMPDEST SWAP3 SWAP2 POP POP JUMP JUMPDEST PUSH1 0x0 PUSH1 0x20 DUP3 DUP5 SUB SLT ISZERO PUSH2 0x3F12 JUMPI PUSH2 0x3F11 PUSH2 0x2BA2 JUMP JUMPDEST JUMPDEST PUSH1 0x0 PUSH2 0x3F20 DUP5 DUP3 DUP6 ADD PUSH2 0x3EE7 JUMP JUMPDEST SWAP2 POP POP SWAP3 SWAP2 POP POP JUMP INVALID LOG2 PUSH5 0x6970667358 0x22 SLT KECCAK256 0xEE 0xB0 0x28 0xCB GT 0xB9 PUSH22 0x28461CCD8FBC5C21F07CDE314D86EE24C0954895CFCD 0xC 0x49 0xE5 PUSH5 0x736F6C6343 STOP ADDMOD SGT STOP CALLER "},"methodIdentifiers":{"_tokenIdCounter()":"84c4bd4b","approve(address,uint256)":"095ea7b3","balanceOf(address)":"70a08231","burnNFT(uint256)":"2890e0d7","cDaiToken()":"ba266b13","cDaiTokenAddress()":"a03a60f1","cT()":"43c7995d","comptroller()":"5fe3b567","daiToken()":"be22f546","getApproved(uint256)":"081812fc","getCurrentTokenId()":"56189236","interestAccrued()":"20dcc342","isApprovedForAll(address,address)":"e985e9c5","mintNFT()":"14f710fe","mintingPrice()":"35db70b5","name()":"06fdde03","owner()":"8da5cb5b","ownerOf(uint256)":"6352211e","renounceOwnership()":"715018a6","safeTransferFrom(address,address,uint256)":"42842e0e","safeTransferFrom(address,address,uint256,bytes)":"b88d4fde","setApprovalForAll(address,bool)":"a22cb465","supportsInterface(bytes4)":"01ffc9a7","symbol()":"95d89b41","tokenURI(uint256)":"c87b56dd","transferFrom(address,address,uint256)":"23b872dd","transferOwnership(address)":"f2fde38b","userDetails(uint256)":"a9cad37b","withdrawInterestInDai()":"1976959e","withdrawInterestIncTOKEN()":"5d1793ff"}},"storageLayout":{"storage":[{"astId":3279,"contract":"contracts/CompoundNFT.sol:CompoundNFT","label":"_name","offset":0,"slot":"0","type":"t_string_storage"},{"astId":3281,"contract":"contracts/CompoundNFT.sol:CompoundNFT","label":"_symbol","offset":0,"slot":"1","type":"t_string_storage"},{"astId":3285,"contract":"contracts/CompoundNFT.sol:CompoundNFT","label":"_owners","offset":0,"slot":"2","type":"t_mapping(t_uint256,t_address)"},{"astId":3289,"contract":"contracts/CompoundNFT.sol:CompoundNFT","label":"_balances","offset":0,"slot":"3","type":"t_mapping(t_address,t_uint256)"},{"astId":3293,"contract":"contracts/CompoundNFT.sol:CompoundNFT","label":"_tokenApprovals","offset":0,"slot":"4","type":"t_mapping(t_uint256,t_address)"},{"astId":3299,"contract":"contracts/CompoundNFT.sol:CompoundNFT","label":"_operatorApprovals","offset":0,"slot":"5","type":"t_mapping(t_address,t_mapping(t_address,t_bool))"},{"astId":2638,"contract":"contracts/CompoundNFT.sol:CompoundNFT","label":"_owner","offset":0,"slot":"6","type":"t_address"},{"astId":4274,"contract":"contracts/CompoundNFT.sol:CompoundNFT","label":"_tokenIdCounter","offset":0,"slot":"7","type":"t_struct(Counter)1037_storage"},{"astId":4277,"contract":"contracts/CompoundNFT.sol:CompoundNFT","label":"daiToken","offset":0,"slot":"8","type":"t_contract(IERC20)4257"},{"astId":4280,"contract":"contracts/CompoundNFT.sol:CompoundNFT","label":"cDaiToken","offset":0,"slot":"9","type":"t_contract(CErc20Interface)995"},{"astId":4283,"contract":"contracts/CompoundNFT.sol:CompoundNFT","label":"cT","offset":0,"slot":"10","type":"t_contract(CTokenInterface)919"},{"astId":4285,"contract":"contracts/CompoundNFT.sol:CompoundNFT","label":"cDaiTokenAddress","offset":0,"slot":"11","type":"t_address"},{"astId":4288,"contract":"contracts/CompoundNFT.sol:CompoundNFT","label":"comptroller","offset":0,"slot":"12","type":"t_contract(ComptrollerInterface)526"},{"astId":4295,"contract":"contracts/CompoundNFT.sol:CompoundNFT","label":"mintingPrice","offset":0,"slot":"13","type":"t_uint256"},{"astId":4297,"contract":"contracts/CompoundNFT.sol:CompoundNFT","label":"interestAccrued","offset":0,"slot":"14","type":"t_uint256"},{"astId":4323,"contract":"contracts/CompoundNFT.sol:CompoundNFT","label":"userDetails","offset":0,"slot":"15","type":"t_mapping(t_uint256,t_struct(userData)4306_storage)"}],"types":{"t_address":{"encoding":"inplace","label":"address","numberOfBytes":"20"},"t_bool":{"encoding":"inplace","label":"bool","numberOfBytes":"1"},"t_contract(CErc20Interface)995":{"encoding":"inplace","label":"contract CErc20Interface","numberOfBytes":"20"},"t_contract(CTokenInterface)919":{"encoding":"inplace","label":"contract CTokenInterface","numberOfBytes":"20"},"t_contract(ComptrollerInterface)526":{"encoding":"inplace","label":"contract ComptrollerInterface","numberOfBytes":"20"},"t_contract(IERC20)4257":{"encoding":"inplace","label":"contract IERC20","numberOfBytes":"20"},"t_mapping(t_address,t_bool)":{"encoding":"mapping","key":"t_address","label":"mapping(address => bool)","numberOfBytes":"32","value":"t_bool"},"t_mapping(t_address,t_mapping(t_address,t_bool))":{"encoding":"mapping","key":"t_address","label":"mapping(address => mapping(address => bool))","numberOfBytes":"32","value":"t_mapping(t_address,t_bool)"},"t_mapping(t_address,t_uint256)":{"encoding":"mapping","key":"t_address","label":"mapping(address => uint256)","numberOfBytes":"32","value":"t_uint256"},"t_mapping(t_uint256,t_address)":{"encoding":"mapping","key":"t_uint256","label":"mapping(uint256 => address)","numberOfBytes":"32","value":"t_address"},"t_mapping(t_uint256,t_struct(userData)4306_storage)":{"encoding":"mapping","key":"t_uint256","label":"mapping(uint256 => struct CompoundNFT.userData)","numberOfBytes":"32","value":"t_struct(userData)4306_storage"},"t_string_storage":{"encoding":"bytes","label":"string","numberOfBytes":"32"},"t_struct(Counter)1037_storage":{"encoding":"inplace","label":"struct Counters.Counter","members":[{"astId":1036,"contract":"contracts/CompoundNFT.sol:CompoundNFT","label":"_value","offset":0,"slot":"0","type":"t_uint256"}],"numberOfBytes":"32"},"t_struct(userData)4306_storage":{"encoding":"inplace","label":"struct CompoundNFT.userData","members":[{"astId":4299,"contract":"contracts/CompoundNFT.sol:CompoundNFT","label":"investmentTime","offset":0,"slot":"0","type":"t_uint256"},{"astId":4301,"contract":"contracts/CompoundNFT.sol:CompoundNFT","label":"DepositDaiToken","offset":0,"slot":"1","type":"t_uint256"},{"astId":4303,"contract":"contracts/CompoundNFT.sol:CompoundNFT","label":"recivedCToken","offset":0,"slot":"2","type":"t_uint256"},{"astId":4305,"contract":"contracts/CompoundNFT.sol:CompoundNFT","label":"user","offset":0,"slot":"3","type":"t_address"}],"numberOfBytes":"128"},"t_uint256":{"encoding":"inplace","label":"uint256","numberOfBytes":"32"}}}}}}