{"contracts/CompoundNFT.sol":{"TokenErrorReporter":{"abi":[{"inputs":[],"name":"AcceptAdminPendingAdminCheck","type":"error"},{"inputs":[{"internalType":"uint256","name":"actualAddAmount","type":"uint256"}],"name":"AddReservesFactorFreshCheck","type":"error"},{"inputs":[],"name":"BorrowCashNotAvailable","type":"error"},{"inputs":[{"internalType":"uint256","name":"errorCode","type":"uint256"}],"name":"BorrowComptrollerRejection","type":"error"},{"inputs":[],"name":"BorrowFreshnessCheck","type":"error"},{"inputs":[{"internalType":"uint256","name":"errorCode","type":"uint256"}],"name":"LiquidateAccrueBorrowInterestFailed","type":"error"},{"inputs":[{"internalType":"uint256","name":"errorCode","type":"uint256"}],"name":"LiquidateAccrueCollateralInterestFailed","type":"error"},{"inputs":[],"name":"LiquidateCloseAmountIsUintMax","type":"error"},{"inputs":[],"name":"LiquidateCloseAmountIsZero","type":"error"},{"inputs":[],"name":"LiquidateCollateralFreshnessCheck","type":"error"},{"inputs":[{"internalType":"uint256","name":"errorCode","type":"uint256"}],"name":"LiquidateComptrollerRejection","type":"error"},{"inputs":[],"name":"LiquidateFreshnessCheck","type":"error"},{"inputs":[],"name":"LiquidateLiquidatorIsBorrower","type":"error"},{"inputs":[{"internalType":"uint256","name":"errorCode","type":"uint256"}],"name":"LiquidateRepayBorrowFreshFailed","type":"error"},{"inputs":[{"internalType":"uint256","name":"errorCode","type":"uint256"}],"name":"LiquidateSeizeComptrollerRejection","type":"error"},{"inputs":[],"name":"LiquidateSeizeLiquidatorIsBorrower","type":"error"},{"inputs":[{"internalType":"uint256","name":"errorCode","type":"uint256"}],"name":"MintComptrollerRejection","type":"error"},{"inputs":[],"name":"MintFreshnessCheck","type":"error"},{"inputs":[{"internalType":"uint256","name":"errorCode","type":"uint256"}],"name":"RedeemComptrollerRejection","type":"error"},{"inputs":[],"name":"RedeemFreshnessCheck","type":"error"},{"inputs":[],"name":"RedeemTransferOutNotPossible","type":"error"},{"inputs":[],"name":"ReduceReservesAdminCheck","type":"error"},{"inputs":[],"name":"ReduceReservesCashNotAvailable","type":"error"},{"inputs":[],"name":"ReduceReservesCashValidation","type":"error"},{"inputs":[],"name":"ReduceReservesFreshCheck","type":"error"},{"inputs":[{"internalType":"uint256","name":"errorCode","type":"uint256"}],"name":"RepayBorrowComptrollerRejection","type":"error"},{"inputs":[],"name":"RepayBorrowFreshnessCheck","type":"error"},{"inputs":[],"name":"SetComptrollerOwnerCheck","type":"error"},{"inputs":[],"name":"SetInterestRateModelFreshCheck","type":"error"},{"inputs":[],"name":"SetInterestRateModelOwnerCheck","type":"error"},{"inputs":[],"name":"SetPendingAdminOwnerCheck","type":"error"},{"inputs":[],"name":"SetReserveFactorAdminCheck","type":"error"},{"inputs":[],"name":"SetReserveFactorBoundsCheck","type":"error"},{"inputs":[],"name":"SetReserveFactorFreshCheck","type":"error"},{"inputs":[{"internalType":"uint256","name":"errorCode","type":"uint256"}],"name":"TransferComptrollerRejection","type":"error"},{"inputs":[],"name":"TransferNotAllowed","type":"error"},{"inputs":[],"name":"TransferNotEnough","type":"error"},{"inputs":[],"name":"TransferTooMuch","type":"error"},{"inputs":[],"name":"NO_ERROR","outputs":[{"internalType":"uint256","name":"","type":"uint256"}],"stateMutability":"view","type":"function"}],"evm":{"bytecode":{"linkReferences":{},"object":"608060405234801561001057600080fd5b5060b28061001f6000396000f3fe6080604052348015600f57600080fd5b506004361060285760003560e01c806369ab325014602d575b600080fd5b60336047565b604051603e91906063565b60405180910390f35b600081565b6000819050919050565b605d81604c565b82525050565b6000602082019050607660008301846056565b9291505056fea2646970667358221220fa01e43211dac2c2f9c2c523924b9d625ed380b2178461d2f11f140eea77808e64736f6c63430008130033","opcodes":"PUSH1 0x80 PUSH1 0x40 MSTORE CALLVALUE DUP1 ISZERO PUSH2 0x10 JUMPI PUSH1 0x0 DUP1 REVERT JUMPDEST POP PUSH1 0xB2 DUP1 PUSH2 0x1F PUSH1 0x0 CODECOPY PUSH1 0x0 RETURN INVALID PUSH1 0x80 PUSH1 0x40 MSTORE CALLVALUE DUP1 ISZERO PUSH1 0xF JUMPI PUSH1 0x0 DUP1 REVERT JUMPDEST POP PUSH1 0x4 CALLDATASIZE LT PUSH1 0x28 JUMPI PUSH1 0x0 CALLDATALOAD PUSH1 0xE0 SHR DUP1 PUSH4 0x69AB3250 EQ PUSH1 0x2D JUMPI JUMPDEST PUSH1 0x0 DUP1 REVERT JUMPDEST PUSH1 0x33 PUSH1 0x47 JUMP JUMPDEST PUSH1 0x40 MLOAD PUSH1 0x3E SWAP2 SWAP1 PUSH1 0x63 JUMP JUMPDEST PUSH1 0x40 MLOAD DUP1 SWAP2 SUB SWAP1 RETURN JUMPDEST PUSH1 0x0 DUP2 JUMP JUMPDEST PUSH1 0x0 DUP2 SWAP1 POP SWAP2 SWAP1 POP JUMP JUMPDEST PUSH1 0x5D DUP2 PUSH1 0x4C JUMP JUMPDEST DUP3 MSTORE POP POP JUMP JUMPDEST PUSH1 0x0 PUSH1 0x20 DUP3 ADD SWAP1 POP PUSH1 0x76 PUSH1 0x0 DUP4 ADD DUP5 PUSH1 0x56 JUMP JUMPDEST SWAP3 SWAP2 POP POP JUMP INVALID LOG2 PUSH5 0x6970667358 0x22 SLT KECCAK256 STATICCALL ADD 0xE4 ORIGIN GT 0xDA 0xC2 0xC2 0xF9 0xC2 0xC5 0x23 SWAP3 0x4B SWAP14 PUSH3 0x5ED380 0xB2 OR DUP5 PUSH2 0xD2F1 0x1F EQ 0xE 0xEA PUSH24 0x808E64736F6C634300081300330000000000000000000000 "},"methodIdentifiers":{"NO_ERROR()":"69ab3250"}},"storageLayout":{"storage":[],"types":null}}}}