{
  "_format": "hh-sol-artifact-1",
  "contractName": "CErc20Storage",
  "sourceName": "contracts/CompoundNFT.sol",
  "abi": [
    {
      "inputs": [],
      "name": "underlying",
      "outputs": [
        {
          "internalType": "address",
          "name": "",
          "type": "address"
        }
      ],
      "stateMutability": "view",
      "type": "function"
    }
  ],
  "bytecode": "0x608060405234801561001057600080fd5b5060f78061001f6000396000f3fe6080604052348015600f57600080fd5b506004361060285760003560e01c80636f307dc314602d575b600080fd5b60336047565b604051603e919060a8565b60405180910390f35b60008054906101000a900473ffffffffffffffffffffffffffffffffffffffff1681565b600073ffffffffffffffffffffffffffffffffffffffff82169050919050565b6000609482606b565b9050919050565b60a281608b565b82525050565b600060208201905060bb6000830184609b565b9291505056fea26469706673582212201c8d86515c05674311f783824b5b19dea09d3251670bf008a6abb743af5e361664736f6c63430008130033",
  "linkReferences": {},
  "deployedLinkReferences": {}
}