{
  "_format": "hh-sol-artifact-1",
  "contractName": "CompoundNFT",
  "sourceName": "contracts/CompoundNFT.sol",
  "abi": [
    {
      "inputs": [
        {
          "internalType": "address",
          "name": "_daiTokenAddress",
          "type": "address"
        },
        {
          "internalType": "address",
          "name": "_cDaiTokenAddress",
          "type": "address"
        }
      ],
      "stateMutability": "nonpayable",
      "type": "constructor"
    },
    {
      "anonymous": false,
      "inputs": [
        {
          "indexed": true,
          "internalType": "address",
          "name": "owner",
          "type": "address"
        },
        {
          "indexed": true,
          "internalType": "address",
          "name": "approved",
          "type": "address"
        },
        {
          "indexed": true,
          "internalType": "uint256",
          "name": "tokenId",
          "type": "uint256"
        }
      ],
      "name": "Approval",
      "type": "event"
    },
    {
      "anonymous": false,
      "inputs": [
        {
          "indexed": true,
          "internalType": "address",
          "name": "owner",
          "type": "address"
        },
        {
          "indexed": true,
          "internalType": "address",
          "name": "operator",
          "type": "address"
        },
        {
          "indexed": false,
          "internalType": "bool",
          "name": "approved",
          "type": "bool"
        }
      ],
      "name": "ApprovalForAll",
      "type": "event"
    },
    {
      "anonymous": false,
      "inputs": [
        {
          "indexed": false,
          "internalType": "uint256",
          "name": "tokenId",
          "type": "uint256"
        },
        {
          "indexed": false,
          "internalType": "address",
          "name": "owner",
          "type": "address"
        }
      ],
      "name": "NFTBurned",
      "type": "event"
    },
    {
      "anonymous": false,
      "inputs": [
        {
          "indexed": false,
          "internalType": "uint256",
          "name": "tokenId",
          "type": "uint256"
        },
        {
          "indexed": false,
          "internalType": "address",
          "name": "owner",
          "type": "address"
        }
      ],
      "name": "NFTMinted",
      "type": "event"
    },
    {
      "anonymous": false,
      "inputs": [
        {
          "indexed": true,
          "internalType": "address",
          "name": "previousOwner",
          "type": "address"
        },
        {
          "indexed": true,
          "internalType": "address",
          "name": "newOwner",
          "type": "address"
        }
      ],
      "name": "OwnershipTransferred",
      "type": "event"
    },
    {
      "anonymous": false,
      "inputs": [
        {
          "indexed": true,
          "internalType": "address",
          "name": "from",
          "type": "address"
        },
        {
          "indexed": true,
          "internalType": "address",
          "name": "to",
          "type": "address"
        },
        {
          "indexed": true,
          "internalType": "uint256",
          "name": "tokenId",
          "type": "uint256"
        }
      ],
      "name": "Transfer",
      "type": "event"
    },
    {
      "inputs": [],
      "name": "_tokenIdCounter",
      "outputs": [
        {
          "internalType": "uint256",
          "name": "_value",
          "type": "uint256"
        }
      ],
      "stateMutability": "view",
      "type": "function"
    },
    {
      "inputs": [
        {
          "internalType": "address",
          "name": "to",
          "type": "address"
        },
        {
          "internalType": "uint256",
          "name": "tokenId",
          "type": "uint256"
        }
      ],
      "name": "approve",
      "outputs": [],
      "stateMutability": "nonpayable",
      "type": "function"
    },
    {
      "inputs": [
        {
          "internalType": "address",
          "name": "owner",
          "type": "address"
        }
      ],
      "name": "balanceOf",
      "outputs": [
        {
          "internalType": "uint256",
          "name": "",
          "type": "uint256"
        }
      ],
      "stateMutability": "view",
      "type": "function"
    },
    {
      "inputs": [
        {
          "internalType": "uint256",
          "name": "tokenId",
          "type": "uint256"
        }
      ],
      "name": "burnNFT",
      "outputs": [],
      "stateMutability": "nonpayable",
      "type": "function"
    },
    {
      "inputs": [],
      "name": "cDaiToken",
      "outputs": [
        {
          "internalType": "contract CErc20Interface",
          "name": "",
          "type": "address"
        }
      ],
      "stateMutability": "view",
      "type": "function"
    },
    {
      "inputs": [],
      "name": "cDaiTokenAddress",
      "outputs": [
        {
          "internalType": "address",
          "name": "",
          "type": "address"
        }
      ],
      "stateMutability": "view",
      "type": "function"
    },
    {
      "inputs": [],
      "name": "cT",
      "outputs": [
        {
          "internalType": "contract CTokenInterface",
          "name": "",
          "type": "address"
        }
      ],
      "stateMutability": "view",
      "type": "function"
    },
    {
      "inputs": [],
      "name": "comptroller",
      "outputs": [
        {
          "internalType": "contract ComptrollerInterface",
          "name": "",
          "type": "address"
        }
      ],
      "stateMutability": "view",
      "type": "function"
    },
    {
      "inputs": [],
      "name": "daiToken",
      "outputs": [
        {
          "internalType": "contract IERC20",
          "name": "",
          "type": "address"
        }
      ],
      "stateMutability": "view",
      "type": "function"
    },
    {
      "inputs": [
        {
          "internalType": "uint256",
          "name": "tokenId",
          "type": "uint256"
        }
      ],
      "name": "getApproved",
      "outputs": [
        {
          "internalType": "address",
          "name": "",
          "type": "address"
        }
      ],
      "stateMutability": "view",
      "type": "function"
    },
    {
      "inputs": [],
      "name": "getCurrentTokenId",
      "outputs": [
        {
          "internalType": "uint256",
          "name": "",
          "type": "uint256"
        }
      ],
      "stateMutability": "view",
      "type": "function"
    },
    {
      "inputs": [],
      "name": "interestAccrued",
      "outputs": [
        {
          "internalType": "uint256",
          "name": "",
          "type": "uint256"
        }
      ],
      "stateMutability": "view",
      "type": "function"
    },
    {
      "inputs": [
        {
          "internalType": "address",
          "name": "owner",
          "type": "address"
        },
        {
          "internalType": "address",
          "name": "operator",
          "type": "address"
        }
      ],
      "name": "isApprovedForAll",
      "outputs": [
        {
          "internalType": "bool",
          "name": "",
          "type": "bool"
        }
      ],
      "stateMutability": "view",
      "type": "function"
    },
    {
      "inputs": [],
      "name": "mintNFT",
      "outputs": [],
      "stateMutability": "nonpayable",
      "type": "function"
    },
    {
      "inputs": [],
      "name": "mintingPrice",
      "outputs": [
        {
          "internalType": "uint256",
          "name": "",
          "type": "uint256"
        }
      ],
      "stateMutability": "view",
      "type": "function"
    },
    {
      "inputs": [],
      "name": "name",
      "outputs": [
        {
          "internalType": "string",
          "name": "",
          "type": "string"
        }
      ],
      "stateMutability": "view",
      "type": "function"
    },
    {
      "inputs": [],
      "name": "owner",
      "outputs": [
        {
          "internalType": "address",
          "name": "",
          "type": "address"
        }
      ],
      "stateMutability": "view",
      "type": "function"
    },
    {
      "inputs": [
        {
          "internalType": "uint256",
          "name": "tokenId",
          "type": "uint256"
        }
      ],
      "name": "ownerOf",
      "outputs": [
        {
          "internalType": "address",
          "name": "",
          "type": "address"
        }
      ],
      "stateMutability": "view",
      "type": "function"
    },
    {
      "inputs": [],
      "name": "renounceOwnership",
      "outputs": [],
      "stateMutability": "nonpayable",
      "type": "function"
    },
    {
      "inputs": [
        {
          "internalType": "address",
          "name": "from",
          "type": "address"
        },
        {
          "internalType": "address",
          "name": "to",
          "type": "address"
        },
        {
          "internalType": "uint256",
          "name": "tokenId",
          "type": "uint256"
        }
      ],
      "name": "safeTransferFrom",
      "outputs": [],
      "stateMutability": "nonpayable",
      "type": "function"
    },
    {
      "inputs": [
        {
          "internalType": "address",
          "name": "from",
          "type": "address"
        },
        {
          "internalType": "address",
          "name": "to",
          "type": "address"
        },
        {
          "internalType": "uint256",
          "name": "tokenId",
          "type": "uint256"
        },
        {
          "internalType": "bytes",
          "name": "data",
          "type": "bytes"
        }
      ],
      "name": "safeTransferFrom",
      "outputs": [],
      "stateMutability": "nonpayable",
      "type": "function"
    },
    {
      "inputs": [
        {
          "internalType": "address",
          "name": "operator",
          "type": "address"
        },
        {
          "internalType": "bool",
          "name": "approved",
          "type": "bool"
        }
      ],
      "name": "setApprovalForAll",
      "outputs": [],
      "stateMutability": "nonpayable",
      "type": "function"
    },
    {
      "inputs": [
        {
          "internalType": "bytes4",
          "name": "interfaceId",
          "type": "bytes4"
        }
      ],
      "name": "supportsInterface",
      "outputs": [
        {
          "internalType": "bool",
          "name": "",
          "type": "bool"
        }
      ],
      "stateMutability": "view",
      "type": "function"
    },
    {
      "inputs": [],
      "name": "symbol",
      "outputs": [
        {
          "internalType": "string",
          "name": "",
          "type": "string"
        }
      ],
      "stateMutability": "view",
      "type": "function"
    },
    {
      "inputs": [
        {
          "internalType": "uint256",
          "name": "tokenId",
          "type": "uint256"
        }
      ],
      "name": "tokenURI",
      "outputs": [
        {
          "internalType": "string",
          "name": "",
          "type": "string"
        }
      ],
      "stateMutability": "view",
      "type": "function"
    },
    {
      "inputs": [
        {
          "internalType": "address",
          "name": "from",
          "type": "address"
        },
        {
          "internalType": "address",
          "name": "to",
          "type": "address"
        },
        {
          "internalType": "uint256",
          "name": "tokenId",
          "type": "uint256"
        }
      ],
      "name": "transferFrom",
      "outputs": [],
      "stateMutability": "nonpayable",
      "type": "function"
    },
    {
      "inputs": [
        {
          "internalType": "address",
          "name": "newOwner",
          "type": "address"
        }
      ],
      "name": "transferOwnership",
      "outputs": [],
      "stateMutability": "nonpayable",
      "type": "function"
    },
    {
      "inputs": [
        {
          "internalType": "uint256",
          "name": "",
          "type": "uint256"
        }
      ],
      "name": "userDetails",
      "outputs": [
        {
          "internalType": "uint256",
          "name": "investmentTime",
          "type": "uint256"
        },
        {
          "internalType": "uint256",
          "name": "DepositDaiToken",
          "type": "uint256"
        },
        {
          "internalType": "uint256",
          "name": "recivedCToken",
          "type": "uint256"
        },
        {
          "internalType": "address",
          "name": "user",
          "type": "address"
        }
      ],
      "stateMutability": "view",
      "type": "function"
    },
    {
      "inputs": [],
      "name": "withdrawInterestInDai",
      "outputs": [],
      "stateMutability": "nonpayable",
      "type": "function"
    },
    {
      "inputs": [],
      "name": "withdrawInterestIncTOKEN",
      "outputs": [],
      "stateMutability": "nonpayable",
      "type": "function"
    }
  ],
  "bytecode": "0x6080604052670de0b6b3a7640000600d553480156200001d57600080fd5b506040516200465038038062004650833981810160405281019062000043919062000339565b6040518060400160405280600b81526020017f436f6d706f756e644e46540000000000000000000000000000000000000000008152506040518060400160405280600381526020017f4e465400000000000000000000000000000000000000000000000000000000008152508160009081620000c09190620005fa565b508060019081620000d29190620005fa565b505050620000f5620000e96200020160201b60201c565b6200020960201b60201c565b81600860006101000a81548173ffffffffffffffffffffffffffffffffffffffff021916908373ffffffffffffffffffffffffffffffffffffffff16021790555080600960006101000a81548173ffffffffffffffffffffffffffffffffffffffff021916908373ffffffffffffffffffffffffffffffffffffffff16021790555080600a60006101000a81548173ffffffffffffffffffffffffffffffffffffffff021916908373ffffffffffffffffffffffffffffffffffffffff16021790555080600b60006101000a81548173ffffffffffffffffffffffffffffffffffffffff021916908373ffffffffffffffffffffffffffffffffffffffff1602179055505050620006e1565b600033905090565b6000600660009054906101000a900473ffffffffffffffffffffffffffffffffffffffff16905081600660006101000a81548173ffffffffffffffffffffffffffffffffffffffff021916908373ffffffffffffffffffffffffffffffffffffffff1602179055508173ffffffffffffffffffffffffffffffffffffffff168173ffffffffffffffffffffffffffffffffffffffff167f8be0079c531659141344cd1fd0a4f28419497f9722a3daafe3b4186f6b6457e060405160405180910390a35050565b600080fd5b600073ffffffffffffffffffffffffffffffffffffffff82169050919050565b60006200030182620002d4565b9050919050565b6200031381620002f4565b81146200031f57600080fd5b50565b600081519050620003338162000308565b92915050565b60008060408385031215620003535762000352620002cf565b5b6000620003638582860162000322565b9250506020620003768582860162000322565b9150509250929050565b600081519050919050565b7f4e487b7100000000000000000000000000000000000000000000000000000000600052604160045260246000fd5b7f4e487b7100000000000000000000000000000000000000000000000000000000600052602260045260246000fd5b600060028204905060018216806200040257607f821691505b602082108103620004185762000417620003ba565b5b50919050565b60008190508160005260206000209050919050565b60006020601f8301049050919050565b600082821b905092915050565b600060088302620004827fffffffffffffffffffffffffffffffffffffffffffffffffffffffffffffffff8262000443565b6200048e868362000443565b95508019841693508086168417925050509392505050565b6000819050919050565b6000819050919050565b6000620004db620004d5620004cf84620004a6565b620004b0565b620004a6565b9050919050565b6000819050919050565b620004f783620004ba565b6200050f6200050682620004e2565b84845462000450565b825550505050565b600090565b6200052662000517565b62000533818484620004ec565b505050565b5b818110156200055b576200054f6000826200051c565b60018101905062000539565b5050565b601f821115620005aa5762000574816200041e565b6200057f8462000433565b810160208510156200058f578190505b620005a76200059e8562000433565b83018262000538565b50505b505050565b600082821c905092915050565b6000620005cf60001984600802620005af565b1980831691505092915050565b6000620005ea8383620005bc565b9150826002028217905092915050565b620006058262000380565b67ffffffffffffffff8111156200062157620006206200038b565b5b6200062d8254620003e9565b6200063a8282856200055f565b600060209050601f8311600181146200067257600084156200065d578287015190505b620006698582620005dc565b865550620006d9565b601f19841662000682866200041e565b60005b82811015620006ac5784890151825560018201915060208501945060208101905062000685565b86831015620006cc5784890151620006c8601f891682620005bc565b8355505b6001600288020188555050505b505050505050565b613f5f80620006f16000396000f3fe608060405234801561001057600080fd5b50600436106101da5760003560e01c80636352211e11610104578063a22cb465116100a2578063be22f54611610071578063be22f546146104ec578063c87b56dd1461050a578063e985e9c51461053a578063f2fde38b1461056a576101da565b8063a22cb46514610463578063a9cad37b1461047f578063b88d4fde146104b2578063ba266b13146104ce576101da565b806384c4bd4b116100de57806384c4bd4b146103eb5780638da5cb5b1461040957806395d89b4114610427578063a03a60f114610445576101da565b80636352211e1461038157806370a08231146103b1578063715018a6146103e1576101da565b806323b872dd1161017c57806343c7995d1161014b57806343c7995d1461031d578063561892361461033b5780635d1793ff146103595780635fe3b56714610363576101da565b806323b872dd146102ab5780632890e0d7146102c757806335db70b5146102e357806342842e0e14610301576101da565b8063095ea7b3116101b8578063095ea7b31461025d57806314f710fe146102795780631976959e1461028357806320dcc3421461028d576101da565b806301ffc9a7146101df57806306fdde031461020f578063081812fc1461022d575b600080fd5b6101f960048036038101906101f49190612c04565b610586565b6040516102069190612c4c565b60405180910390f35b610217610668565b6040516102249190612cf7565b60405180910390f35b61024760048036038101906102429190612d4f565b6106fa565b6040516102549190612dbd565b60405180910390f35b61027760048036038101906102729190612e04565b610740565b005b610281610857565b005b61028b610d0f565b005b610295611003565b6040516102a29190612e53565b60405180910390f35b6102c560048036038101906102c09190612e6e565b611009565b005b6102e160048036038101906102dc9190612d4f565b611069565b005b6102eb61150b565b6040516102f89190612e53565b60405180910390f35b61031b60048036038101906103169190612e6e565b611511565b005b610325611531565b6040516103329190612f20565b60405180910390f35b610343611557565b6040516103509190612e53565b60405180910390f35b610361611568565b005b61036b611669565b6040516103789190612f5c565b60405180910390f35b61039b60048036038101906103969190612d4f565b61168f565b6040516103a89190612dbd565b60405180910390f35b6103cb60048036038101906103c69190612f77565b611715565b6040516103d89190612e53565b60405180910390f35b6103e96117cc565b005b6103f36117e0565b6040516104009190612e53565b60405180910390f35b6104116117ec565b60405161041e9190612dbd565b60405180910390f35b61042f611816565b60405161043c9190612cf7565b60405180910390f35b61044d6118a8565b60405161045a9190612dbd565b60405180910390f35b61047d60048036038101906104789190612fd0565b6118ce565b005b61049960048036038101906104949190612d4f565b6118e4565b6040516104a99493929190613010565b60405180910390f35b6104cc60048036038101906104c7919061318a565b611934565b005b6104d6611996565b6040516104e3919061322e565b60405180910390f35b6104f46119bc565b604051610501919061326a565b60405180910390f35b610524600480360381019061051f9190612d4f565b6119e2565b6040516105319190612cf7565b60405180910390f35b610554600480360381019061054f9190613285565b611a4a565b6040516105619190612c4c565b60405180910390f35b610584600480360381019061057f9190612f77565b611ade565b005b60007f80ac58cd000000000000000000000000000000000000000000000000000000007bffffffffffffffffffffffffffffffffffffffffffffffffffffffff1916827bffffffffffffffffffffffffffffffffffffffffffffffffffffffff1916148061065157507f5b5e139f000000000000000000000000000000000000000000000000000000007bffffffffffffffffffffffffffffffffffffffffffffffffffffffff1916827bffffffffffffffffffffffffffffffffffffffffffffffffffffffff1916145b80610661575061066082611b61565b5b9050919050565b606060008054610677906132f4565b80601f01602080910402602001604051908101604052809291908181526020018280546106a3906132f4565b80156106f05780601f106106c5576101008083540402835291602001916106f0565b820191906000526020600020905b8154815290600101906020018083116106d357829003601f168201915b5050505050905090565b600061070582611bcb565b6004600083815260200190815260200160002060009054906101000a900473ffffffffffffffffffffffffffffffffffffffff169050919050565b600061074b8261168f565b90508073ffffffffffffffffffffffffffffffffffffffff168373ffffffffffffffffffffffffffffffffffffffff16036107bb576040517f08c379a00000000000000000000000000000000000000000000000000000000081526004016107b290613397565b60405180910390fd5b8073ffffffffffffffffffffffffffffffffffffffff166107da611c16565b73ffffffffffffffffffffffffffffffffffffffff161480610809575061080881610803611c16565b611a4a565b5b610848576040517f08c379a000000000000000000000000000000000000000000000000000000000815260040161083f90613429565b60405180910390fd5b6108528383611c1e565b505050565b600860009054906101000a900473ffffffffffffffffffffffffffffffffffffffff1673ffffffffffffffffffffffffffffffffffffffff166323b872dd3330600d546040518463ffffffff1660e01b81526004016108b893929190613449565b6020604051808303816000875af11580156108d7573d6000803e3d6000fd5b505050506040513d601f19601f820116820180604052508101906108fb9190613495565b5060006109086007611cd7565b90506109143382611ce5565b600860009054906101000a900473ffffffffffffffffffffffffffffffffffffffff1673ffffffffffffffffffffffffffffffffffffffff1663095ea7b3600b60009054906101000a900473ffffffffffffffffffffffffffffffffffffffff16600d546040518363ffffffff1660e01b81526004016109959291906134c2565b6020604051808303816000875af11580156109b4573d6000803e3d6000fd5b505050506040513d601f19601f820116820180604052508101906109d89190613495565b506000600a60009054906101000a900473ffffffffffffffffffffffffffffffffffffffff1673ffffffffffffffffffffffffffffffffffffffff166370a08231306040518263ffffffff1660e01b8152600401610a369190612dbd565b602060405180830381865afa158015610a53573d6000803e3d6000fd5b505050506040513d601f19601f82011682018060405250810190610a779190613500565b90506000600960009054906101000a900473ffffffffffffffffffffffffffffffffffffffff1673ffffffffffffffffffffffffffffffffffffffff1663a0712d68600d546040518263ffffffff1660e01b8152600401610ad89190612e53565b6020604051808303816000875af1158015610af7573d6000803e3d6000fd5b505050506040513d601f19601f82011682018060405250810190610b1b9190613500565b905060008114610b60576040517f08c379a0000000000000000000000000000000000000000000000000000000008152600401610b5790613579565b60405180910390fd5b6000600a60009054906101000a900473ffffffffffffffffffffffffffffffffffffffff1673ffffffffffffffffffffffffffffffffffffffff166370a08231306040518263ffffffff1660e01b8152600401610bbd9190612dbd565b602060405180830381865afa158015610bda573d6000803e3d6000fd5b505050506040513d601f19601f82011682018060405250810190610bfe9190613500565b90506040518060800160405280428152602001600d548152602001610c2c8584611f0290919063ffffffff16565b81526020013373ffffffffffffffffffffffffffffffffffffffff16815250600f600086815260200190815260200160002060008201518160000155602082015181600101556040820151816002015560608201518160030160006101000a81548173ffffffffffffffffffffffffffffffffffffffff021916908373ffffffffffffffffffffffffffffffffffffffff1602179055509050507f0176f203df400d7bd5f1b1c9ef36c16709bf3b5d9fd35f000a6bae32393f66c38433604051610cf7929190613599565b60405180910390a1610d096007611f18565b50505050565b610d17611f2e565b6000600e5411610d5c576040517f08c379a0000000000000000000000000000000000000000000000000000000008152600401610d5390613634565b60405180910390fd5b6000600860009054906101000a900473ffffffffffffffffffffffffffffffffffffffff1673ffffffffffffffffffffffffffffffffffffffff166370a08231306040518263ffffffff1660e01b8152600401610db99190612dbd565b602060405180830381865afa158015610dd6573d6000803e3d6000fd5b505050506040513d601f19601f82011682018060405250810190610dfa9190613500565b9050600960009054906101000a900473ffffffffffffffffffffffffffffffffffffffff1673ffffffffffffffffffffffffffffffffffffffff1663db006a75600e546040518263ffffffff1660e01b8152600401610e599190612e53565b6020604051808303816000875af1158015610e78573d6000803e3d6000fd5b505050506040513d601f19601f82011682018060405250810190610e9c9190613500565b506000600860009054906101000a900473ffffffffffffffffffffffffffffffffffffffff1673ffffffffffffffffffffffffffffffffffffffff166370a08231306040518263ffffffff1660e01b8152600401610efa9190612dbd565b602060405180830381865afa158015610f17573d6000803e3d6000fd5b505050506040513d601f19601f82011682018060405250810190610f3b9190613500565b9050600860009054906101000a900473ffffffffffffffffffffffffffffffffffffffff1673ffffffffffffffffffffffffffffffffffffffff1663a9059cbb610f836117ec565b610f968585611f0290919063ffffffff16565b6040518363ffffffff1660e01b8152600401610fb39291906134c2565b6020604051808303816000875af1158015610fd2573d6000803e3d6000fd5b505050506040513d601f19601f82011682018060405250810190610ff69190613495565b506000600e819055505050565b600e5481565b61101a611014611c16565b82611fac565b611059576040517f08c379a0000000000000000000000000000000000000000000000000000000008152600401611050906136c6565b60405180910390fd5b611064838383612041565b505050565b3373ffffffffffffffffffffffffffffffffffffffff166110898261168f565b73ffffffffffffffffffffffffffffffffffffffff16146110df576040517f08c379a00000000000000000000000000000000000000000000000000000000081526004016110d690613732565b60405180910390fd5b6110e93382611fac565b611128576040517f08c379a000000000000000000000000000000000000000000000000000000000815260040161111f9061379e565b60405180910390fd5b6000600a60009054906101000a900473ffffffffffffffffffffffffffffffffffffffff1673ffffffffffffffffffffffffffffffffffffffff166370a08231306040518263ffffffff1660e01b81526004016111859190612dbd565b602060405180830381865afa1580156111a2573d6000803e3d6000fd5b505050506040513d601f19601f820116820180604052508101906111c69190613500565b90506000600960009054906101000a900473ffffffffffffffffffffffffffffffffffffffff1673ffffffffffffffffffffffffffffffffffffffff1663852a12e3600d546040518263ffffffff1660e01b81526004016112279190612e53565b6020604051808303816000875af1158015611246573d6000803e3d6000fd5b505050506040513d601f19601f8201168201806040525081019061126a9190613500565b9050600081146112af576040517f08c379a00000000000000000000000000000000000000000000000000000000081526004016112a69061380a565b60405180910390fd5b6000600a60009054906101000a900473ffffffffffffffffffffffffffffffffffffffff1673ffffffffffffffffffffffffffffffffffffffff166370a08231306040518263ffffffff1660e01b815260040161130c9190612dbd565b602060405180830381865afa158015611329573d6000803e3d6000fd5b505050506040513d601f19601f8201168201806040525081019061134d9190613500565b905060006113648285611f0290919063ffffffff16565b9050611391600d54600f600088815260200190815260200160002060010154611f0290919063ffffffff16565b600f6000878152602001908152602001600020600101819055506113d481600f600088815260200190815260200160002060020154611f0290919063ffffffff16565b600f600087815260200190815260200160002060020181905550611419600f600087815260200190815260200160002060020154600e5461233a90919063ffffffff16565b600e81905550600860009054906101000a900473ffffffffffffffffffffffffffffffffffffffff1673ffffffffffffffffffffffffffffffffffffffff1663a9059cbb33600d546040518363ffffffff1660e01b815260040161147e9291906134c2565b6020604051808303816000875af115801561149d573d6000803e3d6000fd5b505050506040513d601f19601f820116820180604052508101906114c19190613495565b506114cb85612350565b7f8f0a80450bfbfadc6d05658c9dc494e43beb79be53b44adbb146c6d5040f877085336040516114fc929190613599565b60405180910390a15050505050565b600d5481565b61152c83838360405180602001604052806000815250611934565b505050565b600a60009054906101000a900473ffffffffffffffffffffffffffffffffffffffff1681565b60006115636007611cd7565b905090565b611570611f2e565b6000600e54116115b5576040517f08c379a00000000000000000000000000000000000000000000000000000000081526004016115ac90613634565b60405180910390fd5b600a60009054906101000a900473ffffffffffffffffffffffffffffffffffffffff1673ffffffffffffffffffffffffffffffffffffffff1663a9059cbb6115fb6117ec565b600e546040518363ffffffff1660e01b815260040161161b9291906134c2565b6020604051808303816000875af115801561163a573d6000803e3d6000fd5b505050506040513d601f19601f8201168201806040525081019061165e9190613495565b506000600e81905550565b600c60009054906101000a900473ffffffffffffffffffffffffffffffffffffffff1681565b60008061169b8361249e565b9050600073ffffffffffffffffffffffffffffffffffffffff168173ffffffffffffffffffffffffffffffffffffffff160361170c576040517f08c379a000000000000000000000000000000000000000000000000000000000815260040161170390613876565b60405180910390fd5b80915050919050565b60008073ffffffffffffffffffffffffffffffffffffffff168273ffffffffffffffffffffffffffffffffffffffff1603611785576040517f08c379a000000000000000000000000000000000000000000000000000000000815260040161177c90613908565b60405180910390fd5b600360008373ffffffffffffffffffffffffffffffffffffffff1673ffffffffffffffffffffffffffffffffffffffff168152602001908152602001600020549050919050565b6117d4611f2e565b6117de60006124db565b565b60078060000154905081565b6000600660009054906101000a900473ffffffffffffffffffffffffffffffffffffffff16905090565b606060018054611825906132f4565b80601f0160208091040260200160405190810160405280929190818152602001828054611851906132f4565b801561189e5780601f106118735761010080835404028352916020019161189e565b820191906000526020600020905b81548152906001019060200180831161188157829003601f168201915b5050505050905090565b600b60009054906101000a900473ffffffffffffffffffffffffffffffffffffffff1681565b6118e06118d9611c16565b83836125a1565b5050565b600f6020528060005260406000206000915090508060000154908060010154908060020154908060030160009054906101000a900473ffffffffffffffffffffffffffffffffffffffff16905084565b61194561193f611c16565b83611fac565b611984576040517f08c379a000000000000000000000000000000000000000000000000000000000815260040161197b906136c6565b60405180910390fd5b6119908484848461270d565b50505050565b600960009054906101000a900473ffffffffffffffffffffffffffffffffffffffff1681565b600860009054906101000a900473ffffffffffffffffffffffffffffffffffffffff1681565b60606119ed82611bcb565b60006119f7612769565b90506000815111611a175760405180602001604052806000815250611a42565b80611a2184612780565b604051602001611a32929190613964565b6040516020818303038152906040525b915050919050565b6000600560008473ffffffffffffffffffffffffffffffffffffffff1673ffffffffffffffffffffffffffffffffffffffff16815260200190815260200160002060008373ffffffffffffffffffffffffffffffffffffffff1673ffffffffffffffffffffffffffffffffffffffff16815260200190815260200160002060009054906101000a900460ff16905092915050565b611ae6611f2e565b600073ffffffffffffffffffffffffffffffffffffffff168173ffffffffffffffffffffffffffffffffffffffff1603611b55576040517f08c379a0000000000000000000000000000000000000000000000000000000008152600401611b4c906139fa565b60405180910390fd5b611b5e816124db565b50565b60007f01ffc9a7000000000000000000000000000000000000000000000000000000007bffffffffffffffffffffffffffffffffffffffffffffffffffffffff1916827bffffffffffffffffffffffffffffffffffffffffffffffffffffffff1916149050919050565b611bd48161284e565b611c13576040517f08c379a0000000000000000000000000000000000000000000000000000000008152600401611c0a90613876565b60405180910390fd5b50565b600033905090565b816004600083815260200190815260200160002060006101000a81548173ffffffffffffffffffffffffffffffffffffffff021916908373ffffffffffffffffffffffffffffffffffffffff160217905550808273ffffffffffffffffffffffffffffffffffffffff16611c918361168f565b73ffffffffffffffffffffffffffffffffffffffff167f8c5be1e5ebec7d5bd14f71427d1e84f3dd0314c0f7b2291e5b200ac8c7c3b92560405160405180910390a45050565b600081600001549050919050565b600073ffffffffffffffffffffffffffffffffffffffff168273ffffffffffffffffffffffffffffffffffffffff1603611d54576040517f08c379a0000000000000000000000000000000000000000000000000000000008152600401611d4b90613a66565b60405180910390fd5b611d5d8161284e565b15611d9d576040517f08c379a0000000000000000000000000000000000000000000000000000000008152600401611d9490613ad2565b60405180910390fd5b611dab60008383600161288f565b611db48161284e565b15611df4576040517f08c379a0000000000000000000000000000000000000000000000000000000008152600401611deb90613ad2565b60405180910390fd5b6001600360008473ffffffffffffffffffffffffffffffffffffffff1673ffffffffffffffffffffffffffffffffffffffff16815260200190815260200160002060008282540192505081905550816002600083815260200190815260200160002060006101000a81548173ffffffffffffffffffffffffffffffffffffffff021916908373ffffffffffffffffffffffffffffffffffffffff160217905550808273ffffffffffffffffffffffffffffffffffffffff16600073ffffffffffffffffffffffffffffffffffffffff167fddf252ad1be2c89b69c2b068fc378daa952ba7f163c4a11628f55a4df523b3ef60405160405180910390a4611efe600083836001612895565b5050565b60008183611f109190613b21565b905092915050565b6001816000016000828254019250508190555050565b611f36611c16565b73ffffffffffffffffffffffffffffffffffffffff16611f546117ec565b73ffffffffffffffffffffffffffffffffffffffff1614611faa576040517f08c379a0000000000000000000000000000000000000000000000000000000008152600401611fa190613ba1565b60405180910390fd5b565b600080611fb88361168f565b90508073ffffffffffffffffffffffffffffffffffffffff168473ffffffffffffffffffffffffffffffffffffffff161480611ffa5750611ff98185611a4a565b5b8061203857508373ffffffffffffffffffffffffffffffffffffffff16612020846106fa565b73ffffffffffffffffffffffffffffffffffffffff16145b91505092915050565b8273ffffffffffffffffffffffffffffffffffffffff166120618261168f565b73ffffffffffffffffffffffffffffffffffffffff16146120b7576040517f08c379a00000000000000000000000000000000000000000000000000000000081526004016120ae90613c33565b60405180910390fd5b600073ffffffffffffffffffffffffffffffffffffffff168273ffffffffffffffffffffffffffffffffffffffff1603612126576040517f08c379a000000000000000000000000000000000000000000000000000000000815260040161211d90613cc5565b60405180910390fd5b612133838383600161288f565b8273ffffffffffffffffffffffffffffffffffffffff166121538261168f565b73ffffffffffffffffffffffffffffffffffffffff16146121a9576040517f08c379a00000000000000000000000000000000000000000000000000000000081526004016121a090613c33565b60405180910390fd5b6004600082815260200190815260200160002060006101000a81549073ffffffffffffffffffffffffffffffffffffffff02191690556001600360008573ffffffffffffffffffffffffffffffffffffffff1673ffffffffffffffffffffffffffffffffffffffff168152602001908152602001600020600082825403925050819055506001600360008473ffffffffffffffffffffffffffffffffffffffff1673ffffffffffffffffffffffffffffffffffffffff16815260200190815260200160002060008282540192505081905550816002600083815260200190815260200160002060006101000a81548173ffffffffffffffffffffffffffffffffffffffff021916908373ffffffffffffffffffffffffffffffffffffffff160217905550808273ffffffffffffffffffffffffffffffffffffffff168473ffffffffffffffffffffffffffffffffffffffff167fddf252ad1be2c89b69c2b068fc378daa952ba7f163c4a11628f55a4df523b3ef60405160405180910390a46123358383836001612895565b505050565b600081836123489190613ce5565b905092915050565b600061235b8261168f565b905061236b81600084600161288f565b6123748261168f565b90506004600083815260200190815260200160002060006101000a81549073ffffffffffffffffffffffffffffffffffffffff02191690556001600360008373ffffffffffffffffffffffffffffffffffffffff1673ffffffffffffffffffffffffffffffffffffffff168152602001908152602001600020600082825403925050819055506002600083815260200190815260200160002060006101000a81549073ffffffffffffffffffffffffffffffffffffffff021916905581600073ffffffffffffffffffffffffffffffffffffffff168273ffffffffffffffffffffffffffffffffffffffff167fddf252ad1be2c89b69c2b068fc378daa952ba7f163c4a11628f55a4df523b3ef60405160405180910390a461249a816000846001612895565b5050565b60006002600083815260200190815260200160002060009054906101000a900473ffffffffffffffffffffffffffffffffffffffff169050919050565b6000600660009054906101000a900473ffffffffffffffffffffffffffffffffffffffff16905081600660006101000a81548173ffffffffffffffffffffffffffffffffffffffff021916908373ffffffffffffffffffffffffffffffffffffffff1602179055508173ffffffffffffffffffffffffffffffffffffffff168173ffffffffffffffffffffffffffffffffffffffff167f8be0079c531659141344cd1fd0a4f28419497f9722a3daafe3b4186f6b6457e060405160405180910390a35050565b8173ffffffffffffffffffffffffffffffffffffffff168373ffffffffffffffffffffffffffffffffffffffff160361260f576040517f08c379a000000000000000000000000000000000000000000000000000000000815260040161260690613d65565b60405180910390fd5b80600560008573ffffffffffffffffffffffffffffffffffffffff1673ffffffffffffffffffffffffffffffffffffffff16815260200190815260200160002060008473ffffffffffffffffffffffffffffffffffffffff1673ffffffffffffffffffffffffffffffffffffffff16815260200190815260200160002060006101000a81548160ff0219169083151502179055508173ffffffffffffffffffffffffffffffffffffffff168373ffffffffffffffffffffffffffffffffffffffff167f17307eab39ab6107e8899845ad3d59bd9653f200f220920489ca2b5937696c31836040516127009190612c4c565b60405180910390a3505050565b612718848484612041565b6127248484848461289b565b612763576040517f08c379a000000000000000000000000000000000000000000000000000000000815260040161275a90613df7565b60405180910390fd5b50505050565b606060405180602001604052806000815250905090565b60606000600161278f84612a22565b01905060008167ffffffffffffffff8111156127ae576127ad61305f565b5b6040519080825280601f01601f1916602001820160405280156127e05781602001600182028036833780820191505090505b509050600082602001820190505b600115612843578080600190039150507f3031323334353637383961626364656600000000000000000000000000000000600a86061a8153600a858161283757612836613e17565b5b049450600085036127ee575b819350505050919050565b60008073ffffffffffffffffffffffffffffffffffffffff166128708361249e565b73ffffffffffffffffffffffffffffffffffffffff1614159050919050565b50505050565b50505050565b60006128bc8473ffffffffffffffffffffffffffffffffffffffff16612b75565b15612a15578373ffffffffffffffffffffffffffffffffffffffff1663150b7a026128e5611c16565b8786866040518563ffffffff1660e01b81526004016129079493929190613e9b565b6020604051808303816000875af192505050801561294357506040513d601f19601f820116820180604052508101906129409190613efc565b60015b6129c5573d8060008114612973576040519150601f19603f3d011682016040523d82523d6000602084013e612978565b606091505b5060008151036129bd576040517f08c379a00000000000000000000000000000000000000000000000000000000081526004016129b490613df7565b60405180910390fd5b805181602001fd5b63150b7a0260e01b7bffffffffffffffffffffffffffffffffffffffffffffffffffffffff1916817bffffffffffffffffffffffffffffffffffffffffffffffffffffffff191614915050612a1a565b600190505b949350505050565b600080600090507a184f03e93ff9f4daa797ed6e38ed64bf6a1f0100000000000000008310612a80577a184f03e93ff9f4daa797ed6e38ed64bf6a1f0100000000000000008381612a7657612a75613e17565b5b0492506040810190505b6d04ee2d6d415b85acef81000000008310612abd576d04ee2d6d415b85acef81000000008381612ab357612ab2613e17565b5b0492506020810190505b662386f26fc100008310612aec57662386f26fc100008381612ae257612ae1613e17565b5b0492506010810190505b6305f5e1008310612b15576305f5e1008381612b0b57612b0a613e17565b5b0492506008810190505b6127108310612b3a576127108381612b3057612b2f613e17565b5b0492506004810190505b60648310612b5d5760648381612b5357612b52613e17565b5b0492506002810190505b600a8310612b6c576001810190505b80915050919050565b6000808273ffffffffffffffffffffffffffffffffffffffff163b119050919050565b6000604051905090565b600080fd5b600080fd5b60007fffffffff0000000000000000000000000000000000000000000000000000000082169050919050565b612be181612bac565b8114612bec57600080fd5b50565b600081359050612bfe81612bd8565b92915050565b600060208284031215612c1a57612c19612ba2565b5b6000612c2884828501612bef565b91505092915050565b60008115159050919050565b612c4681612c31565b82525050565b6000602082019050612c616000830184612c3d565b92915050565b600081519050919050565b600082825260208201905092915050565b60005b83811015612ca1578082015181840152602081019050612c86565b60008484015250505050565b6000601f19601f8301169050919050565b6000612cc982612c67565b612cd38185612c72565b9350612ce3818560208601612c83565b612cec81612cad565b840191505092915050565b60006020820190508181036000830152612d118184612cbe565b905092915050565b6000819050919050565b612d2c81612d19565b8114612d3757600080fd5b50565b600081359050612d4981612d23565b92915050565b600060208284031215612d6557612d64612ba2565b5b6000612d7384828501612d3a565b91505092915050565b600073ffffffffffffffffffffffffffffffffffffffff82169050919050565b6000612da782612d7c565b9050919050565b612db781612d9c565b82525050565b6000602082019050612dd26000830184612dae565b92915050565b612de181612d9c565b8114612dec57600080fd5b50565b600081359050612dfe81612dd8565b92915050565b60008060408385031215612e1b57612e1a612ba2565b5b6000612e2985828601612def565b9250506020612e3a85828601612d3a565b9150509250929050565b612e4d81612d19565b82525050565b6000602082019050612e686000830184612e44565b92915050565b600080600060608486031215612e8757612e86612ba2565b5b6000612e9586828701612def565b9350506020612ea686828701612def565b9250506040612eb786828701612d3a565b9150509250925092565b6000819050919050565b6000612ee6612ee1612edc84612d7c565b612ec1565b612d7c565b9050919050565b6000612ef882612ecb565b9050919050565b6000612f0a82612eed565b9050919050565b612f1a81612eff565b82525050565b6000602082019050612f356000830184612f11565b92915050565b6000612f4682612eed565b9050919050565b612f5681612f3b565b82525050565b6000602082019050612f716000830184612f4d565b92915050565b600060208284031215612f8d57612f8c612ba2565b5b6000612f9b84828501612def565b91505092915050565b612fad81612c31565b8114612fb857600080fd5b50565b600081359050612fca81612fa4565b92915050565b60008060408385031215612fe757612fe6612ba2565b5b6000612ff585828601612def565b925050602061300685828601612fbb565b9150509250929050565b60006080820190506130256000830187612e44565b6130326020830186612e44565b61303f6040830185612e44565b61304c6060830184612dae565b95945050505050565b600080fd5b600080fd5b7f4e487b7100000000000000000000000000000000000000000000000000000000600052604160045260246000fd5b61309782612cad565b810181811067ffffffffffffffff821117156130b6576130b561305f565b5b80604052505050565b60006130c9612b98565b90506130d5828261308e565b919050565b600067ffffffffffffffff8211156130f5576130f461305f565b5b6130fe82612cad565b9050602081019050919050565b82818337600083830152505050565b600061312d613128846130da565b6130bf565b9050828152602081018484840111156131495761314861305a565b5b61315484828561310b565b509392505050565b600082601f83011261317157613170613055565b5b813561318184826020860161311a565b91505092915050565b600080600080608085870312156131a4576131a3612ba2565b5b60006131b287828801612def565b94505060206131c387828801612def565b93505060406131d487828801612d3a565b925050606085013567ffffffffffffffff8111156131f5576131f4612ba7565b5b6132018782880161315c565b91505092959194509250565b600061321882612eed565b9050919050565b6132288161320d565b82525050565b6000602082019050613243600083018461321f565b92915050565b600061325482612eed565b9050919050565b61326481613249565b82525050565b600060208201905061327f600083018461325b565b92915050565b6000806040838503121561329c5761329b612ba2565b5b60006132aa85828601612def565b92505060206132bb85828601612def565b9150509250929050565b7f4e487b7100000000000000000000000000000000000000000000000000000000600052602260045260246000fd5b6000600282049050600182168061330c57607f821691505b60208210810361331f5761331e6132c5565b5b50919050565b7f4552433732313a20617070726f76616c20746f2063757272656e74206f776e6560008201527f7200000000000000000000000000000000000000000000000000000000000000602082015250565b6000613381602183612c72565b915061338c82613325565b604082019050919050565b600060208201905081810360008301526133b081613374565b9050919050565b7f4552433732313a20617070726f76652063616c6c6572206973206e6f7420746f60008201527f6b656e206f776e6572206f7220617070726f76656420666f7220616c6c000000602082015250565b6000613413603d83612c72565b915061341e826133b7565b604082019050919050565b6000602082019050818103600083015261344281613406565b9050919050565b600060608201905061345e6000830186612dae565b61346b6020830185612dae565b6134786040830184612e44565b949350505050565b60008151905061348f81612fa4565b92915050565b6000602082840312156134ab576134aa612ba2565b5b60006134b984828501613480565b91505092915050565b60006040820190506134d76000830185612dae565b6134e46020830184612e44565b9392505050565b6000815190506134fa81612d23565b92915050565b60006020828403121561351657613515612ba2565b5b6000613524848285016134eb565b91505092915050565b7f436f6d706f756e64206465706f736974206661696c6564000000000000000000600082015250565b6000613563601783612c72565b915061356e8261352d565b602082019050919050565b6000602082019050818103600083015261359281613556565b9050919050565b60006040820190506135ae6000830185612e44565b6135bb6020830184612dae565b9392505050565b7f696e73756666696369656e7420696e746572657374206163637275656420626160008201527f6c616e6365000000000000000000000000000000000000000000000000000000602082015250565b600061361e602583612c72565b9150613629826135c2565b604082019050919050565b6000602082019050818103600083015261364d81613611565b9050919050565b7f4552433732313a2063616c6c6572206973206e6f7420746f6b656e206f776e6560008201527f72206f7220617070726f76656400000000000000000000000000000000000000602082015250565b60006136b0602d83612c72565b91506136bb82613654565b604082019050919050565b600060208201905081810360008301526136df816136a3565b9050919050565b7f4e6f7420746865206f776e657200000000000000000000000000000000000000600082015250565b600061371c600d83612c72565b9150613727826136e6565b602082019050919050565b6000602082019050818103600083015261374b8161370f565b9050919050565b7f4e6f7420617070726f7665640000000000000000000000000000000000000000600082015250565b6000613788600c83612c72565b915061379382613752565b602082019050919050565b600060208201905081810360008301526137b78161377b565b9050919050565b7f436f6d706f756e64207769746864726177616c206661696c6564000000000000600082015250565b60006137f4601a83612c72565b91506137ff826137be565b602082019050919050565b60006020820190508181036000830152613823816137e7565b9050919050565b7f4552433732313a20696e76616c696420746f6b656e2049440000000000000000600082015250565b6000613860601883612c72565b915061386b8261382a565b602082019050919050565b6000602082019050818103600083015261388f81613853565b9050919050565b7f4552433732313a2061646472657373207a65726f206973206e6f74206120766160008201527f6c6964206f776e65720000000000000000000000000000000000000000000000602082015250565b60006138f2602983612c72565b91506138fd82613896565b604082019050919050565b60006020820190508181036000830152613921816138e5565b9050919050565b600081905092915050565b600061393e82612c67565b6139488185613928565b9350613958818560208601612c83565b80840191505092915050565b60006139708285613933565b915061397c8284613933565b91508190509392505050565b7f4f776e61626c653a206e6577206f776e657220697320746865207a65726f206160008201527f6464726573730000000000000000000000000000000000000000000000000000602082015250565b60006139e4602683612c72565b91506139ef82613988565b604082019050919050565b60006020820190508181036000830152613a13816139d7565b9050919050565b7f4552433732313a206d696e7420746f20746865207a65726f2061646472657373600082015250565b6000613a50602083612c72565b9150613a5b82613a1a565b602082019050919050565b60006020820190508181036000830152613a7f81613a43565b9050919050565b7f4552433732313a20746f6b656e20616c7265616479206d696e74656400000000600082015250565b6000613abc601c83612c72565b9150613ac782613a86565b602082019050919050565b60006020820190508181036000830152613aeb81613aaf565b9050919050565b7f4e487b7100000000000000000000000000000000000000000000000000000000600052601160045260246000fd5b6000613b2c82612d19565b9150613b3783612d19565b9250828203905081811115613b4f57613b4e613af2565b5b92915050565b7f4f776e61626c653a2063616c6c6572206973206e6f7420746865206f776e6572600082015250565b6000613b8b602083612c72565b9150613b9682613b55565b602082019050919050565b60006020820190508181036000830152613bba81613b7e565b9050919050565b7f4552433732313a207472616e736665722066726f6d20696e636f72726563742060008201527f6f776e6572000000000000000000000000000000000000000000000000000000602082015250565b6000613c1d602583612c72565b9150613c2882613bc1565b604082019050919050565b60006020820190508181036000830152613c4c81613c10565b9050919050565b7f4552433732313a207472616e7366657220746f20746865207a65726f2061646460008201527f7265737300000000000000000000000000000000000000000000000000000000602082015250565b6000613caf602483612c72565b9150613cba82613c53565b604082019050919050565b60006020820190508181036000830152613cde81613ca2565b9050919050565b6000613cf082612d19565b9150613cfb83612d19565b9250828201905080821115613d1357613d12613af2565b5b92915050565b7f4552433732313a20617070726f766520746f2063616c6c657200000000000000600082015250565b6000613d4f601983612c72565b9150613d5a82613d19565b602082019050919050565b60006020820190508181036000830152613d7e81613d42565b9050919050565b7f4552433732313a207472616e7366657220746f206e6f6e20455243373231526560008201527f63656976657220696d706c656d656e7465720000000000000000000000000000602082015250565b6000613de1603283612c72565b9150613dec82613d85565b604082019050919050565b60006020820190508181036000830152613e1081613dd4565b9050919050565b7f4e487b7100000000000000000000000000000000000000000000000000000000600052601260045260246000fd5b600081519050919050565b600082825260208201905092915050565b6000613e6d82613e46565b613e778185613e51565b9350613e87818560208601612c83565b613e9081612cad565b840191505092915050565b6000608082019050613eb06000830187612dae565b613ebd6020830186612dae565b613eca6040830185612e44565b8181036060830152613edc8184613e62565b905095945050505050565b600081519050613ef681612bd8565b92915050565b600060208284031215613f1257613f11612ba2565b5b6000613f2084828501613ee7565b9150509291505056fea2646970667358221220eeb028cb11b97528461ccd8fbc5c21f07cde314d86ee24c0954895cfcd0c49e564736f6c63430008130033",
  "linkReferences": {},
  "deployedLinkReferences": {}
}