{
  "_format": "hh-sol-artifact-1",
  "contractName": "CTokenStorage",
  "sourceName": "contracts/CompoundNFT.sol",
  "abi": [
    {
      "inputs": [],
      "name": "accrualBlockNumber",
      "outputs": [
        {
          "internalType": "uint256",
          "name": "",
          "type": "uint256"
        }
      ],
      "stateMutability": "view",
      "type": "function"
    },
    {
      "inputs": [],
      "name": "admin",
      "outputs": [
        {
          "internalType": "address payable",
          "name": "",
          "type": "address"
        }
      ],
      "stateMutability": "view",
      "type": "function"
    },
    {
      "inputs": [],
      "name": "borrowIndex",
      "outputs": [
        {
          "internalType": "uint256",
          "name": "",
          "type": "uint256"
        }
      ],
      "stateMutability": "view",
      "type": "function"
    },
    {
      "inputs": [],
      "name": "comptroller",
      "outputs": [
        {
          "internalType": "contract ComptrollerInterface",
          "name": "",
          "type": "address"
        }
      ],
      "stateMutability": "view",
      "type": "function"
    },
    {
      "inputs": [],
      "name": "decimals",
      "outputs": [
        {
          "internalType": "uint8",
          "name": "",
          "type": "uint8"
        }
      ],
      "stateMutability": "view",
      "type": "function"
    },
    {
      "inputs": [],
      "name": "interestRateModel",
      "outputs": [
        {
          "internalType": "contract InterestRateModel",
          "name": "",
          "type": "address"
        }
      ],
      "stateMutability": "view",
      "type": "function"
    },
    {
      "inputs": [],
      "name": "name",
      "outputs": [
        {
          "internalType": "string",
          "name": "",
          "type": "string"
        }
      ],
      "stateMutability": "view",
      "type": "function"
    },
    {
      "inputs": [],
      "name": "pendingAdmin",
      "outputs": [
        {
          "internalType": "address payable",
          "name": "",
          "type": "address"
        }
      ],
      "stateMutability": "view",
      "type": "function"
    },
    {
      "inputs": [],
      "name": "protocolSeizeShareMantissa",
      "outputs": [
        {
          "internalType": "uint256",
          "name": "",
          "type": "uint256"
        }
      ],
      "stateMutability": "view",
      "type": "function"
    },
    {
      "inputs": [],
      "name": "reserveFactorMantissa",
      "outputs": [
        {
          "internalType": "uint256",
          "name": "",
          "type": "uint256"
        }
      ],
      "stateMutability": "view",
      "type": "function"
    },
    {
      "inputs": [],
      "name": "symbol",
      "outputs": [
        {
          "internalType": "string",
          "name": "",
          "type": "string"
        }
      ],
      "stateMutability": "view",
      "type": "function"
    },
    {
      "inputs": [],
      "name": "totalBorrows",
      "outputs": [
        {
          "internalType": "uint256",
          "name": "",
          "type": "uint256"
        }
      ],
      "stateMutability": "view",
      "type": "function"
    },
    {
      "inputs": [],
      "name": "totalReserves",
      "outputs": [
        {
          "internalType": "uint256",
          "name": "",
          "type": "uint256"
        }
      ],
      "stateMutability": "view",
      "type": "function"
    },
    {
      "inputs": [],
      "name": "totalSupply",
      "outputs": [
        {
          "internalType": "uint256",
          "name": "",
          "type": "uint256"
        }
      ],
      "stateMutability": "view",
      "type": "function"
    }
  ],
  "bytecode": "0x608060405234801561001057600080fd5b5061074e806100206000396000f3fe608060405234801561001057600080fd5b50600436106100ea5760003560e01c80636752e7021161008c57806395d89b411161006657806395d89b411461021b578063aa5af0fd14610239578063f3fdb15a14610257578063f851a44014610275576100ea565b80636752e702146101c15780636c540baf146101df5780638f840ddd146101fd576100ea565b806326782247116100c85780632678224714610149578063313ce5671461016757806347bd3718146101855780635fe3b567146101a3576100ea565b806306fdde03146100ef578063173b99041461010d57806318160ddd1461012b575b600080fd5b6100f7610293565b6040516101049190610519565b60405180910390f35b610115610321565b6040516101229190610554565b60405180910390f35b610133610327565b6040516101409190610554565b60405180910390f35b61015161032d565b60405161015e91906105b0565b60405180910390f35b61016f610353565b60405161017c91906105e7565b60405180910390f35b61018d610366565b60405161019a9190610554565b60405180910390f35b6101ab61036c565b6040516101b89190610661565b60405180910390f35b6101c9610392565b6040516101d69190610554565b60405180910390f35b6101e761039d565b6040516101f49190610554565b60405180910390f35b6102056103a3565b6040516102129190610554565b60405180910390f35b6102236103a9565b6040516102309190610519565b60405180910390f35b610241610437565b60405161024e9190610554565b60405180910390f35b61025f61043d565b60405161026c919061069d565b60405180910390f35b61027d610463565b60405161028a91906105b0565b60405180910390f35b600180546102a0906106e7565b80601f01602080910402602001604051908101604052809291908181526020018280546102cc906106e7565b80156103195780601f106102ee57610100808354040283529160200191610319565b820191906000526020600020905b8154815290600101906020018083116102fc57829003601f168201915b505050505081565b60085481565b600d5481565b600460009054906101000a900473ffffffffffffffffffffffffffffffffffffffff1681565b600360009054906101000a900460ff1681565b600b5481565b600560009054906101000a900473ffffffffffffffffffffffffffffffffffffffff1681565b666379da05b6000081565b60095481565b600c5481565b600280546103b6906106e7565b80601f01602080910402602001604051908101604052809291908181526020018280546103e2906106e7565b801561042f5780601f106104045761010080835404028352916020019161042f565b820191906000526020600020905b81548152906001019060200180831161041257829003601f168201915b505050505081565b600a5481565b600660009054906101000a900473ffffffffffffffffffffffffffffffffffffffff1681565b600360019054906101000a900473ffffffffffffffffffffffffffffffffffffffff1681565b600081519050919050565b600082825260208201905092915050565b60005b838110156104c35780820151818401526020810190506104a8565b60008484015250505050565b6000601f19601f8301169050919050565b60006104eb82610489565b6104f58185610494565b93506105058185602086016104a5565b61050e816104cf565b840191505092915050565b6000602082019050818103600083015261053381846104e0565b905092915050565b6000819050919050565b61054e8161053b565b82525050565b60006020820190506105696000830184610545565b92915050565b600073ffffffffffffffffffffffffffffffffffffffff82169050919050565b600061059a8261056f565b9050919050565b6105aa8161058f565b82525050565b60006020820190506105c560008301846105a1565b92915050565b600060ff82169050919050565b6105e1816105cb565b82525050565b60006020820190506105fc60008301846105d8565b92915050565b6000819050919050565b600061062761062261061d8461056f565b610602565b61056f565b9050919050565b60006106398261060c565b9050919050565b600061064b8261062e565b9050919050565b61065b81610640565b82525050565b60006020820190506106766000830184610652565b92915050565b60006106878261062e565b9050919050565b6106978161067c565b82525050565b60006020820190506106b2600083018461068e565b92915050565b7f4e487b7100000000000000000000000000000000000000000000000000000000600052602260045260246000fd5b600060028204905060018216806106ff57607f821691505b602082108103610712576107116106b8565b5b5091905056fea264697066735822122073743157d1329b5fc48fa8dce9cd83259eddb9649a919002472b920dbb4fff4c64736f6c63430008130033",
  "linkReferences": {},
  "deployedLinkReferences": {}
}